:020000040800F2
:10000000B804002049010008B7100008AD0E000830
:10001000B5100008B50100088713000800000000B3
:10002000000000000000000000000000A91100080E
:10003000B701000800000000B9100008AB1100086B
:100040006301000863010008630100086301000800
:1000500063010008630100086301000863010008F0
:1000600063010008630100086301000863010008E0
:1000700063010008630100086301000863010008D0
:1000800063010008630100086301000863010008C0
:1000900063010008630100086301000863010008B0
:1000A00063010008630100086301000863010008A0
:1000B0006301000863010008630100086301000890
:1000C0006301000863010008630100086301000880
:1000D0006301000863010008630100086301000870
:1000E0006301000863010008630100086301000860
:1000F0006301000863010008630100086301000850
:10010000630100086301000863010008630100083F
:10011000630100086301000863010008630100082F
:10012000630100086301000863010008630100081F
:10013000DFF810D000F02CF800480047D514000874
:10014000AFF30080B8040020064880470648004707
:10015000FEE7FEE7FEE7FEE7FEE7FEE7FEE7FEE777
:10016000FEE7FEE70D12000831010008D2B201E0FF
:1001700000F8012B491EFBD270470022F6E710B5AC
:1001800013460A4604461946FFF7F0FF204610BD05
:10019000064C074D06E0E06840F0010394E80700D4
:1001A00098471034AC42F6D3FFF7C6FF701500082D
:1001B00090150008FEE7704700224FF400510148F7
:1001C00000F01AB90010014001225103014800F06B
:1001D00013B900000010014001B582B000208DF875
:1001E0000400401E0090012301AA02A9024800F069
:1001F00097FC9DF804000EBD1400002072B6FEE7C7
:100200002DE9F84FDFF8C8910024A9F1040B23462B
:100210000F2709F1040AABF1040ED1E00125A54036
:1002200006EA0502AA4276D1DFF8A8C14E68A6EB1D
:100230000C0866452BD00DDC032E34D005DC36B31C
:10024000012E19D0022E2FD11BE0112E16D0122E06
:100250002AD119E0B8F5881F19D006DCB8F5803F1F
:1002600015D0B8F5801F1FD111E0B8F5001F0ED0D2
:10027000B8F5041F18D10AE0CB6815E0CB681B1D48
:1002800012E0CB6808330FE0CB680C330CE08B68CE
:100290002BB1012B4FF0080303D0456104E0042388
:1002A00002E0056100E00023FF2A01D8064601E0D4
:1002B00000F104064FEA840501D9A5F12005D6F81E
:1002C000008007FA05FC28EA0C0803FA05F548EA5D
:1002D0000508C6F800804D68ED0070D53E4DAE694A
:1002E00046F00106AE61AD6924F0030605F0010594
:1002F00000953A4D06EB050CDCF80850A607360FC2
:1003000007FA06F825EA0805DFF8D480404503D14E
:100310004FF0000825E052E0DFF8C880404502D1E8
:100320004FF001081DE0DFF8C080404502D14FF0DA
:10033000020816E0DFF8B480404502D14FF0030810
:100340000FE0DFF8AC80404502D14FF0040808E030
:10035000DFF8A080404502D14FF0050801E04FF0E2
:10036000060808FA06F848EA0508CCF808804D683F
:10037000D9F80060ED024D4601D5164300E09643E2
:100380002E604D68DAF80060AD02554601D516437F
:1003900000E096432E604D68DBF80060AD035D46DB
:1003A00001D5164300E096432E604D68DEF80060EC
:1003B000ED03754601D5164300E096432E60641C9C
:1003C0000A681646E2407FF429AFBDE8F88F0000C6
:1003D000080401400000111000100240000001401C
:1003E00000080140000C01400010014000140140D1
:1003F00000180140001C01400AB101617047090466
:10040000FBE7000001488068704700000000002002
:100410000248816802781144816070470000002022
:10042000074810B5016841F010010160032000F099
:1004300067F80F2000F006F800F024F8002010BD47
:100440000020024070B50D4D04464FF47A712878B3
:10045000B1FBF0F00A490968B1FBF0F000F058FC7C
:1004600048B9102C07D200222146501E00F028F86F
:1004700000206C6070BD012070BD000000000020F5
:100480000C0000200C4808B5816941F00101816130
:10049000816901F001010091C16941F08051C161A0
:1004A000C06900F0805000900448416821F0E0618C
:1004B00041F00071416008BD0010024000000140A1
:1004C000F0B40E4B1B680C46C3F30223C3F10705BF
:1004D000042D00D90425191D072901D2002300E0AD
:1004E000DB1E012606FA05F1491E214099409E4077
:1004F000761E16403143F0BC00F056BF0CED00E014
:10050000064900F0070208684FF6FF03184040EA6A
:100510000220034A10430860704700000CED00E021
:100520000000FA052DE9F0470F46050061D0434E63
:10053000306800F00700B84209D2306820F00700A8
:1005400038433060306800F00700B84251D1286865
:100550003B4C810712D5400703D5606840F4E0604A
:1005600060602878000703D5606840F460506060E0
:100570006068A96820F0F000084360602878C00730
:1005800028D06868012810D02168022810D0890777
:1005900000292EDA616821F0030101436160FFF751
:1005A00031FF804641F288390DE021688903EFE789
:1005B0008901EDE7FFF726FFA0EB0801494502D9C5
:1005C0000320BDE8F0876068696800F00C00B0EBBC
:1005D000810FEFD1306800F00700B8420BD93068C6
:1005E00020F0070038433060306800F00700B84260
:1005F00001D00120E5E72878400705D56068E96863
:1006000020F4E060084360602878000706D5606841
:10061000296920F4605040EAC100606000F038F8B9
:100620006168084AC1F30311515CC840064908607B
:1006300006480068FFF706FF0020C2E700200240DE
:1006400000100240561500080C0000200400002095
:100650000448054900684968044AC1F30221515C15
:10066000C84070470C0000200010024066150008CA
:100670000448054900684968044AC1F3C221515C35
:10068000C84070470C0000200010024066150008AA
:100690000E4A51680E4801F00C03042B11D0082BB0
:1006A0000FD10C48C1F38343C903C05C0AD551681C
:1006B000084AC1F34041921E515C054A5043B0FBC9
:1006C000F1F07047044948437047000000100240B1
:1006D00000127A004615000800093D002DE9F84F88
:1006E000040070D02078C04DC00749D06868C0F3BE
:1006F0008100012807D06868C0F38100022809D171
:100700006868C00306D52868800339D5606800286A
:10071000E7D035E06068B0F5803F0BD010B1B0F5A0
:10072000A02F11D0286820F480302860286820F499
:10073000802002E0286840F480302860606890B132
:10074000FFF760FE06460AE0286840F48020286033
:10075000F0E700BFFFF756FE801B642873D82868B7
:100760008003F7D50CE0FFF74DFE064605E000BF1D
:10077000FFF748FE801B6428F0D828688003F7D470
:1007800020789A4E80074FF001094FF0000839D5C4
:10079000686810F00C0F07D06868C0F38100022869
:1007A00009D16868C00306D42868800714D5206979
:1007B000012808D110E02069B0B1C6F80090FFF719
:1007C00021FE074605E00AE1FFF71CFEC01B0228D8
:1007D000C4D828688007F7D52868616920F0F80038
:1007E00040EAC10028600DE0C6F80080FFF70AFE6D
:1007F000074604E0FFF706FEC01B022823D828683E
:100800008007F7D4207800072CD57948A169D9B1A1
:10081000C0F80090FFF7F6FD074604E0FFF7F2FD91
:10082000C01B02280FD8686A8007F7D571484FF4BB
:10083000FA510068B0FBF1F0009000BF0098411E33
:100840000091FAD20EE080E0C0F80080FFF7DAFDF8
:10085000074604E0FFF7D6FDC01B022875D8686A7A
:100860008007F7D42078400760D5E8690027C000EA
:1008700008D4E86940F08050E861E869012700F099
:10088000805000905C480168C90513D40168834614
:1008900041F480710160FFF7B5FD824606E000BFBC
:1008A000FFF7B0FDA0EB0A0064284ED8DBF800008B
:1008B000C005F5D5E06801280AD008B1052813D095
:1008C000286A20F001002862286A20F0040002E073
:1008D000286A40F001002862E06841F2883B98B144
:1008E000FFF790FD82460BE0286A40F00400286282
:1008F000EEE700BFFFF786FDA0EB0A0159455AD885
:10090000286A8007F6D50CE0FFF77CFD824605E0FB
:10091000FFF778FDA0EB0A0159454CD8286A8007FB
:10092000F6D41FB1E86920F08050E861E06988B32F
:100930006968C1F38101022944D00228C6F86080A9
:1009400004D0FFF75FFD044638E034E0FFF75AFDBE
:10095000074604E0FFF756FDC01B02282BD8286885
:100960008001F7D4206AB0F5803F05D16868A1689E
:1009700020F4003008436860D4E90801084369683E
:1009800021F4741108436860C6F86090FFF73AFDDF
:10099000044606E025E000BFFFF734FD001B0228F7
:1009A00009D828688001F7D51BE000BFFFF72AFDB2
:1009B000001B022802D90320BDE8F88F28688001B7
:1009C000F4D40EE00128F7D06868226A00F4803180
:1009D000914204D1616A00F47010884201D0012074
:1009E000EAE70020E8E70000001002400000424271
:1009F000800442420C0000200070004070B50400EA
:100A000009D0606A002540B125616561A56294F84E
:100A1000510040B10CE0012070BD6068B0F5827FEC
:100A2000F4D0E561F2E784F85050204600F040F839
:100A3000022084F851002068016821F04001016023
:100A4000A088218900F4827001F404410843A1893F
:100A500001F400610843217C01F002010843217D7B
:100A600001F001010843218B01F400710843217F4B
:100A700001F03801084394F8201001F08001084388
:100A8000218D01F40051084321680860A069042108
:100A900001EA1040216848602068C16921F40061C2
:100AA000C1616565012084F85100002070BD00001F
:100AB00030B585B00024009401940294039400683A
:100AC0001449884223D11448816941F480518161DD
:100AD000816901F480510491816941F004018161CF
:100AE00080690E4D00F004000490A02000900220C8
:100AF00001900320039069462846FFF781FB4020C0
:100B0000CDE90004694628460294FFF779FB05B059
:100B100030BD0000003001400010024000080140DC
:100B20002DE9FF4F81B01D46934604464FF0010961
:100B30000E9EFFF767FC074694F851006168012894
:100B400006D0B1F5827F3CD1A168C9BB042838D159
:100B50000298002871D0BBF1000FFBD0002DF9D016
:100B600094F8500001282CD04FF0010A84F850A0CE
:100B700094F85100042802D0052084F851004FF069
:100B80000008C4F85480C4F838B0E587A5870299F6
:100B90002163E586A586C4F84080C4F844802068B7
:100BA0000168490603D4016841F040010160E06832
:100BB000B0F5006F606808D0F0B3012D49D081E036
:100BC000FFE7022005B0BDE8F08F08B1012D39D153
:100BD000206B21680088C860206B801C2063E08E39
:100BE000401EE0862EE02068816889070FD5E18EDF
:100BF00069B1B9F1010F0AD1216B0988C160206B7D
:100C0000801C2063E08E401EE0864FF000092068C3
:100C10008168C9070CD0E18F51B1C068A16B088011
:100C2000A06B801CA063E08F401EE0874FF001099D
:100C3000FFF7E8FBC01B01E00BE067E0B04201D327
:100C4000701C50D1E08E0028CDD1E08F0028CAD191
:100C50003EE0206B216800780873206B401C206305
:100C6000E08E401EE0862DE02068816889070FD560
:100C7000E18E69B1B9F1010F0AD1216B09780173D5
:100C8000206B401C2063E08E401EE0864FF0000980
:100C900020688168C9070CD0E18F51B1C068A16B91
:100CA0000870A06B401CA063E08F401EE0874FF0EF
:100CB0000109FFF7A7FBC01BB04202D3701C01D093
:100CC00011E086B1E08E0028CED1E08F0028CBD194
:100CD0003A463146204600F0F0F950B120206065D8
:100CE00084F8508012E084F851A084F850800320EA
:100CF00068E7A06818B92068C1688068009084F827
:100D000051A084F85080606D0028F1D0012059E78F
:100D100010B5401EB0F1807F01D3012010BD4FF00F
:100D2000E02460610F21601700F03EFB0020A0610D
:100D300007202061002010BD70B5040004D094F895
:100D40004100002510B106E0012070BD84F840503C
:100D5000204600F023F8242084F841002068C16870
:100D600021F40051C160204600F078FA2068016942
:100D700021F4904101612068416921F02A0141611B
:100D80002068C16841F40051C1606564202084F886
:100D9000410084F842006563002070BD30B585B025
:100DA000002400940194029403940068144988423A
:100DB00024D11448816941F480418161816901F441
:100DC00080410491816941F00401816180690E4D87
:100DD00000F0040004904FF4007000900220019095
:100DE0000320039069462846FFF70AFA2815CDE943
:100DF0000004694628460294FFF702FA05B030BDA8
:100E00000038014000100240000801402DE9F8437D
:100E1000044690F84100984616460D46202802D018
:100E20000220BDE8F88385B17EB1002060642120F6
:100E300084F84100FFF7E6FAA6848146E684A068BC
:100E40002027B0F5805F02D003E00120E9E72069A8
:100E500010B12E4600250EE000260CE08021204631
:100E600000F058FAA8B9C6B116F8010B216848601D
:100E7000E08C401EE084E08C4B464FF00002CDF841
:100E800000800028EAD14FF04001204600F042FAED
:100E900040B184F841700320C3E735F8020BC0F37A
:100EA0000800E3E784F841700020BAE7FEE770B578
:100EB0000C46054600F06AF800F081F8FFF77CF96F
:100EC0002020FFF789F92846FFF786F92007000E52
:100ED000FFF782F9FF20FFF77FF9FFF775F9BDE80B
:100EE000704000F062B82DE9F0479946DDE90865E9
:100EF00014460F46804600F049F800F060F8FFF70E
:100F00005BF90220FFF768F94046FFF765F944EA0C
:100F10000710C0B2FFF760F94846FFF75DF90024FB
:100F200004E0305DFFF758F9641CA4B2AC42F8D37A
:100F3000FFF74AF9BDE8F04700F037B82DE9F04770
:100F40009946DDE9086514460F46804600F01EF814
:100F5000FFF732F90320FFF73FF94046FFF73CF96E
:100F600044EA0710C0B2FFF737F94846FFF734F9F3
:100F7000002405E0FF20FFF72FF93055641CA4B2D0
:100F8000AC42F7D3BDE8F047FFF71EB910B5FFF745
:100F900013F90520FFF720F9FF20FFF71DF9C0071F
:100FA000FAD1BDE81040FFF70FB910B5FFF704F90B
:100FB0000420FFF711F9BDE81040FFF705B910B59F
:100FC000FFF7FAF80620FFF707F9BDE81040FFF732
:100FD000FBB8000070B586B000241448009401945A
:100FE00002940394816941F010018161816901F0EB
:100FF00010010491816941F004018161806901223D
:1010000000F004000A4E5503049029463046FFF7CD
:10101000F3F901200095CDE901040320039069460E
:101020003046FFF7EDF806B070BD0000001002403A
:1010300000100140104810B50E4901604FF4827154
:10104000416000218160C1604FF400720161C0E91C
:1010500005120822C0E90721416281620A21C162AA
:10106000FFF7CCFC002803D0BDE81040FFF7C6B85E
:1010700010BD000000300140140000200C4810B5E5
:101080000A4901604FF4E1314160002181600C2286
:10109000C160C0E904128161C161FFF74DFE002803
:1010A00003D0BDE81040FFF7A9B810BD00380140DB
:1010B0006C000020FEE7FEE77047F8B515460E46C7
:1010C0000B46009204460122022100F011F840B9BB
:1010D0003346002280212046009500F009F80028C0
:1010E00004D0606D40F0200060650320F8BD000072
:1010F0002DE9F8431E46914688460446089DFFF7B1
:1011000081F9401B351AFFF77DF90746254800682D
:10111000C0F3CB30684338E0701C37D0FFF772F96A
:10112000C01BA84203D215B1009860B32CE0206820
:10113000416821F0E00141606068B0F5827F0BD129
:10114000A068B0F5004F02D0B0F5806F04D12068E0
:10115000016821F040010160A06AB0F5005F09D18B
:101160002068016821F4005101602068016841F4A1
:1011700000510160012084F85100002084F85000E3
:101180000320BDE8F8830025401E00902068816898
:1011900038EA010004D000214945BDD10020F0E724
:1011A0000121F9E70C0000207047FFF731B930B595
:1011B0008FB028216846FEF7E0FF14210AA8FEF749
:1011C000DCFF01210804CDE900100024029402256F
:1011D0000491CDE907504FF4E01009906846FFF7FD
:1011E0007DFA08B172B6FEE70F20CDE90A054FF48B
:1011F0008060CDE90C4002210AA80E94FFF792F915
:10120000002801D072B6FEE70FB030BD704701680C
:101210000C3151E8002F22F4907241E80023002B9A
:10122000F5D10168143151E8002F22F0010241E8A4
:101230000023002BF5D1016B012909D101680C3184
:1012400051E8002F22F0100241E80023002BF5D1D5
:10125000202180F8421000210163704770B50446D8
:1012600000680169E26821F440511143016121697C
:10127000A0680843616908432168CA6841F20C63A9
:101280009A430243CA6020684169A26921F440710F
:10129000114341611E492068884202D1FFF7E8F9F5
:1012A00001E0FFF7D5F900EBC00101EB0012606827
:1012B00064218000B2FBF0F3B3FBF1F36FF018068A
:1012C0007343B2FBF0F5B2FBF0F605EB8305322376
:1012D00003EB0515B5FBF1F5B6FBF1F605F0F005EE
:1012E00005EB0615B2FBF0F6B2FBF0F0B0FBF1F047
:1012F0006FF01802504306EB800003EB0010B0FBC8
:10130000F1F0216800F00F002844886070BD0000F3
:10131000003801402DE9F843984617460D4604462B
:10132000089E24E0701C22D0FFF76CF8A0EB0800A8
:10133000B0421AD8CEB12068C168490717D5802DB0
:1013400015D0402D13D00168C94309070FD4016897
:101350000025406800902046FFF759FF0820606490
:1013600084F840500120BDE8F8830320FBE72068A3
:10137000006835EA000004D00020B842D2D0002036
:10138000F1E70120F9E7FEE70FB4054B10B503A91B
:10139000044A029800F027F810BC5DF814FB000026
:1013A000BD140008100000200907090E002804DB06
:1013B00000F1E02080F80014704700F00F0000F109
:1013C000E02080F8141D704702E008C8121F08C111
:1013D000002AFAD170477047002001E001C1121FB6
:1013E000002AFBD170472DE9F84F9946924688466E
:1013F0000546002706E025280AD051464A46904770
:101400006D1C7F1C28780028F5D13846BDE8F88F80
:10141000002315F8011F18462E2915D115F8011FB4
:1014200004232A290DD06FF02F022978A1F130046E
:10143000092C09D800EB800002EB400008446D1C29
:10144000F3E758F8040B6D1C2A78002ADDD0632AD4
:1014500007D0732A0FD0104651464A4690477F1C4A
:101460002AE018F8042B8DF8002000218DF80110D7
:101470006E46012103E058F8046B4FF0FF315A0724
:101480004FF0000401D409E0641C84420BDA8C4262
:10149000FADB325D002AF7D105E0641C8C42FCDBEC
:1014A000305D0028F9D1274404E016F8010B5146BD
:1014B0004A469047641EF8D26D1CA3E713B54FF05F
:1014C000FF33012269460248FFF7A0FC00981CBDCB
:1014D0006C0000209CB0FEF7A3FFFFF768FEFFF74B
:1014E00079FDFFF7A7FDFFF7C9FD642102A8FEF70C
:1014F00044FE00210846FFF7DAFC05240BA0002378
:10150000CDE900041A4619461846FFF7ECFC02A87C
:101510000023CDE900041A4619461846FFF70EFDD0
:1015200002A904A0FFF730FFFEE7000068656C6CBD
:101530006F000000627566666572203D2025730AA3
:1015400000000000010202030405060708090A0B57
:101550000C0D0E0F10100000000000000000010232
:10156000030406070809000000000102030400004C
:10157000901500080000002014000000C8130008A7
:10158000A415000814000020A4040000D8130008CB
:1015900001000000100000000000000000127A00AE
:0415A0000000000047
:0400000508000131BD
:00000001FF
