:020000040800F2
:100000003009002049010008371A0008CD180008FF
:10001000351A0008C90800082D1D0008000000005E
:100020000000000000000000000000003B1A000873
:10003000CB08000800000000391A00083D1A00082B
:100040006301000863010008630100086301000800
:1000500063010008630100086301000863010008F0
:1000600063010008630100086301000863010008E0
:1000700063010008630100086301000863010008D0
:1000800063010008630100086301000863010008C0
:1000900063010008630100086301000863010008B0
:1000A00063010008630100086301000863010008A0
:1000B0006301000863010008630100086301000890
:1000C0006301000863010008630100086301000880
:1000D0006301000863010008211D00086301000896
:1000E0006301000863010008630100086301000860
:1000F0006301000863010008630100086301000850
:10010000630100086301000863010008630100083F
:10011000630100086301000863010008630100082F
:10012000630100086301000863010008630100081F
:10013000DFF810D000F004FA00480047951F0008CF
:10014000AFF300803009002006488047064800478A
:10015000FEE7FEE7FEE7FEE7FEE7FEE7FEE7FEE777
:10016000FEE7FEE79F1A00083101000840EA01039C
:100170009B0703D009E008C9121F08C0042AFAD25D
:1001800003E011F8013B00F8013B521EF9D2704721
:10019000D2B201E000F8012B491EFBD270470022C9
:1001A000F6E710B513460A4604461946FFF7F0FF76
:1001B000204610BD30B505462A460B4612F8010B05
:1001C00013F8014B08B1A042F8D01CB1002802D0AE
:1001D0006D1CF1E7284630BD421C10F8011B0029B8
:1001E000FBD1801A7047000070B50F4D00B9286828
:1001F000002412E00A4602E09E4203D0521C13780B
:10020000002BF9D1DAB2224305D02BB124B1002161
:1002100000F8011B04E00446401C0678002EE9D1DA
:100220002860204670BD0000140000200FB400B507
:100230008DB010A909900B9000914FF0FF300A90FB
:1002400000200C9005480690054807906A4609A8CA
:100250000F9900F047F90DB05DF814FB0105000897
:100260001F0500082DE9FF5F1D464FF0FF3BD5E954
:10027000014691465F464FF00008A9697F1C01982E
:100280008847296A824688470028F6D1BAF1FF3F9D
:100290000CD024F4C064002E19DD600614D5BAF128
:1002A0002B0F09D0BAF12D0F0ED103E0584604B040
:1002B000BDE8F09F44F48064A9697F1C01988847D9
:1002C000761E8246002E02DDBAF1300F03D0B9F15E
:1002D000000F26D032E0A969761E44F400747F1C1A
:1002E000019888478246002E05DDBAF1780F06D0C6
:1002F000BAF1580F03D0B9F1000F10D01EE0B9F1D8
:10030000000F02D0B9F1100F18D1A969761E24F49C
:1003100000747F1C019888478246102002E0082064
:1003200000E00A20814609E008FB0908A969761E59
:1003300044F400747F1C019888478246002E05DD36
:100340004946504600F0BAF80028EDDAE96901980C
:100350008847A00502D46FF00100A8E7E00725D187
:10036000600613D5600502D5C8F1000000E04046E4
:1003700029680A1D2A600968220501D5087015E060
:10038000220701D5088011E008600FE02868011DF0
:1003900029600068210502D580F8008006E0210769
:1003A00002D5A0F8008001E0C0F8008038467EE762
:1003B0002DE9FF5FD2E901A74FF000089169994646
:1003C0001446DDF838B0464601988847054659EA94
:1003D0000B0005D009E0A169761C01988847054605
:1003E000216A284688470028F5D1681C03D05FEAB7
:1003F000CA7005D015E04FF0FF3004B0BDE8F09FA3
:100400002068011D2160D0F800800AE05FEACA7010
:1004100001D108F8015BA169761C7F1E019888470D
:100420000546002F1ADD681C18D0B9F1000F0DD059
:10043000E81705EBD060421120F01F0059F8221098
:100440002A1A012090400142E0D107E0BBF1000FE1
:10045000DCD1216A284688470028D7D0E169019875
:100460008847BBF1000F07D1002E05DD5FEACA7097
:1004700002D1002188F80010A068B84203DDBBF16A
:10048000000F03D017B16FF00100B6E73046B4E7B4
:1004900030B50B46014600202022012409E021FA54
:1004A00002F59D4205D303FA02F5491B04FA02F551
:1004B0002844151EA2F10102F1DC30BD3A2800D219
:1004C000303820F02002412A01D3A2F137008842BF
:1004D00001D34FF0FF307047026811441378016078
:1004E00018467047D16004495161044911620021E6
:1004F0001161114600F03CB8D904000865050008F8
:10050000426842B1016811F8013B23B1521EC0E9B3
:100510000012184670470121C160881E704742686A
:100520005AB1C368016843B983688B4205D0491E3C
:10053000521CC0E90012002070474FF0FF30704796
:10054000064C074D06E0E06840F0010394E8070020
:1005500098471034AC42F6D3FFF7EEFDA020000818
:10056000C0200008C0B24FF4F05100F099B900006B
:100570002DE9F34F8BB04FF0000801F10C000C4651
:100580004FF0010B46460DF1080A01906269012106
:1005900001989047051E2DD0252D2CD0216A884723
:1005A000C0B16269012101989047216A88470028FB
:1005B000F7D1411E62690198904700E0761CA1695D
:1005C0000B988847216A88470028F7D1E1690B9882
:1005D0008847DBE7A1690B9888470746A84201D105
:1005E000761CD3E7E1690B9888477F1C02D1B8F1EC
:1005F000000F6FD047E1002762693D4639460198F8
:1006000090472A2804D16269012101989047012569
:10061000DFF888926269012101989047A0F13001CA
:100620000A290AD24F45E5DC07EB870100EB4107B9
:10063000303FDFD445F01005ECE7E90601D46FF058
:1006400000476C280AD04C2814D0682815D06A2896
:100650000DD074281CD07A281AD01DE062690121BF
:10066000019890476C2802D045F0040514E045F04D
:1006700002050DE045F020050AE0626901210198BC
:100680009047682802D045F0080505E045F400656C
:100690006269012101989047C4E9015765283DD05E
:1006A00019DC58287AD00CDC452837D004DC252802
:1006B00026D0412831D131E046282FD047282CD1EF
:1006C0002CE05B2877D0612828D063287CD0642870
:1006D00023D15AE0D1E06F2848D008DC66281DD02D
:1006E00067281BD0692821D06E2816D127E07028F2
:1006F00045D0732868D0752847D078280DD14DE0B3
:10070000A1690B988847054625283FF469AFE16940
:100710000B9888476D1C3FF46AAFB4E023466A46E5
:100720006FF001000B99AFF300809FE045F04000AF
:100730006060A80723464FF0000236D43EE0E80789
:100740007FF447AF2068011D21600068290501D5AD
:1007500006701BE7290701D5068017E7A90703D50F
:10076000F117C0E9006111E706600FE745F04000AE
:100770006060A80723464FF0080216D41EE040F63A
:100780000E0125EA0100606016E045F0400060605F
:10079000A80723464FF00A0207D40FE045F04000B7
:1007A0006060A80708D5234610226FF001000B995E
:1007B000AFF300805AE007E0234610226FF00100FB
:1007C0000B99FFF74FFD51E04FF000094F464B46A4
:1007D000632802D05B2807D041E02079C00601D40D
:1007E0000120A06001273AE0626901210198904749
:1007F0005E2805D14FF0010962694946019890478A
:10080000216939B900210A46534643F82120491C81
:100810000829FADBB0B3216969B9C11700EBD162CD
:1008200053110AEB830122F01F02821A01200B6888
:10083000904003430B6062690121019890475D2855
:10084000E8D1B9F1000F09D00020514651F820201D
:10085000D24341F82020401C0828F7DB02AB224697
:1008600000976FF001000B99FFF7A2FD00280CDA4A
:10087000401C08D1BBF1000F05D04FF0FF300DB088
:10088000BDE8F08FFFE74046F9E7E90701D108F13D
:10089000010806444FF0000B78E60000CCCCCC0CED
:1008A0007F2801D9002208E0064A02EB5002C00767
:1008B000127800D1120902F00F0201209040084086
:1008C000704700005E200008FEE770472DE9F04108
:1008D00005254FF480611948FFF761FC184C00268C
:1008E000164F66702278002AFCD06078134938448D
:1008F0008039FFF73BFC60782178084460700F482E
:10090000267080218038FFF74AFC0EA10B48FFF7C4
:1009100051FC38B90CA10948FFF74CFC10B96D1E09
:10092000EDB2DFD20AA001F003FA04490DA001F0F4
:10093000FFF9BDE8F04111A001F0FAB92C01002047
:10094000000000204F4B00004552524F5200000063
:1009500073746172742D2D2D2D2D2D2D2D2D2D2D7A
:100960002D2D0A00526573706F6E73654275666651
:100970006572203D2025730A00000000656E642D1D
:100980002D2D2D2D2D2D2D2D2D2D2D2D0A00000041
:1009900010B580220649074800F03AFD06A000F095
:1009A00011F8BDE8104040F6B83000F005B900007D
:1009B000AC0000206400002041542B5253543D30C1
:1009C0000D0A000010B50446FFF706FC82B24FF096
:1009D000FF332146034800F028FFBDE81040FFF731
:1009E00075BF00006400002010B5FFF7D1FF05A01F
:1009F000FFF7E8FF07A0FFF7E5FFBDE810400BA0F9
:100A0000FFF7E0BF41542B4349504D55583D310D40
:100A10000A00000041542B43495053455256455259
:100A20003D312C383038300D0A00000041542B4342
:100A3000495044494E464F3D310D0A0072B6FEE71B
:100A400010B590F821100022022905D004218163FD
:100A500080F82020012010BD01680B6823F00E03F0
:100A60000B6001680B6823F001030B6090F84030C5
:100A7000C46B012101FA03F3636080F8211080F850
:100A80002020104610BD00002DE9F05F90F82110E5
:100A90000024022903D004218163012485E0016838
:100AA0000A6822F00E020A6001680A6822F0010258
:100AB0000A603F4E3E4FB215DFF8F4C0DFF8F09009
:100AC000DFF8ECA0DFF8E8B0DFF8E4E00168783F99
:100AD00013011502ACF1640CA9F15009AAF13C0A0A
:100AE000ABF1280BAEF1140E4FF48018B14227D9A8
:100AF000B9420ED0614512D049451DD0514518D09C
:100B0000594518D0714501D1424615E0294EB142F0
:100B100001D1012210E0274E1436B14201D110223A
:100B20000AE0244E2836B14206D0224A3C32914295
:100B300001D11A4600E02A461E49091F0A602BE02F
:100B4000B94213D0614517D0494522D051451DD037
:100B500059451DD0714501D142461AE0B14202D13A
:100B60004FF0807215E0134EB14201D1012210E026
:100B7000104E1436B14201D110220AE00D4E283633
:100B8000B14206D00B4A3C32914201D11A4600E0F4
:100B90002A46074980394A60012180F82110002146
:100BA00080F82010416B01B188472046BDE8F09FD6
:100BB000800002400804024070B5044600F00AF9C3
:100BC0000546601C02D004480078044400F002F995
:100BD000401BA042FAD370BD040000202DE9F84F5D
:100BE000DFF8C8910024A9F1040B23460F2709F16F
:100BF000040AABF1040ED1E00125A54006EA050286
:100C0000AA4276D1DFF8A8C14E68A6EB0C0866456B
:100C10002BD00DDC032E34D005DC36B3012E19D0D9
:100C2000022E2FD11BE0112E16D0122E2AD119E040
:100C3000B8F5881F19D006DCB8F5803F15D0B8F597
:100C4000801F1FD111E0B8F5001F0ED0B8F5041FAA
:100C500018D10AE0CB6815E0CB681B1D12E0CB6809
:100C600008330FE0CB680C330CE08B682BB1012B01
:100C70004FF0080303D0456104E0042302E005615E
:100C800000E00023FF2A01D8064601E000F1040637
:100C90004FEA840501D9A5F12005D6F8008007FAAE
:100CA00005FC28EA0C0803FA05F548EA0508C6F829
:100CB00000804D68ED0070D53E4DAE6946F00106EE
:100CC000AE61AD6924F0030605F0010500953A4DCB
:100CD00006EB050CDCF80850A607360F07FA06F8F5
:100CE00025EA0805DFF8D480404503D14FF000081D
:100CF00025E052E0DFF8C880404502D14FF00108FE
:100D00001DE0DFF8C080404502D14FF0020816E038
:100D1000DFF8B480404502D14FF003080FE0DFF860
:100D2000AC80404502D14FF0040808E0DFF8A08015
:100D3000404502D14FF0050801E04FF0060808FADF
:100D400006F848EA0508CCF808804D68D9F8006034
:100D5000ED024D4601D5164300E096432E604D68E6
:100D6000DAF80060AD02554601D5164300E096431F
:100D70002E604D68DBF80060AD035D4601D516437B
:100D800000E096432E604D68DEF80060ED03754686
:100D900001D5164300E096432E60641C0A6816468F
:100DA000E2407FF429AFBDE8F88F0000080401405D
:100DB0000000111000100240000001400008014036
:100DC000000C0140001001400014014000180140D7
:100DD000001C0140014880687047000004000020AA
:100DE0000248816802781144816070470400002045
:100DF000074810B5016841F010010160032000F0C0
:100E000075F80F2000F006F800F024F8002010BD5F
:100E10000020024070B50D4D04464FF47A712878D9
:100E2000B1FBF0F00A490968B1FBF0F000F0DCFA20
:100E300048B9102C07D200222146501E00F036F887
:100E400000206C6070BD012070BD00000400002017
:100E5000100000200C4808B5816941F00101816152
:100E6000816901F001010091C16941F08051C161C6
:100E7000C06900F0805000900448416821F0E061B2
:100E800041F00071416008BD0010024000000140C7
:100E9000002809DB00F01F02012191404009800079
:100EA00000F1E020C0F8001170470000F0B40E4BD4
:100EB0001B680C46C3F30223C3F10705042D00D9B8
:100EC0000425191D072901D2002300E0DB1E01269D
:100ED00006FA05F1491E214099409E40761E1640B3
:100EE0003143F0BC00F048BF0CED00E0064900F0D3
:100EF000070208684FF6FF03184040EA0220034A41
:100F000010430860704700000CED00E00000FA0597
:100F10002DE9F0470F46050061D0434E306800F0E0
:100F20000700B84209D2306820F00700384330602B
:100F3000306800F00700B84251D128683B4C810767
:100F400012D5400703D5606840F4E06060602878FF
:100F5000000703D5606840F4605060606068A9686D
:100F600020F0F000084360602878C00728D0686847
:100F7000012810D02168022810D0890700292EDA14
:100F8000616821F0030101436160FFF723FF8046A0
:100F900041F288390DE021688903EFE78901EDE727
:100FA000FFF718FFA0EB0801494502D90320BDE86F
:100FB000F0876068696800F00C00B0EB810FEFD13A
:100FC000306800F00700B8420BD9306820F0070005
:100FD00038433060306800F00700B84201D001208B
:100FE000E5E72878400705D56068E96820F4E06007
:100FF000084360602878000706D56068296920F4F6
:10100000605040EAC100606000F038F86168084A4A
:10101000C1F30311515CC8400649086006480068E6
:10102000FFF7F8FE0020C2E7002002400010024057
:101030004620000810000020080000200448054950
:1010400000684968044AC1F30221515CC8407047F6
:1010500010000020001002405620000804480549F6
:1010600000684968044AC1F3C221515CC840704716
:101070001000002000100240562000080E4A51685F
:101080000E4801F00C03042B11D0082B0FD10C4893
:10109000C1F38343C903C05C0AD55168084AC1F350
:1010A0004041921E515C054A5043B0FBF1F070473D
:1010B00004494843704700000010024000127A00C3
:1010C0003620000800093D002DE9F84F040070D0DB
:1010D0002078C04DC00749D06868C0F3810001285E
:1010E00007D06868C0F38100022809D16868C0038E
:1010F00006D52868800339D560680028E7D035E038
:101100006068B0F5803F0BD010B1B0F5A02F11D0C2
:10111000286820F480302860286820F4802002E0CD
:10112000286840F480302860606890B1FFF752FE74
:1011300006460AE0286840F480202860F0E700BFF7
:10114000FFF748FE801B642873D828688003F7D512
:101150000CE0FFF73FFE064605E000BFFFF73AFE52
:10116000801B6428F0D828688003F7D420789A4E32
:1011700080074FF001094FF0000839D5686810F07A
:101180000C0F07D06868C0F38100022809D1686895
:10119000C00306D42868800714D52069012808D127
:1011A00010E02069B0B1C6F80090FFF713FE0746C3
:1011B00005E00AE1FFF70EFEC01B0228C4D828682C
:1011C0008007F7D52868616920F0F80040EAC1007F
:1011D00028600DE0C6F80080FFF7FCFD074604E03C
:1011E000FFF7F8FDC01B022823D828688007F7D432
:1011F000207800072CD57948A169D9B1C0F80090B2
:10120000FFF7E8FD074604E0FFF7E4FDC01B0228F6
:101210000FD8686A8007F7D571484FF4FA51006813
:10122000B0FBF1F0009000BF0098411E0091FAD28F
:101230000EE080E0C0F80080FFF7CCFD074604E038
:10124000FFF7C8FDC01B022875D8686A8007F7D46D
:101250002078400760D5E8690027C00008D4E86915
:1012600040F08050E861E869012700F0805000906C
:101270005C480168C90513D40168834641F4807154
:101280000160FFF7A7FD824606E000BFFFF7A2FD61
:10129000A0EB0A0064284ED8DBF80000C005F5D5A5
:1012A000E06801280AD008B1052813D0286A20F088
:1012B00001002862286A20F0040002E0286A40F059
:1012C00001002862E06841F2883B98B1FFF782FD97
:1012D00082460BE0286A40F004002862EEE700BF77
:1012E000FFF778FDA0EB0A0159455AD8286A800714
:1012F000F6D50CE0FFF76EFD824605E0FFF76AFDCC
:10130000A0EB0A0159454CD8286A8007F6D41FB1D2
:10131000E86920F08050E861E06988B36968C1F34A
:101320008101022944D00228C6F8608004D0FFF76A
:1013300051FD044638E034E0FFF74CFD074604E079
:10134000FFF748FDC01B02282BD828688001F7D47E
:10135000206AB0F5803F05D16868A16820F40030AC
:1013600008436860D4E908010843696821F47411EE
:1013700008436860C6F86090FFF72CFD044606E05D
:1013800025E000BFFFF726FD001B022809D82868CA
:101390008001F7D51BE000BFFFF71CFD001B0228F2
:1013A00002D90320BDE8F88F28688001F4D40EE04C
:1013B0000128F7D06868226A00F48031914204D194
:1013C000616A00F47010884201D00120EAE7002031
:1013D000E8E7000000100240000042428004424260
:1013E000100000200070004010B5401EB0F1807F5A
:1013F00001D3012010BD4FF0E02460610F21601780
:1014000000F0BAFC0020A06107202061002010BD80
:1014100018B5034690F84200202801D0022018BDDC
:1014200061B15AB10120186300205863184600F0DA
:1014300023FC0028F3D1196B012901D0012018BD2C
:1014400019680A684968009119680C3151E8002F41
:1014500042F0100241E80024002CF5D118BD000034
:101460000068054A904206D1044880220170044970
:101470000448FFF7CDBF7047004400400000002043
:10148000AC0000206400002070470000F8B501683F
:1014900004460868CA684B6910F00F0F4FF000054A
:1014A00059D003F0010602F49077374365D0C107A5
:1014B00005D0D10503D5616C41F00101616441079C
:1014C00005D5D90703D0616C41F002016164810741
:1014D00005D5D90703D0616C41F0040161640107AF
:1014E00007D502F02001314303D0616C41F00801BF
:1014F0006164616C00293AD0800604D5900602D55B
:10150000204600F0FCFA20684069616CC0F380104E
:10151000090700D460B3204600F0CAFA2068406989
:10152000400621D52068143050E8001F21F040010A
:1015300040E80012002AF5D1E06BA8B16D49416383
:10154000E06BFFF7A1FA002811D0E06B416B01B00E
:10155000BDE8F040084783060FD593060DD5204619
:10156000BDE8F84000F0CBBA2046FFF78DFFF8BD8C
:101570002046FFF789FF6564F8BD266B2023012E06
:101580007CD1C6067AD5D60678D50868486800901A
:1015900048694FF00206400640D5E16B0868406894
:1015A0000004000CE8D0A28D8242E5D9E08588696C
:1015B00020282DD020680C3050E8001F21F48071C5
:1015C00040E80012002AF5D12068143050E8001FCE
:1015D00021F0010140E80012002AF5D12068143002
:1015E00050E8001F21F0400140E80012002AF5D128
:1015F00084F84230256320680C3050E8001F21F049
:10160000100140E80012002AF5D1E06BFFF718FA4C
:101610006663A08DE18D401A81B22AE0A08DE18D34
:10162000401A81B2E08D0028A6D00029A4D02268FB
:101630000C3252E8000F20F4907042E80007002FAF
:10164000F5D12068143050E8002F22F0010240E864
:101650000027002FF5D184F84230256320680C3034
:1016600050E8002F22F0100240E80023002BF5D1B3
:1016700066632046FFF7F4FEF8BDFFE705062BD5AD
:10168000150629D594F841002128F5D1A068B0F5B8
:10169000805F01D12069B0B1206A411C21622168BC
:1016A00000784860E08C401E0004000CE084E3D128
:1016B0002068C16821F08001C1602068C16841F0E4
:1016C0004001C160D8E7206A0088C0F30800486084
:1016D000206A801C2062E5E74006CDD55006CBD5B8
:1016E000CA68204622F04002CA6084F8413000F007
:1016F000ECF8C1E7A11A000870B5040004D094F812
:101700004100002510B106E0012070BD84F8405072
:10171000204600F023F8242084F841002068C168A6
:1017200021F40051C160204600F04AFA20680169A6
:1017300021F4904101612068416921F02A01416151
:101740002068C16841F40051C1606564202084F8BC
:10175000410084F842006563002070BD70B586B01A
:10176000002400940194029403942B4E03682B49A7
:10177000022003222A4DB34221D18B6943F48043D6
:101780008B618B6903F4804304938B6943F00403FA
:101790008B618969039201F0040104910102CDE992
:1017A000001069462846FFF719FA2815CDE900040C
:1017B000694628460294FFF711FA06B070BD194E2B
:1017C000B342FAD1CB6943F40033CB61CB6903F464
:1017D000003304938B6943F004038B61896903929E
:1017E00001F0040104910421CDE900106946284666
:1017F000FFF7F4F90820CDE9000469462846029471
:10180000FFF7ECF9002211462620FFF74FFB2620B8
:10181000FFF73EFBD1E70000003801400010024016
:10182000000801400044004070472DE9F843044699
:1018300090F84100984616460D46202802D0022016
:10184000BDE8F88385B17EB100206064212084F872
:101850004100FFF7BFFAA6848146E684A0682027EE
:10186000B0F5805F02D003E00120E9E7206910B104
:101870002E4600250EE000260CE08021204600F0D8
:1018800016FAA8B9C6B116F8010B21684860E08CB9
:10189000401EE084E08C4B464FF00002CDF8008003
:1018A0000028EAD14FF04001204600F000FA40B194
:1018B00084F841700320C3E735F8020BC0F3080039
:1018C000E3E784F841700020BAE77047FEE70000C4
:1018D0002DE9FC41124E1446054632780898002A3C
:1018E0001BD000272F60CDE900300A4623460DA10A
:1018F0001348FEF79BFC13A11148FEF775FC11A1DC
:101900000020FEF771FC014622882846FEF72EFCD7
:1019100080210B48FEF743FC3770BDE8FC810000D6
:1019200000000020252A5B0D0A5D2B4950442C2520
:10193000642C25642C22255B5E225D222C2564000C
:10194000AC0000203A00000070B59AB00E46054683
:10195000144664216846FEF722FC23462A4608A165
:10196000684600F0F5F96846FFF72CF84FF47A73F3
:10197000224631460748FFF758FF1AB070BD0000F5
:1019800041542B43495053454E443D25642C256416
:101990000D0A000064000020094808B5816941F083
:1019A00010018161816901F010010091816941F0AC
:1019B00004018161806900F00400009008BD00000E
:1019C000001002400C4810B50A4901604FF4E131A3
:1019D0004160002181600C22C160C0E90412816174
:1019E000C161FFF789FE002803D0BDE81040FFF772
:1019F00025B810BD003801401C0000200C4810B56F
:101A00000A4901604FF4E1314160002181600C22FC
:101A1000C160C0E904128161C161FFF76DFE002859
:101A200003D0BDE81040FFF709B810BD00440040E6
:101A300064000020FEE7FEE770477047FFF7D0B96B
:101A400030B58FB028216846FEF7A9FB14210AA8FB
:101A5000FEF7A5FB01210804CDE900100024029443
:101A600002250491CDE907504FF4E0100990684633
:101A7000FFF72AFB08B172B6FEE70F20CDE90A0591
:101A80004FF48060CDE90C4002210AA80E94FFF7C4
:101A90003FFA002801D072B6FEE70FB030BD7047A4
:101AA00010B5406A0021C185C184FFF7EDFC10BD6F
:101AB00001680C3151E8002F22F4907241E80023B4
:101AC000002BF5D10168143151E8002F22F00102FA
:101AD00041E80023002BF5D1016B012909D10168F0
:101AE0000C3151E8002F22F0100241E80023002BB6
:101AF000F5D1202180F8421000210163704708B51C
:101B000090F84210222901D0022008BD82684FF4CB
:101B100080539A4201D1016921B1816A9A421BD056
:101B20004AB10AE00268816A5268C2F308020A8078
:101B3000816A891C08E0026972B10268526802F089
:101B40007F020A70816A491C8162C18D491E0904A5
:101B5000090CC18503D01BE002685268F1E70168F7
:101B6000CA6822F02002CA600168CA6822F4807242
:101B7000CA6001684A6922F001024A61202180F8A6
:101B8000421000214163026B012A03D0FFF74CFE93
:101B9000002008BD016301680C3151E8002F22F0DC
:101BA000100241E80023002BF5D101680A68D20633
:101BB00002D50A6849680091818DFFF751FCE7E77B
:101BC00070B5044600680169E26821F44051114390
:101BD00001612169A0680843616908432168CA68F6
:101BE00041F20C639A430243CA6020684169A269CA
:101BF00021F44071114341611E492068884202D19D
:101C0000FFF72CFA01E0FFF719FA00EBC00101EB36
:101C10000012606864218000B2FBF0F3B3FBF1F3C3
:101C20006FF018067343B2FBF0F5B2FBF0F605EB6C
:101C30008305322303EB0515B5FBF1F5B6FBF1F691
:101C400005F0F00505EB0615B2FBF0F6B2FBF0F07F
:101C5000B0FBF1F06FF01802504306EB800003EB8D
:101C60000010B0FBF1F0216800F00F0028448860FC
:101C700070BD00000038014081628285C28500216C
:101C80004164222180F84210016921B10168CA68CB
:101C900042F48072CA6001684A6942F001024A61F6
:101CA0000068C16841F02001C160002070472DE943
:101CB000F843984617460D460446089E24E0701CDB
:101CC00022D0FFF787F8A0EB0800B0421AD8CEB1B7
:101CD0002068C168490717D5802D15D0402D13D035
:101CE0000168C94309070FD40168002540680090C6
:101CF0002046FFF7DDFE0820606484F84050012094
:101D0000BDE8F8830320FBE72068006835EA00009F
:101D100004D00020B842D2D00020F1E70120F9E73A
:101D20000148FFF7B3BB000064000020FEE700009D
:101D30000FB4054B10B503A9044A029800F03CF813
:101D400010BC5DF814FB00007D1F00081800002087
:101D50000FB4084B10B504A902AA039800F02CF8A0
:101D6000044602A9002000F003F9204610BC5DF8EB
:101D700014FB0000711F00080907090E002804DB8E
:101D800000F1E02080F80014704700F00F0000F12F
:101D9000E02080F8141D704702E008C8121F08C137
:101DA000002AFAD170477047002001E001C1121FDC
:101DB000002AFBD1704700002DE9FF4F8BB09A46F7
:101DC0000F460546002606E025280BD052460D9901
:101DD00090476D1C761C28780028F5D10FB030464E
:101DE000BDE8F08F0024A0460122604900E00443D2
:101DF00015F8013F203B02FA03F00842F7D128789A
:101E00002E2817D115F8010F44F004042A280ED00B
:101E10006FF02F022878A0F1300109290AD808EBC9
:101E2000880102EB410100EB01086D1CF2E757F855
:101E3000048B6D1C287869283ED006DC0028CDD0A4
:101E400063280BD0642804D136E0732810D075289D
:101E50004BD052460D999047761C85E017F8040B3D
:101E60008DF8000000208DF80100E946012003E014
:101E700057F8049B4FF0FF3061074FF0000401D486
:101E80000AE0641C44450DDA8442FADB19F80410B8
:101E90000029F6D106E0641C8442FCDB19F804102A
:101EA0000029F8D1264404E019F8010B52460D9997
:101EB0009047641EF8D257E001CF4FF00A0B00287C
:101EC00002DA40422D2102E0210504D52B218DF8B4
:101ED0002410012103E0E10705D02021F7E70DF1EF
:101EE000200908910CE00021F9E701CF4FF00A0B1F
:101EF000F9E75946FEF7CCFA01F1300209F8012D55
:101F00000028F6D1ADEB090000F1200B600701D4E9
:101F10004FF00108D84502DDA8EB0B0000E00020DF
:101F20008046002406E009A85246005D0D999047BE
:101F3000641C761C08988442F5DB04E0302052468D
:101F40000D999047761CB8F10001A8F10108F5DC65
:101F500005E019F8010B52460D999047761CBBF12C
:101F60000001ABF1010BF4DC6D1C34E70928010022
:101F70000A68531C0B6010707047000013B54FF0D7
:101F8000FF33012269460248FFF74FFC00981CBD51
:101F90001C000020A8B0FEF72BFFFFF751FDFFF754
:101FA000FBFCFFF70FFDFFF729FDFEF7F1FCFEF745
:101FB0001BFD802101A8FEF7F2F800248DF888406F
:101FC0002694249425942794ADF88440ADF88C4051
:101FD00001AD23A8009024AB21AA22A901A8FFF7F4
:101FE00077FCBDF884000028F3D00095BDF88C3054
:101FF00024AA9DF8881007A0FFF79AFEBDF8840078
:1020000001A9C2B29DF88800FFF79EFCADF884409C
:10201000DFE7000069643A25642C69703A25732C67
:10202000706F72743A25642C646174613A25730A86
:1020300000000000010202030405060708090A0B5C
:102040000C0D0E0F10100000000000000000010237
:102050000304060708090000000001020304DDDD97
:10206000DDDDDCBBBBDDDDDDDDDDDDDDDDDD98887F
:10207000888888888888777777777788888885556B
:1020800055566666666666666666666888888333E1
:10209000333222222222222222222228888D00006C
:1020A000C0200008000000201C000000981D00084F
:1020B000DC2000081C00002014090000A81D0008F6
:1020C00000000000010000001000000000000000FF
:0C20D00000127A00000000000000000078
:0400000508000131BD
:00000001FF
