:020000040800F2
:100000002009002049010008A72100082D20000830
:10001000A52100085B0400088D25000800000000F1
:10002000000000000000000000000000992200080D
:100030005D04000800000000A92100089B220008C0
:100040006301000863010008630100086301000800
:1000500063010008630100086301000863010008F0
:1000600063010008630100086301000863010008E0
:1000700063010008630100086301000863010008D0
:1000800063010008630100086301000863010008C0
:1000900063010008630100086301000863010008B0
:1000A00063010008630100086301000863010008A0
:1000B0006301000863010008630100086301000890
:1000C0006301000863010008630100086301000880
:1000D000630100086301000881250008630100082E
:1000E0006301000863010008630100086301000860
:1000F0006301000863010008630100086301000850
:10010000630100086301000863010008630100083F
:10011000630100086301000863010008630100082F
:10012000630100086301000863010008630100081F
:10013000DFF810D000F070F900480047ED28000803
:10014000AFF300802009002006488047064800479A
:10015000FEE7FEE7FEE7FEE7FEE7FEE7FEE7FEE777
:10016000FEE7FEE7FD22000831010008202A04DB3B
:10017000203A21FA02F00021704721FA02F3D04020
:10018000C2F12002914008431946704740EA01033A
:100190009B0703D009E008C9121F08C0042AFAD23D
:1001A00003E011F8013B00F8013B521EF9D2704701
:1001B000D2B201E000F8012B491EFBD270470022A9
:1001C000F6E710B513460A4604461946FFF7F0FF56
:1001D000204610BD30B505462A460B4612F8010BE5
:1001E00013F8014B08B1A042F8D01CB1002802D08E
:1001F0006D1CF1E7284630BD421C10F8011B002998
:10020000FBD1801A70472DE9F04D81EA030404F018
:10021000004B21F0004514464FF0000A23F0004146
:1002200050EA050220D054EA01021DD0C5F30A5756
:100230000246C5F31303C1F31300C1F30A5640F499
:10024000801543F48013A7EB0608101BD64608F26E
:10025000FD3873EB050002D308F1010801E09218A4
:100260005B41B8F1000F03DA00200146BDE8F08DD4
:1002700000204FF48011064684460EE0171B73EBF6
:10028000050705D3121B63EB050306434CEA010C7B
:1002900049084FEA300092185B4150EA0107EDD15E
:1002A00052EA030012D082EA040083EA05010843FF
:1002B00005D0101BAB4106D20122002306E000222C
:1002C0004FF0004302E06FF0010253101AEB0600FA
:1002D0004CEB085110EB0A0041EB0B01BDE8F04D6F
:1002E00000F03CB80EB540F2334102910021CDE957
:1002F00000110A460B4600F040F803B000BDC1F300
:100300000A5210B5C1F3130140F2FF3341F48011DA
:100310009A4201DA002010BD40F233439A42A2F221
:10032000334203DC5242FFF721FF10BD904010BD65
:1003300030B50B46014600202022012409E021FAB5
:1003400002F59D4205D303FA02F5491B04FA02F5B2
:100350002844151EA2F10102F1DC30BD10B5141EB7
:1003600073F1000408DA401C41F1000192185B416E
:100370001A4301D120F0010010BD2DE9F04D924645
:100380009B4611B1B1FA81F202E0B0FA80F220325C
:10039000904600F053F804460F4640EA0A0041EA4E
:1003A0000B0153465A46084313D0114653EA010045
:1003B00019D0C8F140025046FFF7D8FE05460E4658
:1003C00050465946424600F039F8084305D001200E
:1003D00004E020463946BDE8F08D0020054346EA9A
:1003E000E0762C4337430A986305E40AA0EB080043
:1003F0000022FD0A44EA47540A3002D50020014693
:10040000E9E7010510196941DDE90845001969416D
:10041000BDE8F04DA2E70000064C074D06E0E0689D
:1004200040F0010394E8070098471034AC42F6D33B
:10043000FFF782FE9C290008BC290008202A04DB63
:10044000203A00FA02F1002070479140C2F12003E7
:1004500020FA03F3194390407047FEE7704700000D
:1004600010B50424E1011D48FFF7A9FE00201C4936
:10047000087000BF00BF1B4800780028FBD0174958
:10048000174A1278881817490A781749FFF77EFE2D
:10049000134800781349097808441149087000206E
:1004A0001049087080211048FFF789FE0FA10B4802
:1004B000FFF790FE48B90EA10848FFF78BFE20B960
:1004C000201EA4F10101CCB2D4D104490AA002F04B
:1004D000DBF80FA002F0D8F810BD000037020020B2
:1004E0000D0000200C000020B70100204F4B000041
:1004F0004552524F52000000526573706F6E736523
:10050000427566666572203D2025730A0000000072
:10051000456E643D3D3D3D3D3D3D3D3D3D3D3D3DAB
:100520003D3D3D3D3D3D3D3D0A00000010B501F023
:100530001DFE80220549064801F016FB05A000F0CB
:100540000FF840F6B83000F04FFD10BDB7010020A5
:10055000D804002041542B5253543D300D0A000062
:1005600070B504462046FFF747FE85B24FF0FF33D3
:100570002A462146024801F008FDFFF771FF70BDD1
:10058000D804002001B501226946892000F07CFBD7
:1005900008BD0000174908B5884204D9E1208DF84C
:1005A0000000E9201EE01449884204D9D7208DF8C4
:1005B0000000D82016E01149884204D9C1208DF8E6
:1005C0000000C5200EE00E49884204D975208DF840
:1005D0000000812006E00B49884205D96B208DF888
:1005E00000006F208DF8010002226946982000F07B
:1005F0004BFB08BD00E9A43580F8A9328044E52D05
:10060000000B6B1B40FC5419064810B5007808B16C
:10061000062801D100F002FB00F082FB0028FBD18C
:1006200010BD00000400002008B5010A8DF800107C
:100630008DF8010002226946104600F025FB08BD36
:100640001020704708B502226946122000F0EBF82E
:10065000BDF8000040BA08BD38B50446032269461B
:10066000142000F0E0F89DF800004042400820739C
:100670009DF80100802801D3A0F580708008607388
:100680009DF8020040424008A07302484068206183
:1006900038BD00000400002000487047000420021C
:1006A000F8B506460C4600208DF800001546694650
:1006B000204600F00CF82278AA4201D90120F8BDAA
:1006C00031469DF8000000F089F80020F8BD38B5EB
:1006D0000D46044602226946132000F0A4F840F2B9
:1006E000047000F0C1F8C00904D040F2027000F0BC
:1006F000BBF801E09DF8000020709DF80100287013
:1007000038BD000010B500F0DEF800F087FA1A4896
:1007100001240470204600F01DFA1C2140F611103F
:1007200000F0D4FA1C2140F6121000F0CFFA01209C
:1007300000F014F9012000F090F90021084600F0C3
:1007400002F9012000F076F906210B20224600F084
:100750004EF945F64A3000F03CF9FF2000F020F950
:10076000064800F081F90721162000F035FABDE8AF
:100770001040002000F0AAB90400002088F6D0192B
:1007800038B5FFF75FFF04004FF000008DF8000060
:1007900017D02046FFF748FFA00713D50D48FFF7F5
:1007A0005BFF0C48FF2269461430FFF779FF0949C7
:1007B0009DF800201431204600F0BAFA002000F025
:1007C00085F938BD03499DF800201431204600F01A
:1007D000AFFA38BDA40000207047000070B5154680
:1007E0000E460446FFF710FF002000F0EDFA1E2031
:1007F00000F0F8FA204600F0F5FA002000F0F2FAD6
:10080000002405E0002000F0EDFA3055641CA4B28D
:10081000AC42F7D3012000F0D7FA00BF00F080FA15
:100820000028FBD170BD70B515460E460446FFF793
:10083000EBFE002000F0C8FA204600F0D3FA0020BA
:1008400000F0D0FA002405E0002000F0CBFA30558B
:10085000641CA4B2AC42F7D3012000F0B5FA00F05A
:100860005FFA0028FBD170BD08B50122694600F08F
:1008700003F89DF8000008BD70B515460E46044605
:10088000FFF7C2FE002000F09FFA1D2000F0AAFA38
:10089000200A00F0A7FAE0B200F0A4FA002000F06D
:1008A000A1FA002405E0002000F09CFA3055641CF9
:1008B000A4B2AC42F7D3012000F086FA00F030FA7F
:1008C0000028FBD170BD10B50A2000F02FFA0020DF
:1008D00000F060FA142000F029FA012000F05AFA22
:1008E000BDE81040142000F021BA10B5002000F03F
:1008F000B1FABDE81040012000F05ABA10B500204E
:1009000000F056FABDE81040012000F0A3BA70B51F
:10091000054616460C46084600F042F82146284691
:1009200000F096F8304600F027F9012000F0FEF9BB
:10093000FFF788FE0400F8D0FFF776FE2046BDE8FA
:10094000704000F061BA08B502228DF800008DF801
:10095000011069468F2000F097F908BD01B501220A
:1009600069469D2000F090F908BD1CB5040A8DF879
:1009700000408DF80100080A8DF80200100A8DF879
:1009800004008DF80520180A8DF806008DF8031074
:1009900008228DF807306946104600F075F91CBD35
:1009A0000EB5002100918DF800103C228DF8012039
:1009B0008DF802108DF80300019101208DF80400DC
:1009C00002918DF80510062269468C2000F05CF932
:1009D0000EBD10B50446010A4FF4E86000F076F948
:1009E000E1B2BDE8104040F2417000F06FB91CB5B3
:1009F000002300938DF800008DF801108DF802207F
:100A000001208DF803000193042269468B2000F039
:100A10003BF91CBD08B58DF800008DF801108DF86C
:100A200002208DF8033004226946952000F02CF94D
:100A300008BD000001B505499DF80000012248707D
:100A400069468A2000F020F908BD0000040000205B
:100A50000A460146002000F0F5B801B501226946BA
:100A6000962000F011F908BD38B50446FF20FFF7C5
:100A700089FD2046FFF78EFD012000F06BF81C2158
:100A800040F6111000F022F91C2140F6121000F07F
:100A90001DF92046FFF726FC00220B4BFFF7B3FBA6
:100AA000FFF72DFC010E8DF80010010C8DF80110E0
:100AB000010A8DF802108DF8030004226946862091
:100AC00000F0E2F838BD00008084EE3F38B51749E9
:100AD000044605200870012000F03CF81C2140F677
:100AE000111000F0F3F81C2140F6121000F0EEF89F
:100AF000002340F202201A460146FFF736FFFF208E
:100B0000FFF74EFF4FF6FF70FFF78EFDFFF7EDFE8C
:100B1000200C8DF80000200A8DF801008DF80240AD
:100B200003226946822000F0AFF838BD040000209F
:100B300001B5002000F08EF9002000F039F9012203
:100B40006946842000F0A0F801490020087008BD23
:100B50000400002001B501226946802000F094F8CD
:100B60009DF80010034811B10221017008BD012158
:100B7000FBE700000400002038B5164904460420B5
:100B80000870FFF7BBFE0120FFF7E4FF1C2140F6D1
:100B9000111000F09BF81C2140F6121000F096F89E
:100BA000002340F201201A460146FFF7DEFE4FF611
:100BB000FF70FFF739FD200C8DF80000200A8DF83A
:100BC00001008DF8024003226946832000F05CF8A2
:100BD00038BD00000400002038B50D46044601234E
:100BE000002207210420FFF715FF162C01DD162433
:100BF00004E06FF00200844200DA0446382140F637
:100C0000E70000F063F88DF800408DF801500222F3
:100C100069468E2000F038F838BD000010B500207D
:100C200000F0D2F8C02000F0DDF8002000F0DAF883
:100C3000012000F0C9F800BF00F072F80028FBD1D5
:100C400010BD000070B515460E460446FFF7DCFCEB
:100C5000002000F0B9F80E2000F0C4F8204600F0A3
:100C6000C1F8002404E0305D00F0BCF8641CA4B2BC
:100C7000AC42F8D3012000F0A7F800BF00F050F814
:100C80000028FBD170BD00002DE9F04115460E464D
:100C90000746FFF7B9FC002000F096F8384600F050
:100CA000A1F8002404E0305D00F09CF8641CA4B2BC
:100CB000AC42F8D3012000F087F8842F04D000BFA5
:100CC00000F02EF80028FBD1BDE8F08113B5012219
:100CD00001A900F001F81CBD70B515460E4604468A
:100CE000FFF792FC002000F06FF80D2000F07AF87A
:100CF000200A00F077F8E0B200F074F8002404E075
:100D0000305D00F06FF8641CA4B2AC42F8D301204F
:100D100000F05AF800F004F80028FBD170BD000084
:100D20000421014800F06EBA0018014000F05CB9DF
:100D300010B514460A4681070DD50C4811680160AC
:100D4000918881809179817121461046FFF737FAA9
:100D50000748047010BD800504D5BDE8104005A00B
:100D600001F092BC07A001F08FFCFEE724000020F8
:100D700000000020BDD3CAD5D2ECB3A3B3ACCAB136
:100D80000A000000BDD3CAD5CEB4D6AAB4EDCEF3C6
:100D90000A000000054B4FF40051012803D0002247
:100DA000184600F034BA0122FAE7000000200140A2
:100DB000044B012804D000222021184600F027BA55
:100DC0000122F9E700180140054B4FF4804101284A
:100DD00003D00022184600F01ABA0122FAE70000F8
:100DE0000020014001B582B000208DF80400401EB3
:100DF0000090012301AA02A9024800F0A9FD9DF874
:100E000004000EBD3804002010B504460848C1682F
:100E100000208847E0070AD1A00504D5BDE81040AE
:100E200004A001F031BC07A001F02EFCFEE710BDCC
:100E300050290008B7A2CBCDD2ECB3A3B3ACCAB152
:100E40000A000000B7A2CBCDCEB4D6AAB4EDCEF343
:100E50000A000000044B012804D00022402118465B
:100E600000F0D5B90122F9E70018014072B6FEE79B
:100E700010B590F821100022022905D004218163C9
:100E800080F82020012010BD01680B6823F00E03BC
:100E90000B6001680B6823F001030B6090F8403091
:100EA000C46B012101FA03F3636080F8211080F81C
:100EB0002020104610BD00002DE9F05F90F82110B1
:100EC0000024022903D004218163012485E0016804
:100ED0000A6822F00E020A6001680A6822F0010224
:100EE0000A603F4E3E4FB215DFF8F4C0DFF8F090D5
:100EF000DFF8ECA0DFF8E8B0DFF8E4E00168783F65
:100F000013011502ACF1640CA9F15009AAF13C0AD5
:100F1000ABF1280BAEF1140E4FF48018B14227D973
:100F2000B9420ED0614512D049451DD0514518D067
:100F3000594518D0714501D1424615E0294EB142BC
:100F400001D1012210E0274E1436B14201D1102206
:100F50000AE0244E2836B14206D0224A3C32914261
:100F600001D11A4600E02A461E49091F0A602BE0FB
:100F7000B94213D0614517D0494522D051451DD003
:100F800059451DD0714501D142461AE0B14202D106
:100F90004FF0807215E0134EB14201D1012210E0F2
:100FA000104E1436B14201D110220AE00D4E2836FF
:100FB000B14206D00B4A3C32914201D11A4600E0C0
:100FC0002A46074980394A60012180F82110002112
:100FD00080F82010416B01B188472046BDE8F09FA2
:100FE000800002400804024070B5044600F014F985
:100FF0000546601C02D004480078044400F00CF957
:10100000401BA042FAD370BD100000202DE9F84F1C
:10101000DFF8C8910024A9F1040B23460F2709F13A
:10102000040AABF1040ED1E00125A54006EA050251
:10103000AA4276D1DFF8A8C14E68A6EB0C08664537
:101040002BD00DDC032E34D005DC36B3012E19D0A5
:10105000022E2FD11BE0112E16D0122E2AD119E00C
:10106000B8F5881F19D006DCB8F5803F15D0B8F563
:10107000801F1FD111E0B8F5001F0ED0B8F5041F76
:1010800018D10AE0CB6815E0CB681B1D12E0CB68D5
:1010900008330FE0CB680C330CE08B682BB1012BCD
:1010A0004FF0080303D0456104E0042302E005612A
:1010B00000E00023FF2A01D8064601E000F1040603
:1010C0004FEA840501D9A5F12005D6F8008007FA7A
:1010D00005FC28EA0C0803FA05F548EA0508C6F8F5
:1010E00000804D68ED0070D53E4DAE6946F00106BA
:1010F000AE61AD6924F0030605F0010500953A4D97
:1011000006EB050CDCF80850A607360F07FA06F8C0
:1011100025EA0805DFF8D480404503D14FF00008E8
:1011200025E052E0DFF8C880404502D14FF00108C9
:101130001DE0DFF8C080404502D14FF0020816E004
:10114000DFF8B480404502D14FF003080FE0DFF82C
:10115000AC80404502D14FF0040808E0DFF8A080E1
:10116000404502D14FF0050801E04FF0060808FAAB
:1011700006F848EA0508CCF808804D68D9F8006000
:10118000ED024D4601D5164300E096432E604D68B2
:10119000DAF80060AD02554601D5164300E09643EB
:1011A0002E604D68DBF80060AD035D4601D5164347
:1011B00000E096432E604D68DEF80060ED03754652
:1011C00001D5164300E096432E60641C0A6816465B
:1011D000E2407FF429AFBDE8F88F00000804014029
:1011E0000000111000100240000001400008014002
:1011F000000C0140001001400014014000180140A3
:10120000001C01408068084000D0012070470AB1EE
:10121000016170470904FBE70148806870470000DE
:1012200010000020024881680278114481607047F4
:1012300010000020074810B5016841F0100101605E
:10124000032000F075F80F2000F006F800F024F8F5
:10125000002010BD0020024070B50D4D04464FF433
:101260007A712878B1FBF0F00A490968B1FBF0F017
:1012700000F066FC48B9102C07D200222146501E0F
:1012800000F036F800206C6070BD012070BD0000D9
:10129000100000201C0000200C4808B5816941F0B6
:1012A00001018161816901F001010091C16941F091
:1012B0008051C161C06900F08050009004484168CD
:1012C00021F0E06141F00071416008BD0010024072
:1012D00000000140002809DB00F01F0201219140BD
:1012E0004009800000F1E020C0F8001170470000C4
:1012F000F0B40E4B1B680C46C3F30223C3F1070581
:10130000042D00D90425191D072901D2002300E06E
:10131000DB1E012606FA05F1491E214099409E4038
:10132000761E16403143F0BC01F0D2B90CED00E05E
:10133000064900F0070208684FF6FF03184040EA2C
:101340000220034A10430860704700000CED00E0E3
:101350000000FA052DE9F0470F46050061D0434E25
:10136000306800F00700B84209D2306820F007006A
:1013700038433060306800F00700B84251D1286827
:101380003B4C810712D5400703D5606840F4E0600C
:1013900060602878000703D5606840F460506060A2
:1013A0006068A96820F0F000084360602878C007F2
:1013B00028D06868012810D02168022810D0890739
:1013C00000292EDA616821F0030101436160FFF713
:1013D00023FF804641F288390DE021688903EFE759
:1013E0008901EDE7FFF718FFA0EB0801494502D995
:1013F0000320BDE8F0876068696800F00C00B0EB7E
:10140000810FEFD1306800F00700B8420BD9306887
:1014100020F0070038433060306800F00700B84221
:1014200001D00120E5E72878400705D56068E96824
:1014300020F4E060084360602878000706D5606803
:10144000296920F4605040EAC100606000F038F87B
:101450006168084AC1F30311515CC840064908603D
:1014600006480068FFF7F8FE0020C2E700200240AF
:1014700000100240822900081C00002014000020F7
:101480000448054900684968044AC1F30221515CD7
:10149000C84070471C00002000100240922900083C
:1014A0000448054900684968044AC1F3C221515CF7
:1014B000C84070471C00002000100240922900081C
:1014C0000E4A51680E4801F00C03042B11D0082B72
:1014D0000FD10C48C1F38343C903C05C0AD55168DE
:1014E000084AC1F34041921E515C054A5043B0FB8B
:1014F000F1F0704704494843704700000010024073
:1015000000127A007229000800093D002DE9F84F09
:10151000040070D02078C04DC00749D06868C0F37F
:101520008100012807D06868C0F38100022809D132
:101530006868C00306D52868800339D5606800282C
:10154000E7D035E06068B0F5803F0BD010B1B0F562
:10155000A02F11D0286820F480302860286820F45B
:10156000802002E0286840F480302860606890B1F4
:10157000FFF752FE06460AE0286840F48020286003
:10158000F0E700BFFFF748FE801B642873D8286887
:101590008003F7D50CE0FFF73FFE064605E000BFED
:1015A000FFF73AFE801B6428F0D828688003F7D440
:1015B00020789A4E80074FF001094FF0000839D586
:1015C000686810F00C0F07D06868C0F3810002282B
:1015D00009D16868C00306D42868800714D520693B
:1015E000012808D110E02069B0B1C6F80090FFF7DB
:1015F00013FE074605E00AE1FFF70EFEC01B0228B6
:10160000C4D828688007F7D52868616920F0F800F9
:1016100040EAC10028600DE0C6F80080FFF7FCFD3D
:10162000074604E0FFF7F8FDC01B022823D828680E
:101630008007F7D4207800072CD57948A169D9B163
:10164000C0F80090FFF7E8FD074604E0FFF7E4FD6F
:10165000C01B02280FD8686A8007F7D571484FF47D
:10166000FA510068B0FBF1F0009000BF0098411EF5
:101670000091FAD20EE080E0C0F80080FFF7CCFDC8
:10168000074604E0FFF7C8FDC01B022875D8686A4A
:101690008007F7D42078400760D5E8690027C000AC
:1016A00008D4E86940F08050E861E869012700F05B
:1016B000805000905C480168C90513D401688346D6
:1016C00041F480710160FFF7A7FD824606E000BF8C
:1016D000FFF7A2FDA0EB0A0064284ED8DBF800005B
:1016E000C005F5D5E06801280AD008B1052813D057
:1016F000286A20F001002862286A20F0040002E035
:10170000286A40F001002862E06841F2883B98B105
:10171000FFF782FD82460BE0286A40F00400286251
:10172000EEE700BFFFF778FDA0EB0A0159455AD854
:10173000286A8007F6D50CE0FFF76EFD824605E0CB
:10174000FFF76AFDA0EB0A0159454CD8286A8007CB
:10175000F6D41FB1E86920F08050E861E06988B3F1
:101760006968C1F38101022944D00228C6F860806B
:1017700004D0FFF751FD044638E034E0FFF74CFD9C
:10178000074604E0FFF748FDC01B02282BD8286855
:101790008001F7D4206AB0F5803F05D16868A16860
:1017A00020F4003008436860D4E908010843696800
:1017B00021F4741108436860C6F86090FFF72CFDAF
:1017C000044606E025E000BFFFF726FD001B0228C7
:1017D00009D828688001F7D51BE000BFFFF71CFD82
:1017E000001B022802D90320BDE8F88F2868800179
:1017F000F4D40EE00128F7D06868226A00F4803142
:10180000914204D1616A00F47010884201D0012035
:10181000EAE70020E8E70000001002400000424232
:10182000800442421C0000200070004070B504009B
:1018300009D0606A002540B125616561A56294F810
:10184000510040B10CE0012070BD6068B0F5827FAE
:10185000F4D0E561F2E784F85050204600F040F8FB
:10186000022084F851002068016821F040010160E5
:10187000A088218900F4827001F404410843A18901
:1018800001F400610843217C01F002010843217D3D
:1018900001F001010843218B01F400710843217F0D
:1018A00001F03801084394F8201001F0800108434A
:1018B000218D01F40051084321680860A0690421CA
:1018C00001EA1040216848602068C16921F4006184
:1018D000C1616565012084F85100002070BD0000E1
:1018E00030B585B0002400940194029403940068FC
:1018F0001449884223D11448816941F4805181619F
:10190000816901F480510491816941F00401816190
:1019100080690E4D00F004000490A0200090022089
:1019200001900320039069462846FFF76FFB402093
:10193000CDE90004694628460294FFF767FB05B02D
:1019400030BD00000030014000100240000801409E
:101950002DE9FF4F81B01D46934604464FF0010923
:101960000E9EFFF759FC074694F851006168012864
:1019700006D0B1F5827F3CD1A168C9BB042838D11B
:101980000298002871D0BBF1000FFBD0002DF9D0D8
:1019900094F8500001282CD04FF0010A84F850A090
:1019A00094F85100042802D0052084F851004FF02B
:1019B0000008C4F85480C4F838B0E587A5870299B8
:1019C0002163E586A586C4F84080C4F84480206879
:1019D0000168490603D4016841F040010160E068F4
:1019E000B0F5006F606808D0F0B3012D49D081E0F8
:1019F000FFE7022005B0BDE8F08F08B1012D39D115
:101A0000206B21680088C860206B801C2063E08EFA
:101A1000401EE0862EE02068816889070FD5E18EA0
:101A200069B1B9F1010F0AD1216B0988C160206B3E
:101A3000801C2063E08E401EE0864FF00009206885
:101A40008168C9070CD0E18F51B1C068A16B0880D3
:101A5000A06B801CA063E08F401EE0874FF001095F
:101A6000FFF7DAFBC01B01E00BE067E0B04201D3F7
:101A7000701C50D1E08E0028CDD1E08F0028CAD153
:101A80003EE0206B216800780873206B401C2063C7
:101A9000E08E401EE0862DE02068816889070FD522
:101AA000E18E69B1B9F1010F0AD1216B0978017397
:101AB000206B401C2063E08E401EE0864FF0000942
:101AC00020688168C9070CD0E18F51B1C068A16B53
:101AD0000870A06B401CA063E08F401EE0874FF0B1
:101AE0000109FFF799FBC01BB04202D3701C01D063
:101AF00011E086B1E08E0028CED1E08F0028CBD156
:101B00003A463146204600F050FB50B12020606537
:101B100084F8508012E084F851A084F850800320AB
:101B200068E7A06818B92068C1688068009084F8E8
:101B300051A084F85080606D0028F1D0012059E751
:101B400010B5401EB0F1807F01D3012010BD4FF0D1
:101B5000E02460610F21601700F0BAFD0020A06151
:101B600007202061002010BD18B5034690F8420000
:101B7000202801D0022018BD61B15AB1012018639C
:101B800000205863184600F0A7FC0028F3D1196B19
:101B9000012901D0012018BD19680A68496800911F
:101BA00019680C3151E8002F42F0100241E800247E
:101BB000002CF5D118BD000070B505460C4606494D
:101BC0002868884206D105490C70802204490548DE
:101BD000FFF7CAFF70BD0000004400400C00002069
:101BE000B7010020D804002070470000F8B5016854
:101BF00004460868CA684B6910F00F0F4FF00005E3
:101C000059D003F0010602F49077374365D0C1073D
:101C100005D0D10503D5616C41F001016164410734
:101C200005D5D90703D0616C41F0020161648107D9
:101C300005D5D90703D0616C41F004016164010747
:101C400007D502F02001314303D0616C41F0080157
:101C50006164616C00293AD0800604D5900602D5F3
:101C6000204600F07BFB20684069616CC0F3801067
:101C7000090700D460B3204600F049FB20684069A2
:101C8000400621D52068143050E8001F21F04001A3
:101C900040E80012002AF5D1E06BA8B16D4941631C
:101CA000E06BFFF709F9002811D0E06B416B01B040
:101CB000BDE8F040084783060FD593060DD52046B2
:101CC000BDE8F84000F04ABB2046FFF78DFFF8BDA5
:101CD0002046FFF789FF6564F8BD266B2023012E9F
:101CE0007CD1C6067AD5D60678D5086848680090B3
:101CF00048694FF00206400640D5E16B086840682D
:101D00000004000CE8D0A28D8242E5D9E085886904
:101D100020282DD020680C3050E8001F21F480715D
:101D200040E80012002AF5D12068143050E8001F66
:101D300021F0010140E80012002AF5D1206814309A
:101D400050E8001F21F0400140E80012002AF5D1C0
:101D500084F84230256320680C3050E8001F21F0E1
:101D6000100140E80012002AF5D1E06BFFF780F87F
:101D70006663A08DE18D401A81B22AE0A08DE18DCD
:101D8000401A81B2E08D0028A6D00029A4D0226894
:101D90000C3252E8000F20F4907042E80007002F48
:101DA000F5D12068143050E8002F22F0010240E8FD
:101DB0000027002FF5D184F84230256320680C30CD
:101DC00050E8002F22F0100240E80023002BF5D14C
:101DD00066632046FFF7F0FEF8BDFFE705062BD54A
:101DE000150629D594F841002128F5D1A068B0F551
:101DF000805F01D12069B0B1206A411C2162216855
:101E000000784860E08C401E0004000CE084E3D1C0
:101E10002068C16821F08001C1602068C16841F07C
:101E20004001C160D8E7206A0088C0F3080048601C
:101E3000206A801C2062E5E74006CDD55006CBD550
:101E4000CA68204622F04002CA6084F8413000F09F
:101E5000ECF8C1E7FF22000870B5040004D094F844
:101E60004100002510B106E0012070BD84F840500B
:101E7000204600F023F8242084F841002068C1683F
:101E800021F40051C160204600F0CAFA20680169BF
:101E900021F4904101612068416921F02A014161EA
:101EA0002068C16841F40051C1606564202084F855
:101EB000410084F842006563002070BD70B586B0B3
:101EC000002400940194029403942B4E03682B4940
:101ED000022003222A4DB34221D18B6943F480436F
:101EE0008B618B6903F4804304938B6943F0040393
:101EF0008B618969039201F0040104910102CDE92B
:101F0000001069462846FFF781F82815CDE900043E
:101F1000694628460294FFF779F806B070BD194E5D
:101F2000B342FAD1CB6943F40033CB61CB6903F4FC
:101F3000003304938B6943F004038B618969039236
:101F400001F0040104910421CDE9001069462846FE
:101F5000FFF75CF80820CDE90004694628460294A2
:101F6000FFF754F8002211462620FFF7C1F926207A
:101F7000FFF7B0F9D1E7000000380140001002403F
:101F8000000801400044004070472DE9F843044632
:101F900090F84100984616460D46202802D00220AF
:101FA000BDE8F88385B17EB100206064212084F80B
:101FB0004100FFF731F9A6848146E684A068202716
:101FC000B0F5805F02D003E00120E9E7206910B19D
:101FD0002E4600250EE000260CE08021204600F071
:101FE00096FAA8B9C6B116F8010B21684860E08CD2
:101FF000401EE084E08C4B464FF00002CDF800809C
:102000000028EAD14FF04001204600F080FA40B1AC
:1020100084F841700320C3E735F8020BC0F30800D1
:10202000E3E784F841700020BAE77047FEE700005C
:102030002DE9F04385B000242948009401940294CE
:102040000394816941F040018161816901F040019F
:102050000491816941F010018161816901F01001F1
:102060000491816941F004018161816901F00401F9
:102070000491816941F4807181618069DFF8648035
:1020800000F480700490002260214046FFF7BFF802
:10209000DFF854904FF4C047002239464846FFF716
:1020A000B6F80420CDE90004694640460294FEF7E4
:1020B000ADFF602001250326CDE90005CDE90246EC
:1020C00069464046FEF7A2FF00970396CDE901540A
:1020D00069464846FEF79AFF05B0BDE8F083000068
:1020E000001002400018014000200140104810B5C7
:1020F0000E4901604FF48271416000218160C1602E
:102100004FF400720161C0E905120822C0E90721FD
:10211000416281620A21C162FFF788FB002803D077
:10212000BDE81040FEF7A2BE10BD00000030014027
:10213000380400200C4810B50A4901604FF4E13121
:102140004160002181600C22C160C0E904128161FC
:10215000C161FFF781FE002803D0BDE81040FEF703
:1021600085BE10BD00380140900400200C4810B519
:102170000A4901604FF4E1314160002181600C2285
:10218000C160C0E904128161C161FFF765FE0028EA
:1021900003D0BDE81040FEF769BE10BD004400400A
:1021A000D8040020FEE7FEE77047F8B515460E4656
:1021B0000B46009204460122022100F011F840B9BA
:1021C0003346002280212046009500F009F80028BF
:1021D00004D0606D40F0200060650320F8BD000071
:1021E0002DE9F8431E46914688460446089DFFF7B0
:1021F00013F8401B351AFFF70FF80746254800680B
:10220000C0F3CB30684338E0701C37D0FFF704F8D8
:10221000C01BA84203D215B1009860B32CE020681F
:10222000416821F0E00141606068B0F5827F0BD128
:10223000A068B0F5004F02D0B0F5806F04D12068DF
:10224000016821F040010160A06AB0F5005F09D18A
:102250002068016821F4005101602068016841F4A0
:1022600000510160012084F85100002084F85000E2
:102270000320BDE8F8830025401E00902068816897
:1022800038EA010004D000214945BDD10020F0E723
:102290000121F9E71C0000207047FEF7C3BF30B5ED
:1022A0008FB028216846FDF78AFF14210AA8FDF7A0
:1022B00086FF01210804CDE90010002402940225C4
:1022C0000491CDE907504FF4E01009906846FFF7FC
:1022D0001DF908B172B6FEE70F20CDE90A054FF4EB
:1022E0008060CDE90C4002210AA80E94FFF732F875
:1022F000002801D072B6FEE70FB030BD704710B5B0
:10230000406A0021C185C184FFF76EFC10BD0168E1
:102310000C3151E8002F22F4907241E80023002B89
:10232000F5D10168143151E8002F22F0010241E893
:102330000023002BF5D1016B012909D101680C3173
:1023400051E8002F22F0100241E80023002BF5D1C4
:10235000202180F8421000210163704708B590F8F1
:102360004210222901D0022008BD82684FF4805318
:102370009A4201D1016921B1816A9A421BD04AB1C6
:102380000AE00268816A5268C2F308020A80816A20
:10239000891C08E0026972B10268526802F07F028B
:1023A0000A70816A491C8162C18D491E0904090CA9
:1023B000C18503D01BE002685268F1E70168CA6872
:1023C00022F02002CA600168CA6822F48072CA60E2
:1023D00001684A6922F001024A61202180F8421016
:1023E00000214163026B012A03D0FFF7CDFD0020DD
:1023F00008BD016301680C3151E8002F22F0100282
:1024000041E80023002BF5D101680A68D20602D505
:102410000A6849680091818DFFF7CEFBE7E700006D
:1024200070B5044600680169E26821F44051114327
:1024300001612169A0680843616908432168CA688D
:1024400041F20C639A430243CA6020684169A26961
:1024500021F44071114341611E492068884202D134
:10246000FFF71EF801E0FFF70BF800EBC00101EBEE
:102470000012606864218000B2FBF0F3B3FBF1F35B
:102480006FF018067343B2FBF0F5B2FBF0F605EB04
:102490008305322303EB0515B5FBF1F5B6FBF1F629
:1024A00005F0F00505EB0615B2FBF0F6B2FBF0F017
:1024B000B0FBF1F06FF01802504306EB800003EB25
:1024C0000010B0FBF1F0216800F00F002844886094
:1024D00070BD00000038014081628285C285002104
:1024E0004164222180F84210016921B10168CA6863
:1024F00042F48072CA6001684A6942F001024A618E
:102500000068C16841F02001C160002070472DE9DA
:10251000F843984617460D460446089E24E0701C72
:1025200022D0FEF779FEA0EB0800B0421AD8CEB157
:102530002068C168490717D5802D15D0402D13D0CC
:102540000168C94309070FD401680025406800905D
:102550002046FFF7DCFE0820606484F8405001202C
:10256000BDE8F8830320FBE72068006835EA000037
:1025700004D00020B842D2D00020F1E70120F9E7D2
:102580000148FFF733BB0000D8040020FEE700003D
:1025900030B599B004460D4664216846FDF70FFE3C
:1025A0002A4608A1684600F07FF86846FDF7D8FF84
:1025B0004FF47A732A4621460748FFF7E6FC19B024
:1025C00030BD000041542B43495053454E443D30EB
:1025D0002C25640D0A000000D804002010B5FDF77A
:1025E000A5FF09A0FDF7BCFF0BA0FDF7B9FF14A0E4
:1025F000FDF7B6FF16A0FDF7B3FF1BA0FDF7B0FF78
:102600001DA0FDF7ADFF10BD41542B43574D4F4466
:10261000453D310D0A00000041542B43574A4150BB
:102620003D224C4150544F502D563943303239459C
:1026300034222C223833423969342F39220D0A00D2
:1026400041542B4349504D55583D310D0A0000006F
:1026500041542B4349505345525645523D312C3835
:102660003038300D0A00000041542B434950444992
:102670004E464F3D310D0A0041542B4349505354AF
:10268000413F0D0A000000000FB4054B10B503A92F
:10269000044A029800F03CF810BC5DF814FB0000FE
:1026A000D5280008200000200FB4084B10B504A95D
:1026B00002AA039800F02CF8044602A9002000F0BA
:1026C00003F9204610BC5DF814FB0000C92800087F
:1026D0000907090E002804DB00F1E02080F800144F
:1026E000704700F00F0000F1E02080F8141D7047E3
:1026F00002E008C8121F08C1002AFAD170477047CB
:10270000002001E001C1121F002AFBD17047000028
:102710002DE9FF4F8BB09A460F460546002606E08E
:1027200025280BD052460D9990476D1C761C2878B1
:102730000028F5D10FB03046BDE8F08F0024A04648
:102740000122604900E0044315F8013F203B02FAF2
:1027500003F00842F7D128782E2817D115F8010F79
:1027600044F004042A280ED06FF02F022878A0F13C
:10277000300109290AD808EB880102EB410100EB7E
:1027800001086D1CF2E757F8048B6D1C2878692846
:102790003ED006DC0028CDD063280BD0642804D1BD
:1027A00036E0732810D075284BD052460D999047CB
:1027B000761C85E017F8040B8DF8000000208DF8DA
:1027C0000100E946012003E057F8049B4FF0FF3079
:1027D00061074FF0000401D40AE0641C44450DDA9F
:1027E0008442FADB19F804100029F6D106E0641CD3
:1027F0008442FCDB19F804100029F8D1264404E0D7
:1028000019F8010B52460D999047641EF8D257E013
:1028100001CF4FF00A0B002802DA40422D2102E0DE
:10282000210504D52B218DF82410012103E0E107B7
:1028300005D02021F7E70DF1200908910CE00021D7
:10284000F9E701CF4FF00A0BF9E75946FDF770FDA4
:1028500001F1300209F8012D0028F6D1ADEB090095
:1028600000F1200B600701D44FF00108D84502DDCC
:10287000A8EB0B0000E000208046002406E009A839
:102880005246005D0D999047641C761C089884425E
:10289000F5DB04E0302052460D999047761CB8F1E4
:1028A0000001A8F10108F5DC05E019F8010B52461A
:1028B0000D999047761CBBF10001ABF1010BF4DCE4
:1028C0006D1C34E7092801000A68531C0B60107066
:1028D0007047000013B54FF0FF33012269460248EC
:1028E000FFF753FB00981CBD90040020A0B0FEF73A
:1028F000A1FCFFF7D4FCFFF79BFBFFF7F7FBFFF70B
:1029000019FCFFF733FC0BA0FFF7BEFEFFF766FED6
:102910000C480068804780216846FDF750FC40F66F
:10292000B834052108A0FFF733FE2046FEF75CFB14
:10293000F7E7000068656C6C6F20776966692E2E7A
:102940002E0A0000502900086E6968616F000000BF
:10295000050700080F090008310B0008CD0A000820
:1029600081070008D90700089906000841060008F9
:10297000010202030405060708090A0B0C0D0E0FDD
:102980001010000000000000000001020304060710
:10299000080900000000010203040000BC2900082F
:1029A0000000002024000000F0260008E0290008B4
:1029B00024000020FC0800000027000800000000A0
:1029C0000000000000000000000000000100000006
:1029D000100000000000000000127A00000000005B
:0400000508000131BD
:00000001FF
