:020000040800F2
:1000000028090020490100080716000865150008A6
:1000100005160008E9030008FD18000800000000AC
:100020000000000000000000000000000B160008A7
:10003000EB03000800000000091600080D16000878
:100040006301000863010008630100086301000800
:1000500063010008630100086301000863010008F0
:1000600063010008630100086301000863010008E0
:1000700063010008630100086301000863010008D0
:1000800063010008630100086301000863010008C0
:1000900063010008630100086301000863010008B0
:1000A00063010008630100086301000863010008A0
:1000B0006301000863010008630100086301000890
:1000C0006301000863010008630100086301000880
:1000D0006301000863010008F118000863010008CB
:1000E0006301000863010008630100086301000860
:1000F0006301000863010008630100086301000850
:10010000630100086301000863010008630100083F
:10011000630100086301000863010008630100082F
:10012000630100086301000863010008630100081F
:10013000DFF810D000F064F8004800474D1A0008BE
:10014000AFF3008028090020064880470648004792
:10015000FEE7FEE7FEE7FEE7FEE7FEE7FEE7FEE777
:10016000FEE7FEE76F1600083101000840EA0103D0
:100170009B0703D009E008C9121F08C0042AFAD25D
:1001800003E011F8013B00F8013B521EF9D2704721
:10019000D2B201E000F8012B491EFBD270470022C9
:1001A000F6E710B513460A4604461946FFF7F0FF76
:1001B000204610BD421E12F8013F002BFBD111F862
:1001C000013B02F8013B002BF9D1704730B50546E1
:1001D0002A460B4612F8010B13F8014B08B1A04256
:1001E000F8D01CB1002802D06D1CF1E7284630BDC4
:1001F000421C10F8011B0029FBD1801A7047000037
:10020000064C074D06E0E06840F0010394E8070063
:1002100098471034AC42F6D3FFF78EFF2C1B000832
:100220004C1B000838B52AA12C48FFF7CFFF2C4DF6
:10023000002490B180212948FFF7B1FF2C7029A03C
:1002400001F05EFB2FA000F0DBF90A2301226946D2
:100250002F4801F0DDF8002038BD2EA11F48FFF720
:10026000B5FFA0B180211D48FFF799FF2C702CA08D
:1002700001F046FB4FF0FF33032231A1244801F087
:1002800020F94FF4FA6000F08BFA012038BD2DA15F
:100290001248FFF79BFF70B92EA11048FFF796FF99
:1002A00048B930A10D48FFF791FF20B92FA10B48A5
:1002B000FFF78CFF48B180210848FFF770FF2C70D2
:1002C0002FA001F01DFB032038BD022038BD000027
:1002D0002B424C45434F4E4E00000000A80000202A
:1002E00000000020C1ACBDD3424C45B3C9B9A62023
:1002F000D7BCB1B8BDF8C8EBCDB8B4ABC4A3CABDC8
:100300000A00000041542B424C455350500D0A0046
:10031000600000202B424C45444953434F4E4E0051
:10032000424C45B6CFBFAAC1ACBDD320B9D8B1D5D8
:10033000CDB8B4AB2020D6D8D0C2B9E3B2A50A005C
:100340002B2B2B002B5354415F434F4E4E454354B0
:10035000454400002B444953545F5354415F495076
:100360000000000057494649000000002B5354414B
:100370005F444953434F4E4E4543544544000000AB
:100380007769666920C1ACBDD3D0C5CFA2B7A2C979
:10039000FAB1E4BBAF2E2E2E2E0D0A002DE9F0414E
:1003A0000A4C07460E46207800280DD0FFF73AFF8A
:1003B000022809D100253D60227805493846FFF71B
:1003C000D5FE207830802570BDE8F0810000002047
:1003D000A80000200A4601464FF0FF33014801F013
:1003E00070B8000060000020FEE7704710B500F014
:1003F000EDF80EA000F004F910A000F001F914A02F
:1004000000F0FEF818A000F0FBF81BA000F0F8F8D0
:1004100022A000F0F5F82FA000F0F2F832A000F0D2
:10042000EFF8BDE8104037A000F0EAB841542B4285
:100430004C45494E49543D320D0A000041542B426F
:100440004C4547415454535352564352450D0A00AC
:1004500041542B424C4547415454535352565354E4
:100460004152540D0A00000041542B424C45414476
:1004700044523F0D0A00000041542B424C45414478
:1004800056504152414D3D35302C35302C302C30BA
:100490002C372C302C2C0D0A0000000041542B422C
:1004A0004C454144564441544145583D22455350E2
:1004B0002D41542D54657374222C22413030322248
:1004C0002C2230313032303330343035222C310D63
:1004D0000A00000041542B424C45414456535441BC
:1004E00052540D0A0000000041542B424C45535019
:1004F000504346473D312C312C372C312C350D0AD9
:100500000000000041542B5359534D53473D340DC7
:100510000A0000002DE9F041022569021948FFF7A1
:100520003EFE194C0026174F66702278002AFCD038
:100530006078144938448039FFF718FE60782178D4
:10054000084460700F48267080218038FFF727FE2E
:100550000EA10C48FFF73AFE38B90DA10948FFF784
:1005600035FE10B96D1EEDB2DFD20BA001F0C8F957
:1005700004490EA001F0C4F9BDE8F0410EA001F05D
:10058000BFB9000028010020000000204F4B0000F0
:100590004552524F5200000073746172742D2D2D1C
:1005A0002D2D2D2D2D2D2D2D2D2D0A004553503364
:1005B000323A2025730A0000656E642D2D2D2D2DF5
:1005C0002D2D2D2D2D2D2D2D0A00000010B5802252
:1005D0000649074800F010FD06A000F011F8BDE83C
:1005E000104040F6B83000F0DBB80000A800002052
:1005F0006000002041542B5253543D300D0A00003E
:1006000010B50446FFF7F4FD82B24FF0FF332146E8
:10061000034800F056FFBDE81040FFF77BBF000025
:100620006000002072B6FEE710B590F8211000229D
:10063000022905D00421816380F82020012010BD0B
:1006400001680B6823F00E030B6001680B6823F050
:1006500001030B6090F84030C46B012101FA03F3F1
:10066000636080F8211080F82020104610BD000043
:100670002DE9F05F90F821100024022903D0042115
:100680008163012485E001680A6822F00E020A6095
:1006900001680A6822F001020A603F4E3E4FB2151F
:1006A000DFF8F4C0DFF8F090DFF8ECA0DFF8E8B096
:1006B000DFF8E4E00168783F13011502ACF1640C47
:1006C000A9F15009AAF13C0AABF1280BAEF1140EC6
:1006D0004FF48018B14227D9B9420ED0614512D0EB
:1006E00049451DD0514518D0594518D0714501D103
:1006F000424615E0294EB14201D1012210E0274EB9
:100700001436B14201D110220AE0244E2836B142FB
:1007100006D0224A3C32914201D11A4600E02A46D4
:100720001E49091F0A602BE0B94213D0614517D05A
:10073000494522D051451DD059451DD0714501D1A3
:1007400042461AE0B14202D14FF0807215E0134EDA
:10075000B14201D1012210E0104E1436B14201D154
:1007600010220AE00D4E2836B14206D00B4A3C3228
:10077000914201D11A4600E02A46074980394A6071
:10078000012180F82110002180F82010416B01B177
:1007900088472046BDE8F09F8000024008040240E0
:1007A00070B5044600F00AF90546601C02D0044802
:1007B0000078044400F002F9401BA042FAD370BD57
:1007C000040000202DE9F84FDFF8C8910024A9F1BA
:1007D000040B23460F2709F1040AABF1040ED1E004
:1007E0000125A54006EA0502AA4276D1DFF8A8C194
:1007F0004E68A6EB0C0866452BD00DDC032E34D0DA
:1008000005DC36B3012E19D0022E2FD11BE0112E9C
:1008100016D0122E2AD119E0B8F5881F19D006DC9F
:10082000B8F5803F15D0B8F5801F1FD111E0B8F59D
:10083000001F0ED0B8F5041F18D10AE0CB6815E0F0
:10084000CB681B1D12E0CB6808330FE0CB680C337C
:100850000CE08B682BB1012B4FF0080303D04561EE
:1008600004E0042302E0056100E00023FF2A01D830
:10087000064601E000F104064FEA840501D9A5F11E
:100880002005D6F8008007FA05FC28EA0C0803FAD0
:1008900005F548EA0508C6F800804D68ED0070D5FA
:1008A0003E4DAE6946F00106AE61AD6924F0030627
:1008B00005F0010500953A4D06EB050CDCF80850F3
:1008C000A607360F07FA06F825EA0805DFF8D480F0
:1008D000404503D14FF0000825E052E0DFF8C88022
:1008E000404502D14FF001081DE0DFF8C0804045CF
:1008F00002D14FF0020816E0DFF8B480404502D183
:100900004FF003080FE0DFF8AC80404502D14FF014
:10091000040808E0DFF8A080404502D14FF0050848
:1009200001E04FF0060808FA06F848EA0508CCF896
:1009300008804D68D9F80060ED024D4601D5164398
:1009400000E096432E604D68DAF80060AD0255462F
:1009500001D5164300E096432E604D68DBF8006039
:10096000AD035D4601D5164300E096432E604D6809
:10097000DEF80060ED03754601D5164300E09643AE
:100980002E60641C0A681646E2407FF429AFBDE879
:10099000F88F000008040140000011100010024010
:1009A0000000014000080140000C0140001001401F
:1009B0000014014000180140001C014001488068FB
:1009C000704700000400002002488168027811444A
:1009D0008160704704000020074810B5016841F0AD
:1009E00010010160032000F075F80F2000F006F8F8
:1009F00000F024F8002010BD0020024070B50D4D1D
:100A000004464FF47A712878B1FBF0F00A4909687E
:100A1000B1FBF0F000F0DCFA48B9102C07D200224C
:100A20002146501E00F036F800206C6070BD012099
:100A300070BD000004000020100000200C4808B524
:100A4000816941F001018161816901F00101009139
:100A5000C16941F08051C161C06900F080500090CF
:100A60000448416821F0E06141F00071416008BD37
:100A70000010024000000140002809DB00F01F02C6
:100A8000012191404009800000F1E020C0F80011F0
:100A900070470000F0B40E4B1B680C46C3F30223F2
:100AA000C3F10705042D00D90425191D072901D21A
:100AB000002300E0DB1E012606FA05F1491E214055
:100AC00099409E40761E16403143F0BC00F028BF8E
:100AD0000CED00E0064900F0070208684FF6FF033E
:100AE000184040EA0220034A1043086070470000A3
:100AF0000CED00E00000FA052DE9F0470F46050077
:100B000061D0434E306800F00700B84209D2306827
:100B100020F0070038433060306800F00700B8422A
:100B200051D128683B4C810712D5400703D5606836
:100B300040F4E06060602878000703D5606840F406
:100B4000605060606068A96820F0F0000843606051
:100B50002878C00728D06868012810D021680228AA
:100B600010D0890700292EDA616821F003010143C2
:100B70006160FFF723FF804641F288390DE021686C
:100B80008903EFE78901EDE7FFF718FFA0EB080104
:100B9000494502D90320BDE8F0876068696800F024
:100BA0000C00B0EB810FEFD1306800F00700B842C5
:100BB0000BD9306820F0070038433060306800F00F
:100BC0000700B84201D00120E5E72878400705D5A5
:100BD0006068E96820F4E0600843606028780007F6
:100BE00006D56068296920F4605040EAC100606061
:100BF00000F038F86168084AC1F30311515CC8403D
:100C00000649086006480068FFF7F8FE0020C2E7C2
:100C10000020024000100240121B000810000020BB
:100C2000080000200448054900684968044AC1F3E7
:100C30000221515CC84070471000002000100240A3
:100C4000221B00080448054900684968044AC1F3AA
:100C5000C221515CC84070471000002000100240C3
:100C6000221B00080E4A51680E4801F00C03042BA9
:100C700011D0082B0FD10C48C1F38343C903C05CCA
:100C80000AD55168084AC1F34041921E515C054A99
:100C90005043B0FBF1F070470449484370470000EF
:100CA0000010024000127A00021B000800093D00FB
:100CB0002DE9F84F040070D02078C04DC00749D00E
:100CC0006868C0F38100012807D06868C0F381001C
:100CD000022809D16868C00306D52868800339D581
:100CE00060680028E7D035E06068B0F5803F0BD041
:100CF00010B1B0F5A02F11D0286820F48030286002
:100D0000286820F4802002E0286840F480302860C1
:100D1000606890B1FFF752FE06460AE0286840F48A
:100D200080202860F0E700BFFFF748FE801B6428A2
:100D300073D828688003F7D50CE0FFF73FFE06461E
:100D400005E000BFFFF73AFE801B6428F0D8286852
:100D50008003F7D420789A4E80074FF001094FF0B6
:100D6000000839D5686810F00C0F07D06868C0F328
:100D70008100022809D16868C00306D4286880076A
:100D800014D52069012808D110E02069B0B1C6F857
:100D90000090FFF713FE074605E00AE1FFF70EFE9D
:100DA000C01B0228C4D828688007F7D52868616965
:100DB00020F0F80040EAC10028600DE0C6F800808D
:100DC000FFF7FCFD074604E0FFF7F8FDC01B022813
:100DD00023D828688007F7D4207800072CD57948D5
:100DE000A169D9B1C0F80090FFF7E8FD074604E01B
:100DF000FFF7E4FDC01B02280FD8686A8007F7D50B
:100E000071484FF4FA510068B0FBF1F0009000BF58
:100E10000098411E0091FAD20EE080E0C0F80080F8
:100E2000FFF7CCFD074604E0FFF7C8FDC01B022812
:100E300075D8686A8007F7D42078400760D5E869DC
:100E40000027C00008D4E86940F08050E861E869F4
:100E5000012700F0805000905C480168C90513D458
:100E60000168834641F480710160FFF7A7FD824667
:100E700006E000BFFFF7A2FDA0EB0A0064284ED8F1
:100E8000DBF80000C005F5D5E06801280AD008B1FC
:100E9000052813D0286A20F001002862286A20F073
:100EA000040002E0286A40F001002862E06841F294
:100EB000883B98B1FFF782FD82460BE0286A40F03C
:100EC00004002862EEE700BFFFF778FDA0EB0A01FF
:100ED00059455AD8286A8007F6D50CE0FFF76EFD11
:100EE000824605E0FFF76AFDA0EB0A0159454CD8A0
:100EF000286A8007F6D41FB1E86920F08050E861C5
:100F0000E06988B36968C1F38101022944D00228ED
:100F1000C6F8608004D0FFF751FD044638E034E0A5
:100F2000FFF74CFD074604E0FFF748FDC01B022811
:100F30002BD828688001F7D4206AB0F5803F05D10E
:100F40006868A16820F4003008436860D4E90801AB
:100F50000843696821F4741108436860C6F860901A
:100F6000FFF72CFD044606E025E000BFFFF726FD55
:100F7000001B022809D828688001F7D51BE000BFB4
:100F8000FFF71CFD001B022802D90320BDE8F88FE3
:100F900028688001F4D40EE00128F7D06868226A3E
:100FA00000F48031914204D1616A00F470108842EB
:100FB00001D00120EAE70020E8E70000001002402D
:100FC00000004242800442421000002000700040B5
:100FD00010B5401EB0F1807F01D3012010BD4FF04D
:100FE000E02460610F21601700F09AFC0020A061EE
:100FF00007202061002010BD18B5034690F842007C
:10100000202801D0022018BD61B15AB10120186317
:1010100000205863184600F017FC0028F3D1196B24
:10102000012901D0012018BD19680A68496800919A
:1010300019680C3151E8002F42F0100241E80024F9
:10104000002CF5D118BD00000068054A904206D179
:1010500004488022017004490448FFF7CDBF70475F
:101060000044004000000020A80000206000002094
:1010700070470000F8B5016804460868CA684B6903
:1010800010F00F0F4FF0000559D003F0010602F4E5
:101090009077374365D0C10705D0D10503D5616C82
:1010A00041F001016164410705D5D90703D0616CA6
:1010B00041F002016164810705D5D90703D0616C55
:1010C00041F004016164010707D502F020013143BA
:1010D00003D0616C41F008016164616C00293AD071
:1010E000800604D5900602D5204600F0F0FA20686C
:1010F0004069616CC0F38010090700D460B32046DA
:1011000000F0BEFA20684069400621D520681430FE
:1011100050E8001F21F0400140E80012002AF5D1FC
:10112000E06BA8B16D494163E06BFFF7A1FA0028BD
:1011300011D0E06B416B01B0BDE8F0400847830679
:101140000FD593060DD52046BDE8F84000F0BFBA94
:101150002046FFF78DFFF8BD2046FFF789FF656445
:10116000F8BD266B2023012E7CD1C6067AD5D60683
:1011700078D508684868009048694FF00206400634
:1011800040D5E16B086840680004000CE8D0A28DEF
:101190008242E5D9E085886920282DD020680C306E
:1011A00050E8001F21F4807140E80012002AF5D1B8
:1011B0002068143050E8001F21F0010140E80012BF
:1011C000002AF5D12068143050E8001F21F04001BA
:1011D00040E80012002AF5D184F8423025632068E7
:1011E0000C3050E8001F21F0100140E80012002AE6
:1011F000F5D1E06BFFF718FA6663A08DE18D401A18
:1012000081B22AE0A08DE18D401A81B2E08D0028E4
:10121000A6D00029A4D022680C3252E8000F20F496
:10122000907042E80007002FF5D12068143050E894
:10123000002F22F0010240E80027002FF5D184F8AA
:101240004230256320680C3050E8002F22F0100255
:1012500040E80023002BF5D166632046FFF7F4FE3B
:10126000F8BDFFE705062BD5150629D594F84100F2
:101270002128F5D1A068B0F5805F01D12069B0B117
:10128000206A411C2162216800784860E08C401E81
:101290000004000CE084E3D12068C16821F08001E3
:1012A000C1602068C16841F04001C160D8E7206A90
:1012B0000088C0F308004860206A801C2062E5E7CF
:1012C0004006CDD55006CBD5CA68204622F0400254
:1012D000CA6084F8413000F044F9C1E77116000893
:1012E00070B5040004D094F84100002510B106E068
:1012F000012070BD84F84050204600F023F82420DF
:1013000084F841002068C16821F40051C160204682
:1013100000F03EFA2068016921F4904101612068E3
:10132000416921F02A0141612068C16841F40051FE
:10133000C1606564202084F8410084F84200656340
:10134000002070BD70B586B0002400940194029412
:1013500003942B4E03682B49022003222A4DB342EB
:1013600021D18B6943F480438B618B6903F4804303
:1013700004938B6943F004038B618969039201F044
:10138000040104910102CDE9001069462846FFF7E7
:1013900019FA2815CDE90004694628460294FFF79A
:1013A00011FA06B070BD194EB342FAD1CB6943F4BD
:1013B0000033CB61CB6903F4003304938B6943F0B2
:1013C00004038B618969039201F0040104910421F3
:1013D000CDE9001069462846FFF7F4F90820CDE969
:1013E0000004694628460294FFF7ECF900221146F2
:1013F0002620FFF74FFB2620FFF73EFBD1E700003A
:101400000038014000100240000801400044004044
:101410002DE9F84F044690F842009A4616460D46CC
:10142000202802D00220BDE8F88FB5B1AEB100206F
:101430006064222184F842102063FFF7BFFAA6857A
:101440008146E685A0684FF480582027404501D1A9
:10145000206920B12E46002529E00120E3E700267F
:1014600025E04B46002220212046CDF800A000F0C8
:1014700006FA18B184F842700320D4E726B1A068B8
:1014800040451AD038B108E020684068C0F3080031
:1014900025F8020B08E0206978B12068406800F068
:1014A0007F0000BF06F8010BE08D401EE085E08D57
:1014B0000028D6D184F84270B5E720684068F1E78B
:1014C00070472DE9F843044690F8410098461646C7
:1014D0000D46202802D00220BDE8F88385B17EB1F8
:1014E00000206064212084F84100FFF767FAA68499
:1014F0008146E684A0682027B0F5805F02D003E033
:101500000120E9E7206910B12E4600250EE00026F3
:101510000CE08021204600F0B2F9A8B9C6B116F857
:10152000010B21684860E08C401EE084E08C4B4653
:101530004FF00002CDF800800028EAD14FF04001C2
:10154000204600F09CF940B184F841700320C3E7C5
:1015500035F8020BC0F30800E3E784F8417000207F
:10156000BAE77047FEE70000094808B5816941F015
:1015700010018161816901F010010091816941F0E0
:1015800004018161806900F00400009008BD000042
:10159000001002400C4810B50A4901604FF4E131D7
:1015A0004160002181600C22C160C0E904128161A8
:1015B000C161FFF795FE002803D0BDE81040FFF79A
:1015C00031B810BD00380140180000200C4810B59B
:1015D0000A4901604FF4E1314160002181600C2231
:1015E000C160C0E904128161C161FFF779FE002882
:1015F00003D0BDE81040FFF715B810BD004400400F
:1016000060000020FEE7FEE770477047FFF7DCB997
:1016100030B58FB028216846FEF7C1FD14210AA815
:10162000FEF7BDFD01210804CDE90010002402945D
:1016300002250491CDE907504FF4E0100990684667
:10164000FFF736FB08B172B6FEE70F20CDE90A05B9
:101650004FF48060CDE90C4002210AA80E94FFF7F8
:101660004BFA002801D072B6FEE70FB030BD7047CC
:1016700010B5406A0021C185C184FFF7F9FC10BD97
:1016800001680C3151E8002F22F4907241E80023E8
:10169000002BF5D10168143151E8002F22F001022E
:1016A00041E80023002BF5D1016B012909D1016824
:1016B0000C3151E8002F22F0100241E80023002BEA
:1016C000F5D1202180F8421000210163704708B550
:1016D00090F84210222901D0022008BD82684FF400
:1016E00080539A4201D1016921B1816A9A421BD08B
:1016F0004AB10AE00268816A5268C2F308020A80AD
:10170000816A891C08E0026972B10268526802F0BD
:101710007F020A70816A491C8162C18D491E0904D9
:10172000090CC18503D01BE002685268F1E701682B
:10173000CA6822F02002CA600168CA6822F4807276
:10174000CA6001684A6922F001024A61202180F8DA
:10175000421000214163026B012A03D0FFF7B0FE63
:10176000002008BD016301680C3151E8002F22F010
:10177000100241E80023002BF5D101680A68D20667
:1017800002D50A6849680091818DFFF75DFCE7E7A3
:1017900070B5044600680169E26821F440511143C4
:1017A00001612169A0680843616908432168CA682A
:1017B00041F20C639A430243CA6020684169A269FE
:1017C00021F44071114341611E492068884202D1D1
:1017D000FFF738FA01E0FFF725FA00EBC00101EB53
:1017E0000012606864218000B2FBF0F3B3FBF1F3F8
:1017F0006FF018067343B2FBF0F5B2FBF0F605EBA1
:101800008305322303EB0515B5FBF1F5B6FBF1F6C5
:1018100005F0F00505EB0615B2FBF0F6B2FBF0F0B3
:10182000B0FBF1F06FF01802504306EB800003EBC1
:101830000010B0FBF1F0216800F00F002844886030
:1018400070BD00000038014081628285C2850021A0
:101850004164222180F84210016921B10168CA68FF
:1018600042F48072CA6001684A6942F001024A612A
:101870000068C16841F02001C160002070472DE977
:10188000F843984617460D460446089E24E0701C0F
:1018900022D0FFF793F8A0EB0800B0421AD8CEB1DF
:1018A0002068C168490717D5802D15D0402D13D069
:1018B0000168C94309070FD40168002540680090FA
:1018C0002046FFF7DDFE0820606484F840500120C8
:1018D000BDE8F8830320FBE72068006835EA0000D4
:1018E00004D00020B842D2D00020F1E70120F9E76F
:1018F0000148FFF7BFBB000060000020FEE70000CA
:101900000FB4054B10B503A9044A029800F027F85C
:1019100010BC5DF814FB0000351A0008140000200C
:101920000907090E002804DB00F1E02080F800140C
:10193000704700F00F0000F1E02080F8141D7047A0
:1019400002E008C8121F08C1002AFAD17047704788
:10195000002001E001C1121F002AFBD170472DE9D0
:10196000F84F9946924688460546002706E0252806
:101970000AD051464A4690476D1C7F1C28780028A3
:10198000F5D13846BDE8F88F002315F8011F184639
:101990002E2915D115F8011F04232A290DD06FF027
:1019A0002F022978A1F13004092C09D800EB80001E
:1019B00002EB400008446D1CF3E758F8040B6D1C63
:1019C0002A78002ADDD0632A07D0732A0FD0104668
:1019D00051464A4690477F1C2AE018F8042B8DF8A0
:1019E000002000218DF801106E46012103E058F817
:1019F000046B4FF0FF315A074FF0000401D409E0A7
:101A0000641C84420BDA8C42FADB325D002AF7D187
:101A100005E0641C8C42FCDB305D0028F9D12744D2
:101A200004E016F8010B51464A469047641EF8D26E
:101A30006D1CA3E713B54FF0FF330122694602483E
:101A4000FFF73FFD00981CBD18000020A6B0FEF770
:101A5000C3FFFFF7DDFDFFF787FDFFF79BFDFFF7F6
:101A6000B5FD19A0FFF74CFFFEF7C0FC80216846CA
:101A7000FEF795FB17A30DF1840C0FCB8CE80F003C
:101A800000241DE020A96846FEF788FCBDF8800010
:101A90000028F7D0694613A0FFF732FF21A9684656
:101AA000FEF788FBBDF880000E3081B26846FEF775
:101AB00091FC6846FEF79CFB01466846FEF76FFB0B
:101AC000ADF88040DEE70000C0B6D1C0BFAACABCF6
:101AD0000A000000424C455F53656E6444617461C6
:101AE0003A000000424C45BDD3CAD5B5BDCAFDBEC3
:101AF000DDB4F2D3A1D6C1B4AEBFDA3A25730A0081
:101B0000010202030405060708090A0B0C0D0E0F5B
:101B1000101000000000000000000102030406078E
:101B20000809000000000102030400004C1B00082B
:101B3000000000201800000040190008641B000885
:101B400018000020100900005019000800000000D3
:101B500001000000100000000000000000127A00E8
:041B60000000000081
:0400000508000131BD
:00000001FF
