:020000040800F2
:100000007004002049010008670F0008890E0008ED
:10001000650F0008E1010008D7110008000000008A
:10002000000000000000000000000000D70F0008E2
:10003000E301000800000000690F0008D90F000864
:100040006301000863010008630100086301000800
:1000500063010008630100086301000863010008F0
:1000600063010008630100086301000863010008E0
:1000700063010008630100086301000863010008D0
:1000800063010008630100086301000863010008C0
:1000900063010008630100086301000863010008B0
:1000A00063010008630100086301000863010008A0
:1000B0006301000863010008630100086301000890
:1000C0006301000863010008630100086301000880
:1000D0006301000863010008630100086301000870
:1000E000E5010008630100086301000863010008DE
:1000F0006301000863010008630100086301000850
:10010000630100086301000863010008630100083F
:10011000630100086301000863010008630100082F
:10012000630100086301000863010008630100081F
:10013000DFF810D000F042F800480047A51300088F
:10014000AFF300807004002006488047064800474F
:10015000FEE7FEE7FEE7FEE7FEE7FEE7FEE7FEE777
:10016000FEE7FEE75B10000831010008D2B201E0B3
:1001700000F8012B491EFBD270470022F6E710B5AC
:1001800013460A4604461946FFF7F0FF204610BD05
:1001900030B50B46014600202022012409E021FA57
:1001A00002F59D4205D303FA02F5491B04FA02F554
:1001B0002844151EA2F10102F1DC30BD064C074DAA
:1001C00006E0E06840F0010394E807009847103427
:1001D000AC42F6D3FFF7B0FF28140008481400081B
:1001E000FEE770474FF4806000F004B872B6FEE797
:1001F00070470000044910B50A68024202D0086046
:10020000FFF7F6FF10BD0000140401402DE9F84F80
:10021000DFF8C8910024A9F1040B23460F2709F148
:10022000040AABF1040ED1E00125A54006EA05025F
:10023000AA4276D1DFF8A8C14E68A6EB0C08664545
:100240002BD00DDC032E34D005DC36B3012E19D0B3
:10025000022E2FD11BE0112E16D0122E2AD119E01A
:10026000B8F5881F19D006DCB8F5803F15D0B8F571
:10027000801F1FD111E0B8F5001F0ED0B8F5041F84
:1002800018D10AE0CB6815E0CB681B1D12E0CB68E3
:1002900008330FE0CB680C330CE08B682BB1012BDB
:1002A0004FF0080303D0456104E0042302E0056138
:1002B00000E00023FF2A01D8064601E000F1040611
:1002C0004FEA840501D9A5F12005D6F8008007FA88
:1002D00005FC28EA0C0803FA05F548EA0508C6F803
:1002E00000804D68ED0070D53E4DAE6946F00106C8
:1002F000AE61AD6924F0030605F0010500953A4DA5
:1003000006EB050CDCF80850A607360F07FA06F8CE
:1003100025EA0805DFF8D480404503D14FF00008F6
:1003200025E052E0DFF8C880404502D14FF00108D7
:100330001DE0DFF8C080404502D14FF0020816E012
:10034000DFF8B480404502D14FF003080FE0DFF83A
:10035000AC80404502D14FF0040808E0DFF8A080EF
:10036000404502D14FF0050801E04FF0060808FAB9
:1003700006F848EA0508CCF808804D68D9F800600E
:10038000ED024D4601D5164300E096432E604D68C0
:10039000DAF80060AD02554601D5164300E09643F9
:1003A0002E604D68DBF80060AD035D4601D5164355
:1003B00000E096432E604D68DEF80060ED03754660
:1003C00001D5164300E096432E60641C0A68164669
:1003D000E2407FF429AFBDE8F88F00000804014037
:1003E0000000111000100240000001400008014010
:1003F000000C0140001001400014014000180140B1
:10040000001C014001488068704700000000002087
:100410000248816802781144816070470000002022
:10042000074810B5016841F010010160032000F099
:1004300075F8022000F006F800F024F8002010BD46
:100440000020024070B50D4D04464FF47A712878B3
:10045000B1FBF0F00A490968B1FBF0F000F045FC8F
:1004600048B9102C07D200222146501E00F036F861
:1004700000206C6070BD012070BD000000000020F5
:100480000C0000200C4808B5816941F00101816130
:10049000816901F001010091C16941F08051C161A0
:1004A000C06900F0805000900448416821F0E0618C
:1004B00041F00071416008BD0010024000000140A1
:1004C000002809DB00F01F02012191404009800053
:1004D00000F1E020C0F8001170470000F0B40E4BAE
:1004E0001B680C46C3F30223C3F10705042D00D992
:1004F0000425191D072901D2002300E0DB1E012677
:1005000006FA05F1491E214099409E40761E16408C
:100510003143F0BC00F070BE0CED00E0064900F085
:10052000070208684FF6FF03184040EA0220034A1A
:1005300010430860704700000CED00E00000FA0571
:10054000014901200862704700000E4210B50146C3
:100550000020284C04292FD00BDC012930D002299F
:1005600029D100F06BF96168C1F38131491C490060
:100570001FE0082920D010291DD161682268D2010E
:1005800019D51D48C1F38342C903805C0AD561684F
:10059000194AC1F34041921E515C184AB2FBF1F175
:1005A000484301E0164948436168490203D44000CA
:1005B0000321B0FBF1F010BDBDE8104000F04EB9D2
:1005C000226AC2F30121012903D1920701D5C80390
:1005D00010BD022905D1626A920702D549F6404052
:1005E00010BD0329FCD121688903F9D54FF22440BD
:1005F00010BD0000001002400014000800127A0034
:1006000000093D002DE9F84305460078354CC00748
:1006100054D0E0690026C00008D4E06940F0805062
:10062000E061E069012600F0805000902E480168EA
:10063000C90512D40168804641F480710160FFF75A
:10064000E1FE074605E000BFFFF7DCFEC01B6428A3
:1006500023D8D8F80000C005F6D5206A10F4407001
:1006600021D0A98801F4407181421CD0206A1F4921
:10067000012220F440700A6000220A602062C00754
:1006800011D0FFF7BFFE074641F2883808E000BFEF
:10069000FFF7B8FEC11B414502D90320BDE8F8832E
:1006A000206A8007F4D5206A696820F44070084306
:1006B00020621EB1E06920F08050E0612878800758
:1006C00005D56068A96820F4404008436060287838
:1006D000C00605D56068696920F480000843606041
:1006E0000020DBE70010024000700040400442425E
:1006F0002DE9F0470F46050061D0434E306800F009
:100700000700B84209D2306820F007003843306053
:10071000306800F00700B84251D128683B4C81078F
:1007200012D5400703D5606840F4E0606060287827
:10073000000703D5606840F4605060606068A96895
:1007400020F0F000084360602878C00728D068686F
:10075000012810D02168022810D0890700292EDA3C
:10076000616821F0030101436160FFF74BFE8046A1
:1007700041F288390DE021688903EFE78901EDE74F
:10078000FFF740FEA0EB0801494502D90320BDE870
:10079000F0876068696800F00C00B0EB810FEFD162
:1007A000306800F00700B8420BD9306820F007002D
:1007B00038433060306800F00700B84201D00120B3
:1007C000E5E72878400705D56068E96820F4E0602F
:1007D000084360602878000706D56068296920F41E
:1007E000605040EAC100606000F038F86168084A73
:1007F000C1F30311515CC84006490860064800680F
:10080000FFF720FE0020C2E7002002400010024057
:10081000101400080C0000200400002004480549C2
:1008200000684968044AC1F30221515CC84070471E
:100830000C00002000100240201400080448054964
:1008400000684968044AC1F3C221515CC84070473E
:100850000C00002000100240201400080E4A5168CD
:100860000E4801F00C03042B11D0082B0FD10C48BB
:10087000C1F38343C903C05C0AD55168084AC1F378
:100880004041921E515C054A5043B0FBF1F0704765
:1008900004494843704700000010024000127A00EB
:1008A000EE13000800093D002DE9F84F040070D058
:1008B0002078C04DC00749D06868C0F38100012886
:1008C00007D06868C0F38100022809D16868C003B6
:1008D00006D52868800339D560680028E7D035E060
:1008E0006068B0F5803F0BD010B1B0F5A02F11D0EB
:1008F000286820F480302860286820F4802002E0F6
:10090000286840F480302860606890B1FFF77AFD75
:1009100006460AE0286840F480202860F0E700BF1F
:10092000FFF770FD801B642873D828688003F7D513
:100930000CE0FFF767FD064605E000BFFFF762FD2C
:10094000801B6428F0D828688003F7D420789A4E5A
:1009500080074FF001094FF0000839D5686810F0A2
:100960000C0F07D06868C0F38100022809D16868BD
:10097000C00306D42868800714D52069012808D14F
:1009800010E02069B0B1C6F80090FFF73BFD0746C4
:1009900005E00AE1FFF736FDC01B0228C4D828682D
:1009A0008007F7D52868616920F0F80040EAC100A7
:1009B00028600DE0C6F80080FFF724FD074604E03C
:1009C000FFF720FDC01B022823D828688007F7D432
:1009D000207800072CD57948A169D9B1C0F80090DA
:1009E000FFF710FD074604E0FFF70CFDC01B0228CF
:1009F0000FD8686A8007F7D571484FF4FA5100683C
:100A0000B0FBF1F0009000BF0098411E0091FAD2B7
:100A10000EE080E0C0F80080FFF7F4FC074604E039
:100A2000FFF7F0FCC01B022875D8686A8007F7D46E
:100A30002078400760D5E8690027C00008D4E8693D
:100A400040F08050E861E869012700F08050009094
:100A50005C480168C90513D40168834641F480717C
:100A60000160FFF7CFFC824606E000BFFFF7CAFC3B
:100A7000A0EB0A0064284ED8DBF80000C005F5D5CD
:100A8000E06801280AD008B1052813D0286A20F0B0
:100A900001002862286A20F0040002E0286A40F081
:100AA00001002862E06841F2883B98B1FFF7AAFC98
:100AB00082460BE0286A40F004002862EEE700BF9F
:100AC000FFF7A0FCA0EB0A0159455AD8286A800715
:100AD000F6D50CE0FFF796FC824605E0FFF792FCA6
:100AE000A0EB0A0159454CD8286A8007F6D41FB1FB
:100AF000E86920F08050E861E06988B36968C1F373
:100B00008101022944D00228C6F8608004D0FFF792
:100B100079FC044638E034E0FFF774FC074604E053
:100B2000FFF770FCC01B02282BD828688001F7D47F
:100B3000206AB0F5803F05D16868A16820F40030D4
:100B400008436860D4E908010843696821F4741116
:100B500008436860C6F86090FFF754FC044606E05E
:100B600025E000BFFFF74EFC001B022809D82868CB
:100B70008001F7D51BE000BFFFF744FC001B0228F3
:100B800002D90320BDE8F88F28688001F4D40EE074
:100B90000128F7D06868226A00F48031914204D1BC
:100BA000616A00F47010884201D00120EAE7002059
:100BB000E8E7000000100240000042428004424288
:100BC0000C00002000700040024850F8210080B264
:100BD00070470000006C0040024800EB810091B2B9
:100BE00001607047006C004070B5040003D0607C69
:100BF000002610B105E0012070BD2674204600F0EB
:100C00003DF802206074204600F052F8042550BBE5
:100C1000204600F0AAF930BB2068416821F00701A6
:100C20004160A06820B11448016821F00101016011
:100C30001148001F0168A26821F46071114301602E
:100C40006068411C04D10120FFF780FC58B1401EB0
:100C50002268C0F303419160216880B2C8602046D9
:100C600000F09EF908B16574C5E7E6730120607372
:100C7000A0736074002070BD306C004008B500683F
:100C8000084988420DD1FFF75BFC0748C16941F074
:100C90000061C161C069054900F000600090012059
:100CA000086008BD00280040001002403C04424299
:100CB00070B504000AD02068416821F00801416045
:100CC000FFF7A0FB05464FF47A7608E0012070BDDF
:100CD000FFF798FB401BB04201D9032070BD20688C
:100CE00040680007F4D5002070BD10B5401EB0F17B
:100CF000807F01D3012010BD4FF0E02460610F21FF
:100D0000601700F079FA0020A06107202061002020
:100D100010BD70B5040004D094F84100002510B156
:100D200006E0012070BD84F84050204600F024F811
:100D3000242084F841002068C16821F40051C1607A
:100D4000204600F0B3F92068016921F49041016167
:100D50002068416921F02A0141612068C16841F49D
:100D60000051C1606564202084F8410084F842008D
:100D70006563002070BD000030B585B0002400948C
:100D800001940294039400681449884224D11448C1
:100D9000816941F480418161816901F4804104915C
:100DA000816941F00401816180690E4D00F0040009
:100DB00004904FF4007000900220019003200390F3
:100DC00069462846FFF722FA2815CDE9000469464E
:100DD00028460294FFF71AFA05B030BD00380140EA
:100DE00000100240000801402DE9F843044690F845
:100DF0004100984616460D46202802D00220BDE844
:100E0000F88385B17EB100206064212084F8410020
:100E1000FFF7F8FAA6848146E684A0682027B0F59B
:100E2000805F02D003E00120E9E7206910B12E467F
:100E300000250EE000260CE08021204600F092F90B
:100E4000A8B9C6B116F8010B21684860E08C401EB5
:100E5000E084E08C4B464FF00002CDF80080002883
:100E6000EAD14FF04001204600F07CF940B184F80F
:100E700041700320C3E735F8020BC0F30800E3E735
:100E800084F841700020BAE7FEE7000000B585B0A5
:100E9000002003901648816941F010018161816949
:100EA00001F010010491816941F080018161816943
:100EB00001F080010491816941F004018161806940
:100EC000694600F0040004904FF4806000900948E7
:100ED0000190022002900848FFF798F900220321B0
:100EE0002820FFF7FBFA2820FFF7EAFA05B000BD3B
:100EF0000010024000001110001C01400A4810B50B
:100F0000084901604FF0FF3141604FF4807181600A
:100F1000FFF76AFE002803D0BDE81040FFF766B96E
:100F200010BD000000280040140000200C4810B53F
:100F30000A4901604FF4E1314160002181600C22D7
:100F4000C160C0E904128161C161FFF7E2FE0028BF
:100F500003D0BDE81040FFF749B910BD003801408B
:100F600028000020FEE7FEE7704770B50446FFF753
:100F700049FA05464FF47A7606E0FFF743FA401B3C
:100F8000B04201D9032070BD206840688006F4D5C6
:100F90002068416841F010014160002070BD0000F0
:100FA00070B504460068416821F010014160FFF708
:100FB00029FA05464FF47A7607E000BFFFF722FAD8
:100FC000401BB04201D9032070BD206840688006F4
:100FD000F4D5002070BD7047FFF71ABA70B596B00F
:100FE00028216846FFF7C9F814210AA8FFF7C5F8B9
:100FF00018210FA8FFF7C1F80920012400904FF431
:101000008030002504940694CDE901050226CDE93F
:1010100007604FF4E01009906846FFF745FC08B1FF
:1010200072B6FEE70F20CDE90A068020CDE90C0557
:1010300002210AA80E95FFF75BFB08B172B6FEE726
:101040004FF40070CDE90F400FA8FFF7DBFA00283E
:1010500001D072B6FEE716B070BD704701680C3162
:1010600051E8002F22F4907241E80023002BF5D1C3
:101070000168143151E8002F22F0010241E80023F9
:10108000002BF5D1016B012909D101680C3151E820
:10109000002F22F0100241E80023002BF5D120217F
:1010A00080F84210002101637047000070B50446CB
:1010B00000680169E26821F440511143016121692E
:1010C000A0680843616908432168CA6841F20C635B
:1010D0009A430243CA6020684169A26921F44071C1
:1010E000114341611E492068884202D1FFF7A6FBE7
:1010F00001E0FFF793FB00EBC00101EB0012606819
:1011000064218000B2FBF0F3B3FBF1F36FF018063B
:101110007343B2FBF0F5B2FBF0F605EB8305322327
:1011200003EB0515B5FBF1F5B6FBF1F605F0F0059F
:1011300005EB0615B2FBF0F6B2FBF0F0B0FBF1F0F8
:101140006FF01802504306EB800003EB0010B0FB79
:10115000F1F0216800F00F002844886070BD0000A5
:10116000003801402DE9F843984617460D460446DD
:10117000089E24E0701C22D0FFF744F9A0EB080081
:10118000B0421AD8CEB12068C168490717D5802D62
:1011900015D0402D13D00168C94309070FD4016849
:1011A0000025406800902046FFF758FF0820606443
:1011B00084F840500120BDE8F8830320FBE7206855
:1011C000006835EA000004D00020B842D2D00020E8
:1011D000F1E70120F9E7FEE70FB4054B10B503A9CD
:1011E000044A029800F028F810BC5DF814FB0000D7
:1011F0008D130008100000200907090E002804DBE9
:1012000000F1E02080F80014704700F00F0000F1BA
:10121000E02080F8141D704702E008C8121F08C1C2
:10122000002AFAD170477047002001E001C1121F67
:10123000002AFBD1704700002DE9FF4F89B09B4683
:101240000446002506E025280BD05A460B99904706
:10125000641C6D1C20780028F5D10DB02846BDE82F
:10126000F08F0027B8460122474900E0074314F8F1
:10127000013F203B02FA03F00842F7D120782E28E4
:1012800019D114F8010F47F004072A280ED06FF087
:101290002F022078A0F1300109290CD808EB880131
:1012A00002EB410100EB0108641CF2E70A98641CA0
:1012B00050F8048B0A9020780028CED0642808D0FB
:1012C000692806D075281ED05A460B9990476D1C88
:1012D00058E00A994FF00A0901C90A91002802DA78
:1012E00040422D2102E0390504D52B218DF8201034
:1012F000012103E0F90704D02021F7E78A4608AE70
:101300000DE00021FAE70A994FF00A0901C90A9194
:10131000F7E74946FEF73CFF303106F8011D00288B
:10132000F7D1ADEB060000F12009780701D44FF0AA
:101330000108C84502DDA8EB090000E00020804656
:10134000002706E008A85A46C05D0B9990476D1C1F
:101350007F1C5745F6DB04E030205A460B99904736
:101360006D1CB8F10001A8F10108F5DC05E016F8E4
:10137000010B5A460B9990476D1CB9F10001A9F178
:101380000109F4DC641C65E70928010013B54FF07E
:10139000FF33012269460248FFF726FD00981CBD75
:1013A00028000020FFF73CF8FFF718FEFFF76EFD5E
:1013B000FFF7A4FDFFF7BAFD40F2574201210648AE
:1013C000FFF70AFC01210448FFF7FEFB014603A0DA
:1013D000FFF702FFFEE700001400002020424B5000
:1013E000B5C4445231203D2025640A0001020203A5
:1013F0000405060708090A0B0C0D0E0F1010010258
:1014000002030405060708090A0B0C0D0E0F101045
:1014100000000000000000000102030406070809A4
:10142000000000000102030448140008000000202E
:1014300014000000181200085C14000814000020BA
:101440005C040000281200080100000010000000E9
:0C1450000000000000127A000000000004
:0400000508000131BD
:00000001FF
