:020000040800F2
:1000000070040020490100082F1200085111000857
:100010002D120008B5010008471600080000000076
:10002000000000000000000000000000471400086D
:10003000B701000800000000311200084914000850
:100040006301000863010008630100086301000800
:1000500063010008630100086301000863010008F0
:1000600063010008630100086301000863010008E0
:1000700063010008630100086301000863010008D0
:1000800063010008630100086301000863010008C0
:1000900063010008630100086301000863010008B0
:1000A00063010008630100086301000863010008A0
:1000B0006301000863010008630100086301000890
:1000C0006301000863010008630100086301000880
:1000D0006301000863010008630100086301000870
:1000E0006301000863010008630100086301000860
:1000F0006301000863010008630100086301000850
:10010000630100086301000863010008630100083F
:10011000630100086301000863010008630100082F
:10012000630100086301000863010008630100081F
:10013000DFF810D000F02CF8004800470D17000839
:10014000AFF300807004002006488047064800474F
:10015000FEE7FEE7FEE7FEE7FEE7FEE7FEE7FEE777
:10016000FEE7FEE7CB14000831010008D2B201E03F
:1001700000F8012B491EFBD270470022F6E710B5AC
:1001800013460A4604461946FFF7F0FF204610BD05
:10019000064C074D06E0E06840F0010394E80700D4
:1001A00098471034AC42F6D3FFF7C6FFFC1700089F
:1001B0001C180008FEE7704772B6FEE770B50446EB
:1001C00000F00AF90546601C02D004480078044497
:1001D00000F002F9401BA042FAD370BD00000020DD
:1001E0002DE9F84FDFF8C8910024A9F1040B23464C
:1001F0000F2709F1040AABF1040ED1E00125A54057
:1002000006EA0502AA4276D1DFF8A8C14E68A6EB3D
:100210000C0866452BD00DDC032E34D005DC36B33C
:10022000012E19D0022E2FD11BE0112E16D0122E26
:100230002AD119E0B8F5881F19D006DCB8F5803F3F
:1002400015D0B8F5801F1FD111E0B8F5001F0ED0F2
:10025000B8F5041F18D10AE0CB6815E0CB681B1D68
:1002600012E0CB6808330FE0CB680C330CE08B68EE
:100270002BB1012B4FF0080303D0456104E00423A8
:1002800002E0056100E00023FF2A01D8064601E0F4
:1002900000F104064FEA840501D9A5F12005D6F83E
:1002A000008007FA05FC28EA0C0803FA05F548EA7D
:1002B0000508C6F800804D68ED0070D53E4DAE696A
:1002C00046F00106AE61AD6924F0030605F00105B4
:1002D00000953A4D06EB050CDCF80850A607360FE2
:1002E00007FA06F825EA0805DFF8D480404503D16F
:1002F0004FF0000825E052E0DFF8C880404502D109
:100300004FF001081DE0DFF8C080404502D14FF0FA
:10031000020816E0DFF8B480404502D14FF0030830
:100320000FE0DFF8AC80404502D14FF0040808E050
:10033000DFF8A080404502D14FF0050801E04FF002
:10034000060808FA06F848EA0508CCF808804D685F
:10035000D9F80060ED024D4601D5164300E0964302
:100360002E604D68DAF80060AD02554601D516439F
:1003700000E096432E604D68DBF80060AD035D46FB
:1003800001D5164300E096432E604D68DEF800600C
:10039000ED03754601D5164300E096432E60641CBC
:1003A0000A681646E2407FF429AFBDE8F88F0000E6
:1003B000080401400000111000100240000001403C
:1003C00000080140000C01400010014000140140F1
:1003D00000180140001C014001488068704700007F
:1003E0000000002002488168027811448160704753
:1003F00000000020074810B5016841F010010160BD
:10040000032000F067F80F2000F006F800F024F851
:10041000002010BD0020024070B50D4D04464FF481
:100420007A712878B1FBF0F00A490968B1FBF0F065
:1004300000F0B9FD48B9102C07D200222146501E09
:1004400000F028F800206C6070BD012070BD000035
:10045000000000200C0000200C4808B5816941F024
:1004600001018161816901F001010091C16941F0DF
:100470008051C161C06900F080500090044841681B
:1004800021F0E06141F00071416008BD00100240C0
:1004900000000140F0B40E4B1B680C46C3F302236E
:1004A000C3F10705042D00D90425191D072901D220
:1004B000002300E0DB1E012606FA05F1491E21405B
:1004C00099409E40761E16403143F0BC01F0E2B8E0
:1004D0000CED00E0064900F0070208684FF6FF0344
:1004E000184040EA0220034A1043086070470000A9
:1004F0000CED00E00000FA05014901200862704798
:1005000000000E420548016841F002010160044804
:10051000016841F00401016030BF70470070004085
:1005200010ED00E010B501460020284C04292FD022
:100530000BDC012930D0022929D100F06BF9616868
:10054000C1F38131491C49001FE0082920D010293E
:100550001DD161682268D20119D51D48C1F38342BB
:10056000C903805C0AD56168194AC1F34041921EF3
:10057000515C184AB2FBF1F1484301E01649484387
:100580006168490203D440000321B0FBF1F010BDC3
:10059000BDE8104000F04EB9226AC2F301210129E2
:1005A00003D1920701D5C80310BD022905D1626AA3
:1005B000920702D549F6404010BD0329FCD12168BD
:1005C0008903F9D54FF2244010BD0000001002400D
:1005D000D417000800127A0000093D002DE9F84305
:1005E00005460078354CC00754D0E0690026C000AD
:1005F00008D4E06940F08050E061E069012600F035
:10060000805000902E480168C90512D401688046C8
:1006100041F480710160FFF7DFFE074605E000BF8F
:10062000FFF7DAFEC01B642823D8D8F80000C00505
:10063000F6D5206A10F4407021D0A98801F44071E9
:1006400081421CD0206A1F49012220F440700A60B8
:1006500000220A602062C00711D0FFF7BDFE0746E6
:1006600041F2883808E000BFFFF7B6FEC11B4145E4
:1006700002D90320BDE8F883206A8007F4D5206AF8
:10068000696820F44070084320621EB1E06920F0E0
:100690008050E0612878800705D56068A96820F45B
:1006A0004040084360602878C00605D560686969E5
:1006B00020F48000084360600020DBE70010024067
:1006C00000700040400442422DE9F0470F4605000B
:1006D00061D0434E306800F00700B84209D230685C
:1006E00020F0070038433060306800F00700B8425F
:1006F00051D128683B4C810712D5400703D560686B
:1007000040F4E06060602878000703D5606840F43A
:10071000605060606068A96820F0F0000843606085
:100720002878C00728D06868012810D021680228DE
:1007300010D0890700292EDA616821F003010143F6
:100740006160FFF749FE804641F288390DE021687B
:100750008903EFE78901EDE7FFF73EFEA0EB080113
:10076000494502D90320BDE8F0876068696800F058
:100770000C00B0EB810FEFD1306800F00700B842F9
:100780000BD9306820F0070038433060306800F043
:100790000700B84201D00120E5E72878400705D5D9
:1007A0006068E96820F4E06008436060287800072A
:1007B00006D56068296920F4605040EAC100606095
:1007C00000F038F86168084AC1F30311515CC84071
:1007D0000649086006480068FFF71EFE0020C2E7D1
:1007E0000020024000100240E41700080C00002026
:1007F000040000200448054900684968044AC1F320
:100800000221515CC84070470C00002000100240DB
:10081000F41700080448054900684968044AC1F310
:10082000C221515CC84070470C00002000100240FB
:10083000F41700080E4A51680E4801F00C03042B0F
:1008400011D0082B0FD10C48C1F38343C903C05CFE
:100850000AD55168084AC1F34041921E515C054ACD
:100860005043B0FBF1F07047044948437047000023
:100870000010024000127A00C217000800093D0073
:100880002DE9F84F040070D02078C04DC00749D042
:100890006868C0F38100012807D06868C0F3810050
:1008A000022809D16868C00306D52868800339D5B5
:1008B00060680028E7D035E06068B0F5803F0BD075
:1008C00010B1B0F5A02F11D0286820F48030286036
:1008D000286820F4802002E0286840F480302860F6
:1008E000606890B1FFF778FD06460AE0286840F49A
:1008F00080202860F0E700BFFFF76EFD801B6428B2
:1009000073D828688003F7D50CE0FFF765FD06462D
:1009100005E000BFFFF760FD801B6428F0D8286861
:100920008003F7D420789A4E80074FF001094FF0EA
:10093000000839D5686810F00C0F07D06868C0F35C
:100940008100022809D16868C00306D4286880079E
:1009500014D52069012808D110E02069B0B1C6F88B
:100960000090FFF739FD074605E00AE1FFF734FD87
:10097000C01B0228C4D828688007F7D52868616999
:1009800020F0F80040EAC10028600DE0C6F80080C1
:10099000FFF722FD074604E0FFF71EFDC01B0228FB
:1009A00023D828688007F7D4207800072CD5794809
:1009B000A169D9B1C0F80090FFF70EFD074604E029
:1009C000FFF70AFDC01B02280FD8686A8007F7D519
:1009D00071484FF4FA510068B0FBF1F0009000BF8D
:1009E0000098411E0091FAD20EE080E0C0F800802D
:1009F000FFF7F2FC074604E0FFF7EEFCC01B0228FD
:100A000075D8686A8007F7D42078400760D5E86910
:100A10000027C00008D4E86940F08050E861E86928
:100A2000012700F0805000905C480168C90513D48C
:100A30000168834641F480710160FFF7CDFC824676
:100A400006E000BFFFF7C8FCA0EB0A0064284ED800
:100A5000DBF80000C005F5D5E06801280AD008B130
:100A6000052813D0286A20F001002862286A20F0A7
:100A7000040002E0286A40F001002862E06841F2C8
:100A8000883B98B1FFF7A8FC82460BE0286A40F04B
:100A900004002862EEE700BFFFF79EFCA0EB0A010E
:100AA00059455AD8286A8007F6D50CE0FFF794FC20
:100AB000824605E0FFF790FCA0EB0A0159454CD8AF
:100AC000286A8007F6D41FB1E86920F08050E861F9
:100AD000E06988B36968C1F38101022944D0022822
:100AE000C6F8608004D0FFF777FC044638E034E0B5
:100AF000FFF772FC074604E0FFF76EFCC01B0228FC
:100B00002BD828688001F7D4206AB0F5803F05D142
:100B10006868A16820F4003008436860D4E90801DF
:100B20000843696821F4741108436860C6F860904E
:100B3000FFF752FC044606E025E000BFFFF74CFC3F
:100B4000001B022809D828688001F7D51BE000BFE8
:100B5000FFF742FC001B022802D90320BDE8F88FF2
:100B600028688001F4D40EE00128F7D06868226A72
:100B700000F48031914204D1616A00F4701088421F
:100B800001D00120EAE70020E8E700000010024061
:100B900000004242800442420C00002000700040ED
:100BA0002DE9F04791460C465FEA00084AD084B32D
:100BB000D8F800004068400744D4404600F0E0FB0D
:100BC0004FF461620546B0FBF2F1B0FBF2F302FBB9
:100BD00013503C23B0FBF3F0B5FBF2F6607002FB60
:100BE0001650B0FBF3F203FB1200A070182931D3AA
:100BF0001820B1FBF0F7B1FBF0F200FB12102070EF
:100C0000404600F0B6FB411C04D0A84202D9461B66
:100C100002E017E04FF0FF36A7EB071000EB4000B3
:100C2000C0EB001005EBC0152946404600F0F7FB6D
:100C300040B9701C01D0711900E03146404600F007
:100C4000DAFB10B10120BDE8F0873946404600F0DC
:100C500004FB00E02170B9F1000F0BD0207800F008
:100C6000F1FA2070607800F0EDFA6070A07800F082
:100C7000E9FAA0700020E6E770B5040003D0607CBC
:100C8000002610B105E0012070BD2674204600F05A
:100C90003DF802206074204600F068F9042550BB3E
:100CA000204600F031FB30BB2068416821F007018D
:100CB0004160A06820B11448016821F00101016081
:100CC0001148001F0168A26821F46071114301609E
:100CD0006068411C04D10120FFF724FC58B1401E7C
:100CE0002268C0F303419160216880B2C860204649
:100CF00000F024FB08B16574C5E7E673012060735A
:100D0000A0736074002070BD306C004008B50068AE
:100D1000084988420DD1FFF7EFFB0748C16941F050
:100D20000061C161C069054900F0006000900120C8
:100D3000086008BD00280040001002403C04424208
:100D40002DE9F8434FF0000617460D4604000096C3
:100D50000FD075B1207C01280ED04FF0010984F826
:100D6000109002206074002269462046FFF718FFA9
:100D700020B10120BDE8F8830220FBE79DF80000C8
:100D80004FF4616148439DF80110C1EB011100EB84
:100D900081009DF8021000EB01082878E7B100F00F
:100DA00048FA4FF4616100FB01F7687800F041FAFE
:100DB000C0EB001007EB8007A87800F03AFA39186A
:100DC000414501D20C480144204600F014FB70B1AB
:100DD000042060742674CCE74FF46161484369785D
:100DE000C1EB011100EB8100A9780144E8E784F828
:100DF000119026740020BDE7805101002DE9F041DB
:100E00000D4604003BD0C5B3207C01283AD04FF0FA
:100E1000010884F8108002206074E87872B300F052
:100E200008FAE073687800F004FA6073A87800F0BC
:100E300000FAA073C2B2617BE07B00F0B1FA2073CC
:100E40002870204600F09CFA4FF46161B0FBF1F18C
:100E5000002518292DD91822B1FBF2F1A1EB0111BF
:100E600001EB4101C1EB011100EBC11631462046F7
:100E700000F0D5FA0427C8B90BE000E004E0012037
:100E8000BDE8F0810220FBE7E07368786073A87822
:100E9000CFE7204600F06DFA411C0AD0B04208D2DC
:100EA00006490144204600F0A6FA10B16774257483
:100EB000E5E784F8118025740020E1E78051010006
:100EC0002DE9F0410D46040024D01DB3207C0128FB
:100ED00023D04FF0010884F8108002206074287835
:100EE000EAB100F0A6F94FF4616100FB01F6687801
:100EF00000F09FF9C0EB001006EB8006A87800F028
:100F000098F935182946204600F089FA002604276A
:100F100010BB0FE00120BDE8F0810220FBE74FF499
:100F2000616148436978C1EB011100EB8100A97848
:100F30004518E7E72068416821F005014160204637
:100F400000F017FA411C0AD0A84208D20649014411
:100F5000204600F050FA10B167742674DAE784F87E
:100F6000118026740020D6E78051010070B504007E
:100F70000AD02068416821F008014160FFF72CFA8F
:100F800005464FF47A7608E0012070BDFFF724FA99
:100F9000401BB04201D9032070BD206840680007A3
:100FA000F4D5002070BD10B5401EB0F1807F01D394
:100FB000012010BD4FF0E02460610F21601700F0A8
:100FC00069FB0020A06107202061002010BD4FF0C8
:100FD000E020016921F002010161704770B5040051
:100FE00004D094F84100002510B106E0012070BD46
:100FF00084F84050204600F023F8242084F8410073
:101000002068C16821F40051C160204600F086FAD2
:101010002068016921F4904101612068416921F053
:101020002A0141612068C16841F40051C1606564D2
:10103000202084F8410084F842006563002070BDE0
:1010400030B585B0002400940194029403940068A4
:101050001449884224D11448816941F48041816156
:10106000816901F480410491816941F00401816149
:1010700080690E4D00F0040004904FF40070009061
:10108000022001900320039069462846FFF7A8F844
:101090002815CDE90004694628460294FFF7A0F818
:1010A00005B030BD0038014000100240000801408A
:1010B0002DE9F843044690F84100984616460D463F
:1010C000202802D00220BDE8F88385B17EB100203F
:1010D0006064212084F84100FFF77EF9A6848146F0
:1010E000E684A0682027B0F5805F02D003E00120ED
:1010F000E9E7206910B12E4600250EE000260CE03D
:101100008021204600F066FAA8B9C6B116F8010B96
:1011100021684860E08C401EE084E08C4B464FF034
:101120000002CDF800800028EAD14FF040012046AF
:1011300000F050FA40B184F841700320C3E735F85D
:10114000020BC0F30800E3E784F841700020BAE71F
:10115000FEE70000094808B5816941F0100181618E
:10116000816901F010010091816941F00401816100
:10117000806900F00400009008BD000000100240EB
:101180001CB500241A480194184900940160611E9E
:1011900041604FF480718160FFF76EFD08B1FFF789
:1011A0000BF814208DF804008DF805408DF80640EA
:1011B000002201A90E48FFF783FE08B1FEF7FCFFED
:1011C00005208DF8000010208DF8010012208DF808
:1011D000020018208DF80300002269460448FFF73A
:1011E0000DFE002801D0FEF7E7FF1CBD00280040DF
:1011F000140000200C4810B50A4901604FF4E13199
:101200004160002181600C22C160C0E9041281614B
:10121000C161FFF7E3FE002803D0BDE81040FEF7F0
:10122000CBBF10BD0038014028000020FEE7FEE7DC
:101230007047010901EB810100F00F0000EB410054
:10124000C0B27047002102E00A38C0B2491C0A2827
:10125000FAD2090740EA116070472DE9F0410446CF
:101260000025C07B627BA37B42E0012A16D0032AC3
:1012700014D0052A12D0072A10D0082A0ED00A2A24
:101280000CD00C2A0AD0042A10D0062A0ED0092A23
:101290000CD00B2A0AD0022A0DD028E01F2B0CD329
:1012A0000C2A05D101221346401C20E01E2B04D33A
:1012B0000123521C1BE01C2B02D203F1010316E098
:1012C00011D183B29E0710D16426B3FBF6F706FB5B
:1012D000173636B94FF4C876B3FBF6F706FB17336B
:1012E0001BB91D2303E01D2B01D1032201236D1C1B
:1012F0008D42BAD3D1B2E0736173DAB2A27300F057
:101300004FF82073BDE8F08170B50446FFF764F82C
:1013100005464FF47A7606E0FFF75EF8401BB042D0
:1013200001D9032070BD206840688006F4D520688C
:10133000416841F010014160002070BD70B5044665
:101340000068416821F010014160FFF745F805464B
:101350004FF47A7607E000BFFFF73EF8401BB0423B
:1013600001D9032070BD206840688006F4D50020B4
:1013700070BD0168086A496A89B241EA0040704755
:10138000006881698AB2C1698BB2816989B28A4277
:1013900003D0C06961F31F40704743EA02407047C1
:1013A000F0B56424C1EBC1030927A500072603EBB0
:1013B00001130329B3FBF7F100F5FA60114401446E
:1013C0000AD2401EB0FBF4F201EB9001B0FBF5F045
:1013D000891A0844001D08E0B0FBF4F201EB90010B
:1013E000B0FBF5F0891A0844801CB0FBF6F106FB4F
:1013F0001100C0B2F0BD70B50D4606460024FFF7DF
:1014000083FF48B93168280C08623168A8B2486285
:101410003046FFF793FF00B10124204670BD70B540
:101420000D4606460024FFF76FFF48B93168280CC7
:1014300088613168A8B2C8613046FFF77FFF00B10C
:101440000124204670BD7047FEF7CCBF70B596B042
:1014500028216846FEF791FE14210AA8FEF78DFEAA
:1014600018210FA8FEF789FE012405200025009011
:10147000CDE902544FF48030019002260494CDE966
:1014800007604FF4E01009906846FFF7F9F908B1DA
:1014900072B6FEE70F20CDE90A068020CDE90C05E3
:1014A00002210AA80E95FFF70FF908B172B6FEE700
:1014B0004FF48070CDE90F400FA8FFF78FF8002898
:1014C00001D072B6FEE716B070BD704701680C31EE
:1014D00051E8002F22F4907241E80023002BF5D14F
:1014E0000168143151E8002F22F0010241E8002385
:1014F000002BF5D1016B012909D101680C3151E8AC
:10150000002F22F0100241E80023002BF5D120210A
:1015100080F84210002101637047000070B5044656
:1015200000680169E26821F44051114301612169B9
:10153000A0680843616908432168CA6841F20C63E6
:101540009A430243CA6020684169A26921F440714C
:10155000114341611E492068884202D1FFF75AF9C0
:1015600001E0FFF747F900EBC00101EB00126068F2
:1015700064218000B2FBF0F3B3FBF1F36FF01806C7
:101580007343B2FBF0F5B2FBF0F605EB83053223B3
:1015900003EB0515B5FBF1F5B6FBF1F605F0F0052B
:1015A00005EB0615B2FBF0F6B2FBF0F0B0FBF1F084
:1015B0006FF01802504306EB800003EB0010B0FB05
:1015C000F1F0216800F00F002844886070BD000031
:1015D000003801402DE9F843984617460D46044669
:1015E000089E24E0701C22D0FEF7F6FEA0EB080057
:1015F000B0421AD8CEB12068C168490717D5802DEE
:1016000015D0402D13D00168C94309070FD40168D4
:101610000025406800902046FFF758FF08206064CE
:1016200084F840500120BDE8F8830320FBE72068E0
:10163000006835EA000004D00020B842D2D0002073
:10164000F1E70120F9E7FEE73EB50446002202A9D2
:101650000B48FFF7A5FA9DF808008DF800009DF8EB
:1016600009008DF801009DF80A00641E20448DF8E1
:101670000200002269460248FFF762FB3EBD0000FF
:1016800014000020014A024900F023B8F5160008B2
:10169000100000200907090E002804DB00F1E020FB
:1016A00080F80014704700F00F0000F1E02080F88F
:1016B000141D704702E008C8121F08C1002AFAD1A1
:1016C00070477047002001E001C1121F002AFBD1C2
:1016D00070472DE9F04116460F460446002503E009
:1016E0003946B047641C6D1C20780028F8D1284684
:1016F000BDE8F08113B54FF0FF330122694602487F
:10170000FFF7D6FC00981CBD28000020FEF772FEF3
:10171000FFF79CFEFFF71EFDFFF732FDFFF76AFDA6
:1017200014A0FFF7AFFF154C6068C0070BD014A0E2
:10173000FFF7A8FF206840F004002060206840F018
:101740000800206002E013A0FFF79CFF41F27074D4
:1017500013A0FFF797FF2046FEF730FD0720FFF7A5
:1017600073FF0A20FEF72AFDFFF731FCFEF7CAFEE1
:10177000EEE7000073746172740A000000700040AC
:10178000B4D3B4FDBBFAC4A3CABDB1BBBBBDD0D1F9
:101790000A000000B4D3B8B4CEBBC6F4B6AF0A009A
:1017A000B4FAC2EBD6B4D0D0CDEAB3C9203673BAFE
:1017B000F3BDF8C8EBB4FDBBFAC4A3CABD0A000070
:1017C000010202030405060708090A0B0C0D0E0F9F
:1017D0001010010202030405060708090A0B0C0D8C
:1017E0000E0F1010000000000000000001020304B2
:1017F0000607080900000000010203041C18000885
:101800000000002014000000B41600083018000882
:10181000140000205C040000C41600080100000051
:10182000100000000000000000127A00000000001C
:0400000508000131BD
:00000001FF
