:020000040800F2
:1000000088040020490100085711000891100008D9
:1000100055110008E10100083B1300080000000032
:100020000000000000000000000000005B1100085C
:10003000E301000800000000591100085D110008EC
:100040006301000863010008630100086301000800
:1000500063010008630100086301000863010008F0
:1000600063010008630100086301000863010008E0
:1000700063010008630100086301000863010008D0
:1000800063010008630100086301000863010008C0
:1000900063010008630100086301000863010008B0
:1000A00063010008630100086301000863010008A0
:1000B0006301000863010008630100086301000890
:1000C0006301000863010008630100086301000880
:1000D0006301000863010008630100086301000870
:1000E0006301000863010008630100086301000860
:1000F0006301000863010008630100086301000850
:10010000630100086301000863010008630100083F
:10011000630100086301000863010008630100082F
:10012000630100086301000863010008630100081F
:10013000DFF810D000F042F8004800471916000818
:10014000AFF3008088040020064880470648004737
:10015000FEE7FEE7FEE7FEE7FEE7FEE7FEE7FEE777
:10016000FEE7FEE7BF11000831010008D2B201E04E
:1001700000F8012B491EFBD270470022F6E710B5AC
:1001800013460A4604461946FFF7F0FF204610BD05
:1001900030B50B46014600202022012409E021FA57
:1001A00002F59D4205D303FA02F5491B04FA02F554
:1001B0002844151EA2F10102F1DC30BD064C074DAA
:1001C00006E0E06840F0010394E807009847103427
:1001D000AC42F6D3FFF7B0FF3417000854170008FD
:1001E000FEE7704772B6FEE7F0B590F8205004685D
:1001F000A468012D05D0022D03D0416A41F480216D
:1002000057E014F0406F01D1E5004FD5C4F301640D
:100210000125A5401D608D684FF4C0739DB1CE6867
:1002200035434E6845EAC605066803EB0417F551E9
:100230004FF4C275076805EB04150E697E51097D00
:10024000012905D009E00E88CD6845EA4655EBE75F
:1002500001684E5946F480764E511179D579567918
:1002600041EA056195792D0445EA062529434FF4B5
:10027000C676056806EB0416A9511178D57841EACF
:100280000561957852782D0445EA022211434FF416
:10029000C475026805EB04155151006803EB0411A5
:1002A000425842F0010242500020F0BD416A41F440
:1002B000001141620120F0BD10B590F820300268B5
:1002C000012B07D0022B05D0416A41F48021416205
:1002D000012010BDD2F8000240F00100C2F8000277
:1002E000087D00F01F0301209840D2F81C328343A0
:1002F000C2F81C32CB69B3B9D2F80C328343C2F8CE
:100300000C328C894B6864F31F434C6902EBC404C4
:10031000C4F840320C890B6864F31F434C6902EB4C
:10032000C404C4F84432CB69012B16D1D2F80C3284
:100330000343C2F80C320C884B6864F31F434C69CA
:1003400002EBC404C4F840320C89CB6864F31F4349
:100350004C6902EBC404C4F844328B69002BD2F818
:1003600004320FD053EA0003C2F804320B69002BA9
:10037000D2F8143208D00343C2F81432096A0129B2
:1003800004D008E08343EFE78343F5E7D2F81C127B
:100390000143C2F81C12D2F8000220F00100C2F89A
:1003A0000002002010BD00000246002092F820301C
:1003B000012B01D0022B05D1106821B1D0F810001B
:1003C00000F003007047C068FAE770B590F820406D
:1003D000012C05D0022C03D0416A41F4802128E091
:1003E000046809B32469A40720D04FF4D8740568C1
:1003F00004EB01142D5915F00405956005682D597D
:100400001AD0ED08556005682C5904F00204D46038
:100410004FF4DA74056804EB01142E5906F00F0648
:10042000082E0CD308250DE0E468DCE7416A41F4AE
:1004300000114162012070BD6D0D1560E3E72D597B
:1004400005F00F05156105682D59C5F30725956160
:1004500005682C59240C54614FF4DC72046802EBDB
:100460000112A4581C700468A458240A5C70046823
:10047000A458240C9C700468A258120EDA704FF431
:10048000DE72046802EB0112A4581C710468A458BF
:10049000240A5C710468A458240C9C710468A25856
:1004A000120EDA71006829B1016941F02001016181
:1004B000002070BDC16841F02001C160F8E702462C
:1004C000002092F82010012901D002290CD11168D6
:1004D0008A68520100D501208A68120100D5401CAB
:1004E0008968C90000D5401C704770B5040003D06E
:1004F00094F8200010B104E0012070BD204600F007
:1005000081F82068016841F00101016000F0F6F90E
:100510000546052604E000F0F1F9401B0A2811D831
:1005200020684068C007F6D02068016821F0020109
:10053000016000F0E3F905460BE000F0DFF9401B35
:100540000A2806D9606A40F40030606284F82060AE
:10055000D2E7206840688007EFD4207E0128206819
:1005600001683DD021F080010160607E0128206893
:10057000016838D021F040010160A07E0128206888
:10058000016833D021F020010160E07E012820685D
:1005900001682ED041F010010160207F0128206801
:1005A000016829D021F008010160607F01282068DE
:1005B000016824D021F004010160D4E9020108435C
:1005C000D4E90412114308436168491E08432168B5
:1005D000C86100206062012084F82000002070BD06
:1005E00041F08001C0E741F04001C5E741F0200142
:1005F000CAE721F01001CFE741F00801D4E741F04C
:100600000401D9E710B586B0002100910191029153
:1006100003910068184988422BD11848C16941F0FC
:100620000071C161C16901F000710491816941F0FB
:10063000080181618069124C00F0080004904FF4B9
:10064000807000906946204600F05CF860150090CC
:1006500002200190032003906946204600F052F8E2
:100660000848416821F4C04141F0E06141F4804113
:10067000416006B010BD0000006400400010024060
:10068000000C01400000014070B5044690F82000C5
:10069000012804D0606A40F40020606218E0022063
:1006A00084F820002068016821F00101016000F059
:1006B00025F905460EE000BF00F020F9401B0A288E
:1006C00008D9606A40F400306062052084F8200098
:1006D000012070BD20684068C007EDD1606270BD28
:1006E00070B5044600F00AF90546601C02D00448C3
:1006F0000078044400F002F9401BA042FAD370BD18
:10070000000000202DE9F84FDFF8C8910024A9F17E
:10071000040B23460F2709F1040AABF1040ED1E0C4
:100720000125A54006EA0502AA4276D1DFF8A8C154
:100730004E68A6EB0C0866452BD00DDC032E34D09A
:1007400005DC36B3012E19D0022E2FD11BE0112E5D
:1007500016D0122E2AD119E0B8F5881F19D006DC60
:10076000B8F5803F15D0B8F5801F1FD111E0B8F55E
:10077000001F0ED0B8F5041F18D10AE0CB6815E0B1
:10078000CB681B1D12E0CB6808330FE0CB680C333D
:100790000CE08B682BB1012B4FF0080303D04561AF
:1007A00004E0042302E0056100E00023FF2A01D8F1
:1007B000064601E000F104064FEA840501D9A5F1DF
:1007C0002005D6F8008007FA05FC28EA0C0803FA91
:1007D00005F548EA0508C6F800804D68ED0070D5BB
:1007E0003E4DAE6946F00106AE61AD6924F00306E8
:1007F00005F0010500953A4D06EB050CDCF80850B4
:10080000A607360F07FA06F825EA0805DFF8D480B0
:10081000404503D14FF0000825E052E0DFF8C880E2
:10082000404502D14FF001081DE0DFF8C08040458F
:1008300002D14FF0020816E0DFF8B480404502D143
:100840004FF003080FE0DFF8AC80404502D14FF0D5
:10085000040808E0DFF8A080404502D14FF0050809
:1008600001E04FF0060808FA06F848EA0508CCF857
:1008700008804D68D9F80060ED024D4601D5164359
:1008800000E096432E604D68DAF80060AD025546F0
:1008900001D5164300E096432E604D68DBF80060FA
:1008A000AD035D4601D5164300E096432E604D68CA
:1008B000DEF80060ED03754601D5164300E096436F
:1008C0002E60641C0A681646E2407FF429AFBDE83A
:1008D000F88F0000080401400000111000100240D1
:1008E0000000014000080140000C014000100140E0
:1008F0000014014000180140001C014001488068BC
:10090000704700000000002002488168027811440E
:100910008160704700000020074810B5016841F071
:1009200010010160032000F067F80F2000F006F8C6
:1009300000F024F8002010BD0020024070B50D4DDD
:1009400004464FF47A712878B1FBF0F00A4909683F
:10095000B1FBF0F000F0CEFA48B9102C07D200221B
:100960002146501E00F028F800206C6070BD012068
:1009700070BD0000000000200C0000200C4808B5ED
:10098000816941F001018161816901F001010091FA
:10099000C16941F08051C161C06900F08050009090
:1009A0000448416821F0E06141F00071416008BDF8
:1009B0000010024000000140F0B40E4B1B680C46D2
:1009C000C3F30223C3F10705042D00D90425191D23
:1009D000072901D2002300E0DB1E012606FA05F1FB
:1009E000491E214099409E40761E16403143F0BC7E
:1009F00000F00ABD0CED00E0064900F007020868AF
:100A00004FF6FF03184040EA0220034A10430860F3
:100A1000704700000CED00E00000FA052DE9F047FA
:100A20000F46050061D0434E306800F00700B84221
:100A300009D2306820F0070038433060306800F099
:100A40000700B84251D128683B4C810712D54007B6
:100A500003D5606840F4E06060602878000703D543
:100A6000606840F4605060606068A96820F0F00041
:100A7000084360602878C00728D06868012810D033
:100A80002168022810D0890700292EDA616821F038
:100A9000030101436160FFF731FF804641F288396D
:100AA0000DE021688903EFE78901EDE7FFF726FFF5
:100AB000A0EB0801494502D90320BDE8F087606832
:100AC000696800F00C00B0EB810FEFD1306800F0E6
:100AD0000700B8420BD9306820F007003843306077
:100AE000306800F00700B84201D00120E5E728781F
:100AF000400705D56068E96820F4E060084360605D
:100B00002878000706D56068296920F4605040EA1B
:100B1000C100606000F038F86168084AC1F3031151
:100B2000515CC8400649086006480068FFF706FFA8
:100B30000020C2E700200240001002401A170008FF
:100B40000C000020040000200448054900684968A2
:100B5000044AC1F30221515CC84070470C000020D8
:100B6000001002402A170008044805490068496837
:100B7000044AC1F3C221515CC84070470C000020F8
:100B8000001002402A1700080E4A51680E4801F072
:100B90000C03042B11D0082B0FD10C48C1F3834355
:100BA000C903C05C0AD55168084AC1F34041921E8E
:100BB000515C054A5043B0FBF1F07047044948438B
:100BC000704700000010024000127A000A17000867
:100BD00000093D002DE9F84F040070D02078C04D89
:100BE000C00749D06868C0F38100012807D0686851
:100BF000C0F38100022809D16868C00306D52868BF
:100C0000800339D560680028E7D035E06068B0F52A
:100C1000803F0BD010B1B0F5A02F11D0286820F480
:100C200080302860286820F4802002E0286840F4A2
:100C300080302860606890B1FFF760FE06460AE0E9
:100C4000286840F480202860F0E700BFFFF756FED8
:100C5000801B642873D828688003F7D50CE0FFF761
:100C60004DFE064605E000BFFFF748FE801B6428E6
:100C7000F0D828688003F7D420789A4E80074FF088
:100C800001094FF0000839D5686810F00C0F07D043
:100C90006868C0F38100022809D16868C00306D4DF
:100CA0002868800714D52069012808D110E0206940
:100CB000B0B1C6F80090FFF721FE074605E00AE153
:100CC000FFF71CFEC01B0228C4D828688007F7D590
:100CD0002868616920F0F80040EAC10028600DE052
:100CE000C6F80080FFF70AFE074604E0FFF706FE9D
:100CF000C01B022823D828688007F7D42078000773
:100D00002CD57948A169D9B1C0F80090FFF7F6FD5C
:100D1000074604E0FFF7F2FDC01B02280FD8686AFF
:100D20008007F7D571484FF4FA510068B0FBF1F035
:100D3000009000BF0098411E0091FAD20EE080E0C2
:100D4000C0F80080FFF7DAFD074604E0FFF7D6FDA4
:100D5000C01B022875D8686A8007F7D4207840073E
:100D600060D5E8690027C00008D4E86940F08050E9
:100D7000E861E869012700F0805000905C48016854
:100D8000C90513D40168834641F480710160FFF7FF
:100D9000B5FD824606E000BFFFF7B0FDA0EB0A00FC
:100DA00064284ED8DBF80000C005F5D5E0680128BE
:100DB0000AD008B1052813D0286A20F00100286263
:100DC000286A20F0040002E0286A40F0010028624E
:100DD000E06841F2883B98B1FFF790FD82460BE056
:100DE000286A40F004002862EEE700BFFFF786FDA6
:100DF000A0EB0A0159455AD8286A8007F6D50CE0BD
:100E0000FFF77CFD824605E0FFF778FDA0EB0A01C5
:100E100059454CD8286A8007F6D41FB1E86920F0FC
:100E20008050E861E06988B36968C1F381010229F3
:100E300044D00228C6F8608004D0FFF75FFD044666
:100E400038E034E0FFF75AFD074604E0FFF756FDAF
:100E5000C01B02282BD828688001F7D4206AB0F57F
:100E6000803F05D16868A16820F4003008436860BD
:100E7000D4E908010843696821F4741108436860E3
:100E8000C6F86090FFF73AFD044606E025E000BF93
:100E9000FFF734FD001B022809D828688001F7D528
:100EA0001BE000BFFFF72AFD001B022802D9032028
:100EB000BDE8F88F28688001F4D40EE00128F7D04F
:100EC0006868226A00F48031914204D1616A00F4BA
:100ED0007010884201D00120EAE70020E8E7000016
:100EE0000010024000004242800442420C000020F8
:100EF0000070004010B5401EB0F1807F01D301208A
:100F000010BD4FF0E02460610F21601700F07CFA03
:100F10000020A06107202061002010BD70B50400F2
:100F200004D094F84100002510B106E0012070BD06
:100F300084F84050204600F023F8242084F8410033
:100F40002068C16821F40051C160204600F060F9BA
:100F50002068016921F4904101612068416921F014
:100F60002A0141612068C16841F40051C160656493
:100F7000202084F8410084F842006563002070BDA1
:100F800030B585B000240094019402940394006865
:100F90001449884224D11448816941F48041816117
:100FA000816901F480410491816941F0040181610A
:100FB00080690E4D00F0040004904FF40070009022
:100FC000022001900320039069462846FFF79AFB10
:100FD0002815CDE90004694628460294FFF792FBE4
:100FE00005B030BD0038014000100240000801404B
:100FF0002DE9F843044690F84100984616460D4600
:10100000202802D00220BDE8F88385B17EB10020FF
:101010006064212084F84100FFF770FCA6848146BB
:10102000E684A0682027B0F5805F02D003E00120AD
:10103000E9E7206910B12E4600250EE000260CE0FD
:101040008021204600F040F9A8B9C6B116F8010B7E
:1010500021684860E08C401EE084E08C4B464FF0F5
:101060000002CDF800800028EAD14FF04001204670
:1010700000F02AF940B184F841700320C3E735F845
:10108000020BC0F30800E3E784F841700020BAE7E0
:10109000FEE70000114810B50F49016024214160AE
:1010A0004FF0404181604FF08071C160C911016112
:1010B0004FF4A0014161002101760122427682763F
:1010C000C17601774177FFF710FA002803D0BDE819
:1010D0001040FFF787B810BD0064004014000020E6
:1010E0000D4808B5816941F010018161816901F005
:1010F00010010091816941F004018161816901F071
:1011000004010091816941F008018161806900F06A
:101110000800009008BD0000001002400C4810B507
:101120000A4901604FF4E1314160002181600C22E5
:10113000C160C0E904128161C161FFF7EFFE0028C0
:1011400003D0BDE81040FFF74DB810BD0038014096
:101150003C000020FEE7FEE770477047FFF7D4BB76
:1011600030B58FB028216846FFF707F814210AA888
:10117000FFF703F801210804CDE9001000240294D0
:1011800002250491CDE907504FF4E010099068461C
:10119000FFF720FD08B172B6FEE70F20CDE90A0582
:1011A0004FF48060CDE90C4002210AA80E94FFF7AD
:1011B00035FC002801D072B6FEE70FB030BD704795
:1011C00001680C3151E8002F22F4907241E80023AD
:1011D000002BF5D10168143151E8002F22F00102F3
:1011E00041E80023002BF5D1016B012909D10168E9
:1011F0000C3151E8002F22F0100241E80023002BAF
:10120000F5D1202180F842100021016370470000D1
:1012100070B5044600680169E26821F44051114349
:1012200001612169A0680843616908432168CA68AF
:1012300041F20C639A430243CA6020684169A26983
:1012400021F44071114341611E492068884202D156
:10125000FFF78AFC01E0FFF777FC00EBC00101EB30
:101260000012606864218000B2FBF0F3B3FBF1F37D
:101270006FF018067343B2FBF0F5B2FBF0F605EB26
:101280008305322303EB0515B5FBF1F5B6FBF1F64B
:1012900005F0F00505EB0615B2FBF0F6B2FBF0F039
:1012A000B0FBF1F06FF01802504306EB800003EB47
:1012B0000010B0FBF1F0216800F00F0028448860B6
:1012C00070BD0000003801402DE9F84398461746EC
:1012D0000D460446089E24E0701C22D0FFF70EFB4A
:1012E000A0EB0800B0421AD8CEB12068C168490707
:1012F00017D5802D15D0402D13D00168C94309079B
:101300000FD401680025406800902046FFF758FF81
:101310000820606484F840500120BDE8F883032071
:10132000FBE72068006835EA000004D00020B842DE
:10133000D2D00020F1E70120F9E7FEE700B58BB03D
:1013400000200121CDE9060108910590049000904C
:1013500001900290039069460248FEF7ADFF0BB082
:1013600000BD000014000020F0B50E46074687B00F
:1013700000210E48FFF718F83070002410E000BF7D
:1013800004EB440007EB8005AB1C6A4600210748CC
:10139000FFF71BF8009828800498641CA872E4B238
:1013A0003078A042ECD807B0F0BD00001400002057
:1013B00070B5054688B014460E460A48FFF77FF818
:1013C00068B1002000950290CDE9030406AB3246D7
:1013D00069460448FEF708FF002008B070BD0120F0
:1013E000FBE70000140000200FB4054B10B503A963
:1013F000044A029800F028F810BC5DF814FB0000C5
:1014000001160008100000200907090E002804DB5F
:1014100000F1E02080F80014704700F00F0000F1A8
:10142000E02080F8141D704702E008C8121F08C1B0
:10143000002AFAD170477047002001E001C1121F55
:10144000002AFBD1704700002DE9FF4F8BB09A4670
:101450000F460546002606E025280BD052460D997A
:1014600090476D1C761C28780028F5D10FB03046C7
:10147000BDE8F08F0024A0460122604900E004434B
:1014800015F8013F203B02FA03F00842F7D1287813
:101490002E2817D115F8010F44F004042A280ED085
:1014A0006FF02F022878A0F1300109290AD808EB43
:1014B000880102EB410100EB01086D1CF2E757F8CF
:1014C000048B6D1C287869283ED006DC0028CDD01E
:1014D00063280BD0642804D136E0732810D0752817
:1014E0004BD052460D999047761C85E017F8040BB7
:1014F0008DF8000000208DF80100E946012003E08E
:1015000057F8049B4FF0FF3061074FF0000401D4FF
:101510000AE0641C44450DDA8442FADB19F8041031
:101520000029F6D106E0641C8442FCDB19F80410A3
:101530000029F8D1264404E019F8010B52460D9910
:101540009047641EF8D257E001CF4FF00A0B0028F5
:1015500002DA40422D2102E0210504D52B218DF82D
:101560002410012103E0E10705D02021F7E70DF168
:10157000200908910CE00021F9E701CF4FF00A0B98
:10158000F9E75946FEF704FE01F1300209F8012D92
:101590000028F6D1ADEB090000F1200B600701D463
:1015A0004FF00108D84502DDA8EB0B0000E0002059
:1015B0008046002406E009A85246005D0D99904738
:1015C000641C761C08988442F5DB04E03020524607
:1015D0000D999047761CB8F10001A8F10108F5DCDF
:1015E00005E019F8010B52460D999047761CBBF1A6
:1015F0000001ABF1010BF4DC6D1C34E7092801009C
:1016000013B54FF0FF33012269460248FFF7F0FCA3
:1016100000981CBD3C0000208CB0FFF77DF9FFF75F
:101620009FFDFFF75DFDFFF735FDFFF777FDFFF746
:1016300085FE1D48FFF728F807221CA10620FFF7AA
:10164000B7FE08221BA10720FFF7B2FE05221BA14F
:101650000820FFF7ADFE07221AA10820FFF7A8FE19
:101660000A20FFF73DF80AA901A8FFF77DFE9DF8C3
:10167000281016A0FFF7B8FE002401AD0FE000BF50
:1016800004EB440105EB8100821C0092837A35F85B
:101690002120611C11A0FFF7A7FE641CE4B29DF895
:1016A00028008442ECD3FEE71400002068656C6CCF
:1016B0006F0A0000776F726C64730A006164730ACA
:1016C0000000000064616973790A00006D7367634C
:1016D0006F756E74203D2025640A000054686520F3
:1016E0002564206D6573736167652C737464496448
:1016F0003A25642C6C656E6774683A25642C6461C5
:1017000074613A25730A000001020203040506070A
:1017100008090A0B0C0D0E0F10100000000000004D
:10172000000001020304060708090000000001028E
:1017300003040000541700080000002014000000FB
:101740002814000868170008140000207404000022
:101750003814000801000000100000000000000024
:0817600000127A0000000000F5
:0400000508000131BD
:00000001FF
