:020000040800F2
:1000000068060020CD010008D5010008D7010008CE
:10001000D9010008DB010008DD0100080000000034
:10002000000000000000000000000000DF010008E8
:10003000E101000800000000E3010008E5010008FC
:10004000E7010008E7010008E7010008E7010008F0
:10005000E7010008E7010008E7010008E7010008E0
:10006000E7010008E7010008E7010008E7010008D0
:10007000E7010008E7010008E7010008E7010008C0
:10008000E7010008E7010008E7010008E7010008B0
:10009000E7010008E7010008E7010008E7010008A0
:1000A000E7010008E7010008E7010008E701000890
:1000B000E7010008E7010008E7010008E701000880
:1000C000E7010008E7010008E7010008E701000870
:1000D000E7010008E7010008E7010008E701000860
:1000E000E7010008E7010008E7010008E701000850
:1000F000E7010008E7010008E7010008E701000840
:10010000E7010008E7010008E7010008E70100082F
:10011000E7010008E7010008E7010008E70100081F
:10012000E7010008E7010008E7010008E70100080F
:1001300000F002F800F03AF80AA090E8000C8244BF
:100140008344AAF10107DA4501D100F02FF8AFF29C
:10015000090EBAE80F0013F0010F18BFFB1A43F0A5
:10016000010318477003000090030000103A24BFF9
:1001700078C878C1FAD8520724BF30C830C144BF0C
:1001800004680C607047000000230024002500264E
:10019000103A28BF78C1FBD8520728BF30C148BFEA
:1001A0000B6070471FB51FBD10B510BD00F031F8D2
:1001B0001146FFF7F7FF00F07BF900F04FF803B4AA
:1001C000FFF7F2FF03BC00F057F800000948804732
:1001D00009480047FEE7FEE7FEE7FEE7FEE7FEE729
:1001E000FEE7FEE7FEE7FEE704480549054A064B41
:1001F0007047000061040008310100086800002019
:1002000068060020680200206802002070477047DE
:100210007047754600F02CF8AE4605006946534617
:1002200020F00700854618B020B5FFF7DDFFBDE8D8
:1002300020404FF000064FF000074FF000084FF04D
:10024000000B21F00701AC46ACE8C009ACE8C009DE
:10025000ACE8C009ACE8C0098D46704710B504464B
:10026000AFF300802046BDE81040FFF7A8BF0000B4
:10027000004870470400002001491820ABBEFEE78B
:1002800026000200704700B502464FF47A7302E080
:10029000184600F004F8521E92B2F9D200BD00EBED
:1002A000C000C1004FF0E0204161002181610521C3
:1002B00001610169C903FCD5016921F001010161F6
:1002C0007047000000B51148816941F00401816167
:1002D0000F48016821F0CC010160016841F0330151
:1002E0000160001D016821F00C010160016841F00E
:1002F00003010160012000F049F8022000F046F8F7
:100300004FF480705DF804EB00F040B8001002403C
:100310000008014070B504461B4D4FF49676E8780E
:10032000002816D0491E814208D10021A97034F856
:10033000100000F033F83046FFF7A5FFA87888B129
:10034000E87834F8100000F029F83046FFF79BFFFA
:1003500010E00120A870208800F018F83046FFF760
:1003600092FFEBE7E87834F8100000F00FF8304621
:10037000FFF789FFA87818B1E878401CE87070BDD5
:10038000E878401EE87070BD0000002002490A684D
:1003900002430A60704700001008014002490A68E1
:1003A00002430A607047000014080140AFF3008068
:1003B0000CB50022019200922748016841F4803177
:1003C00001604FF4A063016801F4003100910199CC
:1003D000491C0191009911B901999942F3D1016821
:1003E000890302D50121009100E0009200990129C2
:1003F00030D11A490A6842F010020A600A6822F0F5
:1004000007020A600A6842F002020A60416841601D
:1004100041684160416841F480614160416821F474
:100420007C114160416841F4E8114160016841F08C
:100430008071016001688901FCD5416821F00301E8
:100440004160416841F0020141604168C1F38101AE
:100450000229FAD10CBD0000001002400020024029
:1004600010B50F48016841F00101016041680D4A73
:100470001140416001680C4A11400160016821F49B
:1004800080210160416821F4FE0141604FF41F01A9
:100490008160FFF78BFF05494FF00060086010BDD9
:1004A000001002400000FFF8FFFFF6FE08ED00E03C
:1004B0001CB5054803C8CDE90001FFF703FF032180
:1004C0006846FFF727FFFAE7CC04000801000200A6
:1004D00000010000F40400080000002004000000F7
:1004E0006C010008F8040008040000206406000005
:0804F000880100080000000073
:0400000508000131BD
:00000001FF
