:020000040800F2
:10000000D8050020490100089B1C0008FD1A0008C3
:10001000991C0008470400086B1F0008000000003E
:100020000000000000000000000000008D1D00081E
:1000300049040008000000009D1C00088F1D0008F6
:100040006301000863010008630100086301000800
:1000500063010008630100086301000863010008F0
:1000600063010008630100086301000863010008E0
:1000700063010008630100086301000863010008D0
:1000800063010008630100086301000863010008C0
:1000900063010008630100086301000863010008B0
:1000A00063010008630100086301000863010008A0
:1000B0006301000863010008630100086301000890
:1000C0006301000863010008630100086301000880
:1000D0006301000863010008630100086301000870
:1000E0004B04000863010008630100086301000875
:1000F0006301000863010008630100086301000850
:10010000630100086301000863010008630100083F
:10011000630100086301000863010008630100082F
:10012000630100086301000863010008630100081F
:10013000DFF810D000F066F900480047D922000827
:10014000AFF30080D80500200648804706480047E6
:10015000FEE7FEE7FEE7FEE7FEE7FEE7FEE7FEE777
:10016000FEE7FEE7F11D000831010008202A04DB4C
:10017000203A21FA02F00021704721FA02F3D04020
:10018000C2F120029140084319467047D2B201E003
:1001900000F8012B491EFBD270470022F6E710B58C
:1001A00013460A4604461946FFF7F0FF204610BDE5
:1001B000421C10F8011B0029FBD1801A70472DE961
:1001C000F04D81EA030404F0004B21F00045144691
:1001D0004FF0000A23F0004150EA050220D054EA13
:1001E00001021DD0C5F30A570246C5F31303C1F33C
:1001F0001300C1F30A5640F4801543F48013A7EBB3
:100200000608101BD64608F2FD3873EB050002D332
:1002100008F1010801E092185B41B8F1000F03DA20
:1002200000200146BDE8F08D00204FF48011064605
:1002300084460EE0171B73EB050705D3121B63EB17
:10024000050306434CEA010C49084FEA30009218B6
:100250005B4150EA0107EDD152EA030012D082EA75
:10026000040083EA0501084305D0101BAB4106D208
:100270000122002306E000224FF0004302E06FF06D
:10028000010253101AEB06004CEB085110EB0A0068
:1002900041EB0B01BDE8F04D00F057B80EB540F250
:1002A000334102910021CDE900110A460B4600F0CE
:1002B0005BF803B000BDC1F30A5210B5C1F31301DE
:1002C00040F2FF3341F480119A4201DA002010BD60
:1002D00040F233439A42A2F2334203DC5242FFF728
:1002E00045FF10BD904010BD2DE9F05F0546002090
:1002F00092469B4688460646814640241BE0284697
:10030000414647462246FFF731FF53465A46C01A38
:10031000914110D311461846224600F085F82D1A57
:1003200067EB01084F4622460120002100F07CF8CF
:1003300017EB00094E41201EA4F10104DFDC484602
:1003400031462A464346BDE8F09F10B5141E73F1AE
:10035000000408DA401C41F1000192185B411A4385
:1003600001D120F0010010BD2DE9F04D92469B46D1
:1003700011B1B1FA81F202E0B0FA80F22032904677
:1003800000F052F804460F4640EA0A0041EA0B0129
:1003900053465A46084313D0114653EA010019D078
:1003A000C8F140025046FFF7E1FE05460E465046B2
:1003B0005946424600F038F8084305D0012004E0D1
:1003C00020463946BDE8F08D0020054346EAE07638
:1003D0002C4337430A986305E40AA0EB0800002287
:1003E000FD0A44EA47540A3002D500200146E9E7F5
:1003F000010510196941DDE9084500196941BDE8A9
:10040000F04DA2E7064C074D06E0E06840F001031E
:1004100094E8070098471034AC42F6D3FFF78CFEFF
:10042000DC230008FC230008202A04DB203A00FA21
:1004300002F1002070479140C2F1200320FA03F33B
:10044000194390407047FEE770474FF4806000F01A
:10045000E1BC01B501226946892000F07BFB08BDA3
:10046000174908B5884204D9E1208DF80000E92039
:100470001EE01449884204D9D7208DF80000D82006
:1004800016E01149884204D9C1208DF80000C5202A
:100490000EE00E49884204D975208DF800008120B5
:1004A00006E00B49884205D96B208DF800006F20CB
:1004B0008DF8010002226946982000F04BFB08BD30
:1004C00000E9A43580F8A9328044E52D000B6B1BB0
:1004D00040FC5419064810B5007808B1062801D12F
:1004E00000F002FB00F082FB0028FBD110BD0000F1
:1004F0000400002008B5010A8DF800108DF80100F5
:1005000002226946104600F025FB08BD1020704706
:1005100008B502226946122000F0EBF8BDF8000091
:1005200040BA08BD38B5044603226946142000F0DD
:10053000E0F89DF800004042400820739DF801005B
:10054000802801D3A0F58070800860739DF80200B8
:1005500040424008A07302484068206138BD000056
:10056000040000200048704700042002F8B5064649
:100570000C4600208DF8000015466946204600F024
:100580000CF82278AA4201D90120F8BD31469DF825
:10059000000000F089F80020F8BD38B50D4604468B
:1005A00002226946132000F0A4F840F2047000F023
:1005B000C1F8C00904D040F2027000F0BBF801E0BD
:1005C0009DF8000020709DF80100287038BD0000E3
:1005D00010B500F0DEF800F087FA1A480124047024
:1005E000204600F01DFA1C2140F6111000F0D4FA4C
:1005F0001C2140F6121000F0CFFA012000F014F98F
:10060000012000F090F90021084600F002F90120D5
:1006100000F076F906210B20224600F04EF94BF24D
:10062000B66000F03CF9FF2000F020F9064800F029
:1006300081F90721162000F035FABDE810400020AE
:1006400000F0AAB90400002088F6D01938B5FFF7E9
:100650005FFF04004FF000008DF8000017D0204627
:10066000FFF748FFA00713D50D48FFF75BFF0C48C5
:10067000FF2269461430FFF779FF09499DF80020F1
:100680001431204600F0BAFA002000F085F938BD98
:1006900003499DF800201431204600F0AFFA38BD20
:1006A000C00000207047000070B515460E46044695
:1006B000FFF710FF002000F009FB1E2000F014FBE4
:1006C000204600F011FB002000F00EFB002405E0A6
:1006D000002000F009FB3055641CA4B2AC42F7D3F3
:1006E000012000F0F3FA00BF00F080FA0028FBD1EF
:1006F00070BD70B515460E460446FFF7EBFE0020B0
:1007000000F0E4FA204600F0EFFA002000F0ECFAE6
:10071000002405E0002000F0E7FA3055641CA4B284
:10072000AC42F7D3012000F0D1FA00F05FFA0028C4
:10073000FBD170BD08B50122694600F003F89DF8B1
:10074000000008BD70B515460E460446FFF7C2FE10
:10075000002000F0BBFA1D2000F0C6FA200A00F0CD
:10076000C3FAE0B200F0C0FA002000F0BDFA0024A5
:1007700005E0002000F0B8FA3055641CA4B2AC4289
:10078000F7D3012000F0A2FA00F030FA0028FBD1E4
:1007900070BD10B50A2000F02FFA002000F07CFA9E
:1007A000142000F029FA012000F076FABDE810408C
:1007B000142000F021BA10B5002000F0F5FABDE8D1
:1007C0001040012000F076BA10B5002000F072FA57
:1007D000BDE81040012000F0E7BA70B505461646A6
:1007E0000C46084600F042F82146284600F096F8EC
:1007F000304600F027F9012000F0FEF9FFF788FEEF
:100800000400F8D0FFF776FE2046BDE8704000F007
:100810007DBA08B502228DF800008DF801106946F6
:100820008F2000F097F908BD01B5012269469D208F
:1008300000F090F908BD1CB5040A8DF800408DF851
:100840000100080A8DF80200100A8DF804008DF8E6
:100850000520180A8DF806008DF8031008228DF87F
:1008600007306946104600F075F91CBD0EB5002131
:1008700000918DF800103C228DF801208DF80210B7
:100880008DF80300019101208DF8040002918DF88C
:100890000510062269468C2000F05CF90EBD10B5EB
:1008A0000446010A4FF4E86000F076F9E1B2BDE8D1
:1008B000104040F2417000F06FB91CB50023009366
:1008C0008DF800008DF801108DF8022001208DF8C0
:1008D00003000193042269468B2000F03BF91CBD04
:1008E00008B58DF800008DF801108DF802208DF804
:1008F000033004226946952000F02CF908BD000061
:1009000001B505499DF800000122487069468A201A
:1009100000F020F908BD0000040000200A4601464E
:10092000002000F0F5B801B501226946962000F0DC
:1009300011F908BD38B50446FF20FFF78AFD2046AF
:10094000FFF78EFD012000F06BF81C2140F611101E
:1009500000F022F91C2140F6121000F01DF920468B
:10096000FFF79CFC00220B4BFFF729FCFFF7A3FCD1
:10097000010E8DF80010010C8DF80110010A8DF8A0
:1009800002108DF8030004226946862000F0E2F888
:1009900038BD00008084EE3F38B517490446052075
:1009A0000870012000F03CF81C2140F6111000F006
:1009B000F3F81C2140F6121000F0EEF8002340F28C
:1009C00002201A460146FFF736FFFF20FFF74EFFD1
:1009D0004FF6FF70FFF78EFDFFF7EDFE200C8DF850
:1009E0000000200A8DF801008DF8024003226946BC
:1009F000822000F0AFF838BD0400002001B50020CF
:100A000000F0D2F9002000F055F901226946842057
:100A100000F0A0F801490020087008BD0400002083
:100A200001B501226946802000F094F89DF800107D
:100A3000034811B10221017008BD0121FBE700004C
:100A40000400002038B51649044604200870FFF75A
:100A5000BBFE0120FFF7E4FF1C2140F6111000F05F
:100A60009BF81C2140F6121000F096F8002340F28B
:100A700001201A460146FFF7DEFE4FF6FF70FFF732
:100A800039FD200C8DF80000200A8DF801008DF84A
:100A9000024003226946832000F05CF838BD000064
:100AA0000400002038B50D4604460123002207212A
:100AB0000420FFF715FF162C01DD162404E06FF06B
:100AC0000200844200DA0446382140F6E70000F0D4
:100AD00063F88DF800408DF80150022269468E209F
:100AE00000F038F838BD000010B5002000F0EEF836
:100AF000C02000F0F9F8002000F0F6F8012000F026
:100B0000E5F800BF00F072F80028FBD110BD00002E
:100B100070B515460E460446FFF7DCFC002000F0D9
:100B2000D5F80E2000F0E0F8204600F0DDF80024B3
:100B300004E0305D00F0D8F8641CA4B2AC42F8D3F5
:100B4000012000F0C3F800BF00F050F80028FBD1EE
:100B500070BD00002DE9F04115460E460746FFF72F
:100B6000B9FC002000F0B2F8384600F0BDF80024CF
:100B700004E0305D00F0B8F8641CA4B2AC42F8D3D5
:100B8000012000F0A3F8842F04D000BF00F02EF85D
:100B90000028FBD1BDE8F08113B5012201A900F0C6
:100BA00001F81CBD70B515460E460446FFF792FCD1
:100BB000002000F08BF80D2000F096F8200A00F0DD
:100BC00093F8E0B200F090F8002404E0305D00F00B
:100BD0008BF8641CA4B2AC42F8D3012000F076F884
:100BE00000F004F80028FBD170BD0000042101488A
:100BF00000F018BA0018014000F0E4B870B50E46D5
:100C00000446014615460BA001F0B0F9A00706D531
:100C100032462946BDE870400BA001F0A7B9A005F7
:100C200004D5BDE870400FA001F0A0B911A001F0FB
:100C30009DF9FEE7BDD3CAD5B5C4D7B4CCACC2EBE1
:100C4000CEAA25640A000000BDD3CAD5B3C9B9A68F
:100C50006C656E6774683A25642C646174613A252A
:100C6000730A0000BDD3CAD5D2ECB3A3B3ACCAB1EA
:100C70000A000000B7A2CBCDD7B4CCACB1EACAB65B
:100C8000B2BBD5FDC8B7A3ACC7EBBCECB2E9C8EDAD
:100C9000D3B2BCFE0A000000054B4FF400510128FE
:100CA00003D00022184600F0C2B90122FAE7000082
:100CB00000200140044B012804D0002220211846C6
:100CC00000F0B5B90122F9E700180140054B4FF4D7
:100CD0008041012803D00022184600F0A8B9012263
:100CE000FAE700000020014001B582B000208DF835
:100CF0000400401E0090012301AA02A9024800F04E
:100D000037FD9DF804000EBD2000002010B50446FC
:100D100001460BA001F02AF90E490020C968884756
:100D2000E00701D00CA002E0A00504D50EA0BDE8AC
:100D3000104001F01BB912A001F018F9FEE7000005
:100D4000B7A2CBCDD7B4CCACC2EB3D307825780D73
:100D50000A00000090230008B7A2CBCD3A20D5FDB1
:100D6000B3A3CDEAB3C90A00CAFDBEDDB7A2CBCD9D
:100D7000D2ECB3A3B3ACCAB12E2E2E0D0A000000E4
:100D8000CAFDBEDDB7A2CBCDB3F6CFD6CEB4D6AAC0
:100D9000B4EDCEF32C20C7EBBCECB2E9D3B2BCFE71
:100DA0002E2E2E0D0A000000044B012804D0002234
:100DB0004021184600F03BB90122F9E70018014034
:100DC00072B6FEE770B5044600F036F90546601CC1
:100DD00002D004480078044400F02EF9401BA042E1
:100DE000FAD370BD0C00002010B54FF48064A0420F
:100DF0000AD10A20FFF7E6FF2146044800F012F965
:100E0000012801D10249087010BD0000001C0140FA
:100E100000000020044910B50A68024202D00860B0
:100E2000FFF7E2FF10BD0000140401402DE9F84F68
:100E3000DFF8C8910024A9F1040B23460F2709F11C
:100E4000040AABF1040ED1E00125A54006EA050233
:100E5000AA4276D1DFF8A8C14E68A6EB0C08664519
:100E60002BD00DDC032E34D005DC36B3012E19D087
:100E7000022E2FD11BE0112E16D0122E2AD119E0EE
:100E8000B8F5881F19D006DCB8F5803F15D0B8F545
:100E9000801F1FD111E0B8F5001F0ED0B8F5041F58
:100EA00018D10AE0CB6815E0CB681B1D12E0CB68B7
:100EB00008330FE0CB680C330CE08B682BB1012BAF
:100EC0004FF0080303D0456104E0042302E005610C
:100ED00000E00023FF2A01D8064601E000F10406E5
:100EE0004FEA840501D9A5F12005D6F8008007FA5C
:100EF00005FC28EA0C0803FA05F548EA0508C6F8D7
:100F000000804D68ED0070D53E4DAE6946F001069B
:100F1000AE61AD6924F0030605F0010500953A4D78
:100F200006EB050CDCF80850A607360F07FA06F8A2
:100F300025EA0805DFF8D480404503D14FF00008CA
:100F400025E052E0DFF8C880404502D14FF00108AB
:100F50001DE0DFF8C080404502D14FF0020816E0E6
:100F6000DFF8B480404502D14FF003080FE0DFF80E
:100F7000AC80404502D14FF0040808E0DFF8A080C3
:100F8000404502D14FF0050801E04FF0060808FA8D
:100F900006F848EA0508CCF808804D68D9F80060E2
:100FA000ED024D4601D5164300E096432E604D6894
:100FB000DAF80060AD02554601D5164300E09643CD
:100FC0002E604D68DBF80060AD035D4601D5164329
:100FD00000E096432E604D68DEF80060ED03754634
:100FE00001D5164300E096432E60641C0A6816463D
:100FF000E2407FF429AFBDE8F88F0000080401400B
:1010000000001110001002400000014000080140E3
:10101000000C014000100140001401400018014084
:10102000001C01408068084000D0012070470AB1D0
:10103000016170470904FBE70148806870470000C0
:101040000C000020024881680278114481607047DA
:101050000C000020074810B5016841F01001016044
:10106000032000F075F8012000F006F800F024F8E5
:10107000002010BD0020024070B50D4D04464FF415
:101080007A712878B1FBF0F00A490968B1FBF0F0F9
:1010900000F066FC48B9102C07D200222146501EF1
:1010A00000F036F800206C6070BD012070BD0000BB
:1010B0000C000020180000200C4808B5816941F0A0
:1010C00001018161816901F001010091C16941F073
:1010D0008051C161C06900F08050009004484168AF
:1010E00021F0E06141F00071416008BD0010024054
:1010F00000000140002809DB00F01F02012191409F
:101100004009800000F1E020C0F8001170470000A5
:10111000F0B40E4B1B680C46C3F30223C3F1070562
:10112000042D00D90425191D072901D2002300E050
:10113000DB1E012606FA05F1491E214099409E401A
:10114000761E16403143F0BC00F034BF0CED00E0D9
:10115000064900F0070208684FF6FF03184040EA0E
:101160000220034A10430860704700000CED00E0C5
:101170000000FA052DE9F0470F46050061D0434E07
:10118000306800F00700B84209D2306820F007004C
:1011900038433060306800F00700B84251D1286809
:1011A0003B4C810712D5400703D5606840F4E060EE
:1011B00060602878000703D5606840F46050606084
:1011C0006068A96820F0F000084360602878C007D4
:1011D00028D06868012810D02168022810D089071B
:1011E00000292EDA616821F0030101436160FFF7F5
:1011F00023FF804641F288390DE021688903EFE73B
:101200008901EDE7FFF718FFA0EB0801494502D976
:101210000320BDE8F0876068696800F00C00B0EB5F
:10122000810FEFD1306800F00700B8420BD9306869
:1012300020F0070038433060306800F00700B84203
:1012400001D00120E5E72878400705D56068E96806
:1012500020F4E060084360602878000706D56068E5
:10126000296920F4605040EAC100606000F038F85D
:101270006168084AC1F30311515CC840064908601F
:1012800006480068FFF7F8FE0020C2E70020024091
:1012900000100240C22300081800002010000020A7
:1012A0000448054900684968044AC1F30221515CB9
:1012B000C84070471800002000100240D2230008E8
:1012C0000448054900684968044AC1F3C221515CD9
:1012D000C84070471800002000100240D2230008C8
:1012E0000E4A51680E4801F00C03042B11D0082B54
:1012F0000FD10C48C1F38343C903C05C0AD55168C0
:10130000084AC1F34041921E515C054A5043B0FB6C
:10131000F1F0704704494843704700000010024054
:1013200000127A00B223000800093D002DE9F84FB1
:10133000040070D02078C04DC00749D06868C0F361
:101340008100012807D06868C0F38100022809D114
:101350006868C00306D52868800339D5606800280E
:10136000E7D035E06068B0F5803F0BD010B1B0F544
:10137000A02F11D0286820F480302860286820F43D
:10138000802002E0286840F480302860606890B1D6
:10139000FFF752FE06460AE0286840F480202860E5
:1013A000F0E700BFFFF748FE801B642873D8286869
:1013B0008003F7D50CE0FFF73FFE064605E000BFCF
:1013C000FFF73AFE801B6428F0D828688003F7D422
:1013D00020789A4E80074FF001094FF0000839D568
:1013E000686810F00C0F07D06868C0F3810002280D
:1013F00009D16868C00306D42868800714D520691D
:10140000012808D110E02069B0B1C6F80090FFF7BC
:1014100013FE074605E00AE1FFF70EFEC01B022897
:10142000C4D828688007F7D52868616920F0F800DB
:1014300040EAC10028600DE0C6F80080FFF7FCFD1F
:10144000074604E0FFF7F8FDC01B022823D82868F0
:101450008007F7D4207800072CD57948A169D9B145
:10146000C0F80090FFF7E8FD074604E0FFF7E4FD51
:10147000C01B02280FD8686A8007F7D571484FF45F
:10148000FA510068B0FBF1F0009000BF0098411ED7
:101490000091FAD20EE080E0C0F80080FFF7CCFDAA
:1014A000074604E0FFF7C8FDC01B022875D8686A2C
:1014B0008007F7D42078400760D5E8690027C0008E
:1014C00008D4E86940F08050E861E869012700F03D
:1014D000805000905C480168C90513D401688346B8
:1014E00041F480710160FFF7A7FD824606E000BF6E
:1014F000FFF7A2FDA0EB0A0064284ED8DBF800003D
:10150000C005F5D5E06801280AD008B1052813D038
:10151000286A20F001002862286A20F0040002E016
:10152000286A40F001002862E06841F2883B98B1E7
:10153000FFF782FD82460BE0286A40F00400286233
:10154000EEE700BFFFF778FDA0EB0A0159455AD836
:10155000286A8007F6D50CE0FFF76EFD824605E0AD
:10156000FFF76AFDA0EB0A0159454CD8286A8007AD
:10157000F6D41FB1E86920F08050E861E06988B3D3
:101580006968C1F38101022944D00228C6F860804D
:1015900004D0FFF751FD044638E034E0FFF74CFD7E
:1015A000074604E0FFF748FDC01B02282BD8286837
:1015B0008001F7D4206AB0F5803F05D16868A16842
:1015C00020F4003008436860D4E9080108436968E2
:1015D00021F4741108436860C6F86090FFF72CFD91
:1015E000044606E025E000BFFFF726FD001B0228A9
:1015F00009D828688001F7D51BE000BFFFF71CFD64
:10160000001B022802D90320BDE8F88F286880015A
:10161000F4D40EE00128F7D06868226A00F4803123
:10162000914204D1616A00F47010884201D0012017
:10163000EAE70020E8E70000001002400000424214
:1016400080044242180000200070004070B5040081
:1016500009D0606A002540B125616561A56294F8F2
:10166000510040B10CE0012070BD6068B0F5827F90
:10167000F4D0E561F2E784F85050204600F040F8DD
:10168000022084F851002068016821F040010160C7
:10169000A088218900F4827001F404410843A189E3
:1016A00001F400610843217C01F002010843217D1F
:1016B00001F001010843218B01F400710843217FEF
:1016C00001F03801084394F8201001F0800108432C
:1016D000218D01F40051084321680860A0690421AC
:1016E00001EA1040216848602068C16921F4006166
:1016F000C1616565012084F85100002070BD0000C3
:1017000030B585B0002400940194029403940068DD
:101710001449884223D11448816941F48051816180
:10172000816901F480510491816941F00401816172
:1017300080690E4D00F004000490A020009002206B
:1017400001900320039069462846FFF76FFB402075
:10175000CDE90004694628460294FFF767FB05B00F
:1017600030BD000000300140001002400008014080
:101770002DE9FF4F81B01D46934604464FF0010905
:101780000E9EFFF759FC074694F851006168012846
:1017900006D0B1F5827F3CD1A168C9BB042838D1FD
:1017A0000298002871D0BBF1000FFBD0002DF9D0BA
:1017B00094F8500001282CD04FF0010A84F850A072
:1017C00094F85100042802D0052084F851004FF00D
:1017D0000008C4F85480C4F838B0E587A58702999A
:1017E0002163E586A586C4F84080C4F8448020685B
:1017F0000168490603D4016841F040010160E068D6
:10180000B0F5006F606808D0F0B3012D49D081E0D9
:10181000FFE7022005B0BDE8F08F08B1012D39D1F6
:10182000206B21680088C860206B801C2063E08EDC
:10183000401EE0862EE02068816889070FD5E18E82
:1018400069B1B9F1010F0AD1216B0988C160206B20
:10185000801C2063E08E401EE0864FF00009206867
:101860008168C9070CD0E18F51B1C068A16B0880B5
:10187000A06B801CA063E08F401EE0874FF0010941
:10188000FFF7DAFBC01B01E00BE067E0B04201D3D9
:10189000701C50D1E08E0028CDD1E08F0028CAD135
:1018A0003EE0206B216800780873206B401C2063A9
:1018B000E08E401EE0862DE02068816889070FD504
:1018C000E18E69B1B9F1010F0AD1216B0978017379
:1018D000206B401C2063E08E401EE0864FF0000924
:1018E00020688168C9070CD0E18F51B1C068A16B35
:1018F0000870A06B401CA063E08F401EE0874FF093
:101900000109FFF799FBC01BB04202D3701C01D044
:1019100011E086B1E08E0028CED1E08F0028CBD137
:101920003A463146204600F0BAF950B120206065B1
:1019300084F8508012E084F851A084F8508003208D
:1019400068E7A06818B92068C1688068009084F8CA
:1019500051A084F85080606D0028F1D0012059E733
:1019600010B5401EB0F1807F01D3012010BD4FF0B3
:10197000E02460610F21601700F01CFB0020A061D3
:1019800007202061002010BD70B5040004D094F839
:101990004100002510B106E0012070BD84F84050E0
:1019A000204600F023F8242084F841002068C16814
:1019B00021F40051C160204600F042FA206801691C
:1019C00021F4904101612068416921F02A014161BF
:1019D0002068C16841F40051C1606564202084F82A
:1019E000410084F842006563002070BD30B585B0C9
:1019F00000240094019402940394006814498842DE
:101A000024D11448816941F480418161816901F4E4
:101A100080410491816941F00401816180690E4D2A
:101A200000F0040004904FF4007000900220019038
:101A30000320039069462846FFF7F8F92815CDE9F9
:101A40000004694628460294FFF7F0F905B030BD5E
:101A50000038014000100240000801402DE9F84321
:101A6000044690F84100984616460D46202802D0BC
:101A70000220BDE8F88385B17EB10020606421209A
:101A800084F84100FFF7D8FAA6848146E684A0686E
:101A90002027B0F5805F02D003E00120E9E720694C
:101AA00010B12E4600250EE000260CE080212046D5
:101AB00000F022FAA8B9C6B116F8010B21684860F7
:101AC000E08C401EE084E08C4B464FF00002CDF8E5
:101AD00000800028EAD14FF04001204600F00CFAC7
:101AE00040B184F841700320C3E735F8020BC0F31E
:101AF0000800E3E784F841700020BAE7FEE7000041
:101B0000014800680047000090230008014B0022B4
:101B10005B681847902300080148006900470000EF
:101B2000902300082DE9F04385B000243548009447
:101B3000019402940394816941F0400181618169BB
:101B400001F040010491816941F0100181618169D6
:101B500001F010010491816941F080018161816986
:101B600001F080010491816941F004018161816982
:101B700001F004010491816941F4807181618069FF
:101B8000DFF8848000F480700490002260214046D9
:101B9000FFF74DFADFF874904FF4C0470022394642
:101BA0004846FFF744FA0420CDE900046946404660
:101BB0000294FFF73BF960200126CDE900060225DB
:101BC00069464046CDE90245FFF730F968020090CA
:101BD0000F48CDE9010569460E48FFF727F9CDE921
:101BE000007669464846CDE90245FFF71FF9002215
:101BF00002212820FFF78CFA2820FFF77BFA05B096
:101C0000BDE8F083001002400018014000200140B0
:101C100000001110001C0140104810B50E49016071
:101C20004FF48271416000218160C1604FF4007205
:101C30000161C0E905121822C0E9072141628162F1
:101C40000A21C162FFF702FD002803D0BDE8104061
:101C5000FFF7B6B810BD00000030014020000020A2
:101C60000C4810B50A4901604FF4E1314160002190
:101C700081600C22C160C0E904128161C161FFF77B
:101C800083FE002803D0BDE81040FFF799B810BDCF
:101C90000038014078000020FEE7FEE77047F8B505
:101CA00015460E460B46009204460122022100F022
:101CB00011F840B93346002280212046009500F0FB
:101CC00009F8002804D0606D40F020006065032012
:101CD000F8BD00002DE9F8431E46914688460446AB
:101CE000089DFFF7A9F9401B351AFFF7A5F907462C
:101CF00025480068C0F3CB30684338E0701C37D00B
:101D0000FFF79AF9C01BA84203D215B1009860B33F
:101D10002CE02068416821F0E00141606068B0F586
:101D2000827F0BD1A068B0F5004F02D0B0F5806F74
:101D300004D12068016821F040010160A06AB0F57B
:101D4000005F09D12068016821F40051016020681A
:101D5000016841F400510160012084F85100002025
:101D600084F850000320BDE8F8830025401E009051
:101D70002068816838EA010004D000214945BDD1BE
:101D80000020F0E70121F9E7180000207047FFF775
:101D900059B930B58FB028216846FEF7FEF91421F5
:101DA0000AA8FEF7FAF901210804CDE90010002481
:101DB000029402250491CDE907504FF4E0100990F8
:101DC0006846FFF7B3FA08B172B6FEE70F20CDE917
:101DD0000A054FF48060CDE90C4002210AA80E9458
:101DE000FFF7C8F9002801D072B6FEE70FB030BD8A
:101DF000704701680C3151E8002F22F4907241E8DD
:101E00000023002BF5D10168143151E8002F22F096
:101E1000010241E80023002BF5D1016B012909D112
:101E200001680C3151E8002F22F0100241E8002334
:101E3000002BF5D1202180F842100021016370476A
:101E400070B5044600680169E26821F4405111430D
:101E500001612169A0680843616908432168CA6873
:101E600041F20C639A430243CA6020684169A26947
:101E700021F44071114341611E492068884202D11A
:101E8000FFF71EFA01E0FFF70BFA00EBC00101EBD0
:101E90000012606864218000B2FBF0F3B3FBF1F341
:101EA0006FF018067343B2FBF0F5B2FBF0F605EBEA
:101EB0008305322303EB0515B5FBF1F5B6FBF1F60F
:101EC00005F0F00505EB0615B2FBF0F6B2FBF0F0FD
:101ED000B0FBF1F06FF01802504306EB800003EB0B
:101EE0000010B0FBF1F0216800F00F00284488607A
:101EF00070BD0000003801402DE9F84398461746B0
:101F00000D460446089E24E0701C22D0FFF794F88A
:101F1000A0EB0800B0421AD8CEB12068C1684907CA
:101F200017D5802D15D0402D13D00168C94309075E
:101F30000FD401680025406800902046FFF759FF44
:101F40000820606484F840500120BDE8F883032035
:101F5000FBE72068006835EA000004D00020B842A2
:101F6000D2D00020F1E70120F9E7FEE70FB4054BDE
:101F700010B503A9044A029800F03CF810BC5DF8C3
:101F800014FB0000C12200081C0000200FB4084B05
:101F900010B504A902AA039800F02CF8044602A97F
:101FA000002000F087F9204610BC5DF814FB00000B
:101FB000B52200080907090E002804DB00F1E02023
:101FC00080F80014704700F00F0000F1E02080F866
:101FD000141D704702E008C8121F08C1002AFAD178
:101FE00070477047002001E001C1121F002AFBD199
:101FF000704700002DE9FF4F8DB09B460F46044609
:10200000002606E025280BD05A460F999047641CFD
:10201000761C20780028F5D111B03046BDE8F08F4D
:102020000025A8460122984900E0054314F8013F25
:10203000203B02FA03F00842F7D120782E2817D16E
:1020400014F8010F45F004052A280ED06FF02F0276
:102050002078A0F1300109290AD808EB880102EBA9
:10206000410100EB0108641CF2E757F8048B641C83
:1020700020786C280DD004DC4C2812D06A2811D1AD
:1020800004E074280DD07A280CD10AE045F400153C
:1020900007E0617845F48015814202D1641C05F5A2
:1020A0008015641C2078692844D008DC0028B3D04F
:1020B000582867D063280FD0642808D13AE07028E8
:1020C00065D0732812D075285AD078285AD05A462D
:1020D0000F999047761CD5E017F8040B8DF8000097
:1020E00000208DF80100E946012003E057F8049B29
:1020F0004FF0FF3069074FF0000501D40AE06D1C76
:1021000045450DDA8542FADB19F805100029F6D1AC
:1021100006E06D1C8542FCDB19F805100029F8D19A
:102120002E4404E019F8010B5A460F9990476D1E92
:10213000F8D2A7E00A200021CDE90801C5F302503A
:1021400002280CD001CFC117021E71F100020CDA77
:102150000023D0EB030063EB01012D2208E0FF1DFB
:1021600027F00707F7E80201EEE72A0504D52B223E
:102170008DF8282001223CE0EA073AD02022F7E738
:102180000A2000E010200021CDE9080107E010201E
:10219000002145F00405CDE908014FF00808C5F31A
:1021A0000250022810D001CF00214FF0000A2A0768
:1021B00020D52278702A0DD0DDE908C38CF0100CF0
:1021C0005CEA030C0CD015E0FF1D27F00707F7E8C9
:1021D0000201EAE740228DF828204FF0010A0CE0C6
:1021E00050EA010306D030238DF828308DF82920DD
:1021F000022292462278582A04D024A20DF1200906
:102200000B9209E026A2F9E7DDE90823FEF76CF856
:102210000B9B9B5C09F8013D50EA0102F4D1ADEB48
:10222000090020300890680701D44FF00108089990
:10223000884503DD0898A8EB000000E000208046F8
:10224000002506E00AA85A46405D0F9990476D1C8C
:10225000761C5545F6DB04E030205A460F9990472E
:10226000761CB8F10001A8F10108F5DC05E019F8C9
:10227000010B5A460F999047761C0899481E089002
:102280000029F4DC641CC4E6092801003031323333
:1022900034353637383961626364656600000000A2
:1022A000303132333435363738394142434445468C
:1022B000000000000A68531C0B601070704700009B
:1022C00013B54FF0FF33012269460248FFF7C6FB02
:1022D00000981CBD78000020A0B0FEF7BBFEFFF701
:1022E00058FDFFF71FFCFFF797FCFFF7B9FCFFF75E
:1022F00007FC17A0FFF73AFE18488069804701469F
:1023000017A0FFF733FE002580216846FDF745FF43
:102310000026164CFFF700FC20780028FAD0267023
:1023200080216846FDF739FF2A46681CC5B210A116
:102330006846FFF72BFE694611A0FFF717FE6846B7
:10234000FDF736FFC1B26846FFF7E0FBE2E70000A9
:1023500068656C6C6F206C6F72610A0090230008D6
:102360006E616D65203D202523780A000000002065
:10237000BCC6CAFDB5C4B4CECAFDCEAA2564000051
:10238000B7A2CBCDCAFDBEDDA3BA25730A000000FB
:10239000D1050008DB070008FD09000899090008BD
:1023A0004D060008A5060008650500080D05000893
:1023B000010202030405060708090A0B0C0D0E0FA3
:1023C00010100000000000000000010203040607D6
:1023D000080900000000010203040000FC230008BB
:1023E0000000002020000000D41F00081C2400086A
:1023F00020000020B8050000E41F000800000000D5
:1024000000000000000000000100000010000000BB
:0C2410000000000000127A000000000034
:0400000508000131BD
:00000001FF
