:020000040800F2
:100000000005002049010008A9160008E1110008B8
:10001000A5160008B50100084918000800000000F6
:10002000000000000000000000000000D9160008D9
:10003000B901000800000000AD160008DB1600083A
:100040006301000863010008630100086301000800
:1000500063010008630100086301000863010008F0
:1000600063010008630100086301000863010008E0
:1000700063010008630100086301000863010008D0
:1000800063010008630100086301000863010008C0
:1000900063010008630100086301000863010008B0
:1000A00063010008630100086301000863010008A0
:1000B0006301000863010008630100086301000890
:1000C0006301000863010008630100086301000880
:1000D0006301000863010008630100086301000870
:1000E0006301000863010008630100086301000860
:1000F0006301000863010008630100086301000850
:10010000630100086301000863010008630100083F
:10011000630100086301000863010008630100082F
:10012000630100086301000863010008630100081F
:10013000DFF810D000F02CF800480047A3180008A2
:10014000AFF30080000500200648804706480047BE
:10015000FEE7FEE7FEE7FEE7FEE7FEE7FEE7FEE777
:10016000FEE7FEE74917000831010008D2B201E0BE
:1001700000F8012B491EFBD270470022F6E710B5AC
:1001800013460A4604461946FFF7F0FF204610BD05
:10019000064C074D06E0E06840F0010394E80700D4
:1001A00098471034AC42F6D3FFF7C6FF303004084E
:1001B0005030040800BFFEE7704772B600BFFEE78C
:1001C00070B50446B3F5804F13D1D1E9000540EA7C
:1001D00005108D6840EA05208D6928438D8940EA25
:1001E000054054F82250064E3540284344F822007A
:1001F00003E06FF0704044F82200002070BD000062
:100200000000F0CF70B50246086852F8200020F0D8
:1002100001000E6842F826008868082801D14023B2
:1002200000E00023486818438E683043CE683043AE
:100230000E6930434E693043CE6930430E6A304315
:100240004E6A30438E6A3043CE6A30430E6B40EACA
:10025000060488690443486B0443074D45F48065F0
:1002600045F4E025086852F82000A84320430E68B2
:1002700042F82600002070BD7FFB080010B5034641
:10028000D1E9000440EA04108C6840EA04208C891B
:1002900040EA0444088A401E44EA0054087D801E57
:1002A00044EA00608C692043541C43F82400002079
:1002B00010BD000070B5044600F000FA0646254661
:1002C000681C10B104480078054400BF00F0F6F93E
:1002D000801BA842FAD370BD1000002000B585B085
:1002E000002001900290039004901C48006808B11F
:1002F00005B000BD01201949086000BF18484069D9
:1003000040F48070164948610846406900F48070E6
:10031000009000BF00BF41F2010001900220029056
:100320000320049001A90F4800F022F84FF68070D6
:100330000190022002900320049001A90A4800F0D5
:1003400017F84CF2337001900220029003200490C1
:1003500001A9064800F00CF800BFC9E70000002022
:10036000001002400020014000180140001401402C
:100370002DE9F847024600239C467BE14FF0010837
:1003800008FA03F4D1F8008008EA0400A0427DD105
:10039000DFF8F4A2D1F80480A8EB0A09D0453AD0DE
:1003A00014DCB8F1030F50D009DCB8F1000F31D0E4
:1003B000B8F1010F1CD0B8F1020F49D120E0B8F11B
:1003C000110F18D0B8F1120F42D11EE0B9F5881FF5
:1003D00025D006DCB9F5803F20D0B9F5801F37D194
:1003E0001AE0B9F5001F18D0B9F5041F30D117E095
:1003F000D1F80CC02DE0D1F80C8008F1040C28E0F5
:10040000D1F80C8008F1080C23E0D1F80C8008F139
:100410000C0C1EE000BF00BF00BF00BF00BF00BF4C
:10042000D1F80880B8F1000F02D14FF0040C0BE0B6
:10043000D1F80880B8F1010F03D14FF0080C146116
:1004400002E04FF0080C546103E04FF0000C00E0B4
:1004500000BF00BFFF2801D8904601E002F1040868
:100460004646FF2802D84FEA830803E0A3F10808B4
:100470004FEA88084746D6F800804FF00F0909FA7E
:1004800007F928EA09080CFA07F900E07AE048EAD7
:100490000908C6F80080D1F8048008F08058B8F147
:1004A000805F6FD100BFDFF8E481D8F8188048F092
:1004B0000108DFF8D891C9F81880C846D8F8188024
:1004C00008F00108CDF8008000BF00BF4FEAB9383E
:1004D0004FEA930958F829504FEA83784FEA187980
:1004E0004FF00F0808FA09F825EA0805DFF8A0819F
:1004F000424502D14FF0000824E0DFF898814245E0
:1005000002D14FF001081DE0DFF88C81424502D195
:100510004FF0020816E0DFF88481424502D14FF027
:1005200003080FE0DFF87881424502D14FF004085C
:1005300008E0DFF87081424502D14FF0050801E084
:100540004FF006084FEA83794FEA197908FA09F85B
:1005500048EA0505DFF850814FEA930948F8295029
:10056000D1F8048008F48018B8F5801F0BD1DFF8AB
:100570003C81D8F8008048EA0008DFF83091C9F8DB
:1005800000800AE075E0DFF82481D8F8008028EACE
:100590000008DFF81891C9F80080D1F8048008F449
:1005A0000018B8F5001F0ED1DFF8008108F104082B
:1005B000D8F8008048EA0008DFF8F09009F1040953
:1005C000C9F800800DE0DFF8E48008F10408D8F8ED
:1005D000008028EA0008DFF8D49009F10409C9F87E
:1005E0000080D1F8048008F40038B8F5003F0ED13F
:1005F000DFF8B880A8F10408D8F8008048EA0008BD
:10060000DFF8A890A9F10409C9F800800DE0DFF82F
:100610009C80A8F10408D8F8008028EA0008DFF8D8
:100620008C90A9F10409C9F80080D1F8048008F47D
:100630008038B8F5803F0ED1DFF87080A8F1080847
:10064000D8F8008048EA0008DFF86090A9F10809AE
:10065000C9F800800DE0DFF85480A8F10808D8F848
:10066000008028EA0008DFF84490A9F10809C9F8D9
:1006700000805B1CD1F8008028FA03F8B8F1000F65
:100680007FF47CAEBDE8F887000011100010024036
:1006900000080140000C014000100140001401401E
:1006A00000180140001C01400800014008040140FE
:1006B0000AB1016101E00B04036170470148006861
:1006C00070470000080000200348006803490978CB
:1006D000084401490860704708000020100000200D
:1006E00010B50848006840F0100006490860032073
:1006F00000F098F80F2000F007F800F02BF8002029
:1007000010BD00000020024070B504460E4800787D
:100710004FF47A71B1FBF0F00C490968B1FBF0F5C8
:10072000284600F0C3FC08B1012070BD102C07D290
:1007300000222146501E00F037F80548046001E011
:100740000120F2E70020F0E7100000201400002054
:100750000C00002008B500BF1148806940F001007E
:100760000F4988610846806900F00100009000BFD1
:1007700000BF00BF0846C06940F08050C86108460D
:10078000C06900F08050009000BF00BF00BF054965
:10079000486820F0E06040F00070486000BF08BD8D
:1007A00000100240000001402DE9F05F80460D4638
:1007B0001646002701F04AF8074639462A463346CE
:1007C00001F00700C0F1070ABAF1040F02D94FF097
:1007D000040A01E0C0F1070AD14600F1040ABAF1A7
:1007E000070F02D24FF0000A01E0A0F1030AD4463D
:1007F0004FF0010A0AFA09FAAAF1010A0AEA020A02
:100800000AFA0CFA4FF0010B0BFA0CFBABF1010BDF
:100810000BEA030B4AEA0B042146404601F01EF89E
:10082000BDE8F09F00BF00F00702064B19684FF6C5
:10083000FF031940044B0B4343EA0221014B1960AB
:1008400000BF70470CED00E00000FA0570B50446EB
:100850000D460CB9012070BD5A48006800F0070031
:10086000A8420ED25748006820F007002843554997
:1008700008600846006800F00700A84201D0012087
:10088000E9E7207800F0020002281DD1207800F06E
:100890000400042805D14C48406840F4E0604A490F
:1008A0004860207800F00800082805D146484068D4
:1008B00040F46050444948604348406820F0F000EC
:1008C000A168084340494860207800F0010078B3EF
:1008D0006068012806D13C48006800F4003090B9F7
:1008E0000120B8E76068022806D13748006800F0A8
:1008F000007040B90120AEE73348006800F0020004
:1009000008B90120A7E73048406820F0030061687B
:1009100008432D494860FFF7D1FE064609E0FFF77E
:10092000CDFE801B41F28831884202D9032092E734
:1009300007E02548406800F00C006168B0EB810FCB
:10094000EDD12048006800F00700A8420ED91D48EC
:10095000006820F0070028431A490860084600682C
:1009600000F00700A84201D0012074E7207800F0D1
:100970000400042807D11448406820F4E060E168CE
:10098000084311494860207800F00800082808D181
:100990000D48406820F46050216940EAC1000A49CE
:1009A000486000F03FF808494968C1F30311074A5D
:1009B000515CC8400649086006480068FFF7A4FE7D
:1009C000002048E7002002400010024018300408D0
:1009D000140000200C00002001480068704700004F
:1009E0001400002000B5FFF7F7FF04494968C1F380
:1009F0000221034A515CC84000BD000000100240C3
:100A00002830040800B5FFF7E7FF04494968C1F33F
:100A1000C221034A515CC84000BD000000100240E2
:100A20002830040870B50021002200240023002093
:100A3000134D696801F00C05F5B1042D02D0082DA5
:100A400019D101E00F4819E00F4DC1F38346AB5DAA
:100A500001F4803555B10A4D6D68C5F340450B4E24
:100A6000725D084D5D43B5FBF2F402E0084D03FBF7
:100A700005F4204602E000BF024800BF00BF70BD81
:100A80000010024000127A000630040816300408F4
:100A900000093D00F8B504460CB90120F8BD2078E6
:100AA00000F00100002878D0F848406800F00C0001
:100AB00004280CD0F548406800F00C00082811D13B
:100AC000F248406800F48030B0F5803F0AD1EF482A
:100AD000006800F4003000285FD0606800285CD116
:100AE0000120DBE700BF6068B0F5803F06D1E74832
:100AF000006840F48030E549086028E0606858B933
:100B0000E248006820F48030E04908600846006848
:100B100020F4802008601AE06068B0F5A02F0BD1A7
:100B2000DA48006840F48020D84908600846006828
:100B300040F4803008600AE0D448006820F4803037
:100B4000D24908600846006820F48020086000BF91
:100B5000606888B1FFF7B2FD054606E0FFF7AEFD1D
:100B6000401B642801D9032098E7C848006800F4B6
:100B700000300028F2D010E0FFF7A0FD054606E0A7
:100B8000FFF79CFD401B642801D9032086E7BF487E
:100B9000006800F400300028F2D1207800F0020054
:100BA000022857D1B948406800F00C0050B1B7484E
:100BB000406800F00C00082818D1B448406800F4E0
:100BC000803098B9B148006800F0020020B1206977
:100BD000012801D0012061E7AC48006820F0F8004E
:100BE000616940EAC100A949086033E02069E8B1C1
:100BF0000120A7490860FFF761FD054606E0FFF701
:100C00005DFD401B022801D9032047E79F4800688B
:100C100000F002000028F2D09C48006820F0F800A4
:100C2000616940EAC1009949086013E000209849D1
:100C30000860FFF743FD054606E0FFF73FFD401B58
:100C4000022801D9032029E79048006800F002003B
:100C50000028F2D1207800F0080008282DD1A069E2
:100C6000B8B101208B490860FFF728FD054606E072
:100C7000FFF724FD401B022801D903200EE783481B
:100C8000406A00F002000028F2D0012000F010FDC0
:100C900013E000207F490860FFF710FD054606E0DD
:100CA000FFF70CFD401B022801D90320F6E6774828
:100CB000406A00F002000028F2D1207800F0040021
:100CC000042873D100277148C06900F0805070B9C2
:100CD00000BF6E48C06940F080506C49C86108464A
:100CE000C06900F08050009000BF00BF01276A4833
:100CF000006800F48070B0B96748006840F4807004
:100D000065490860FFF7DAFC054606E0FFF7D6FC08
:100D1000401B642801D90320C0E65F48006800F446
:100D200080700028F2D000BFE068012806D1574843
:100D3000006A40F001005549086227E0E06858B9B0
:100D40005248006A20F00100504908620846006AD3
:100D500020F00400086219E0E06805280BD14B4838
:100D6000006A40F00400494908620846006A40F001
:100D7000010008620AE04548006A20F0010043498A
:100D800008620846006A20F00400086200BFE068BC
:100D9000A0B1FFF793FC054609E0FFF78FFC401B6D
:100DA00041F28831884202D9032077E622E03748B1
:100DB000006A00F002000028EFD012E0FFF77EFC8E
:100DC000054608E0FFF77AFC401B41F28831884273
:100DD00001D9032062E62D48006A00F002000028D5
:100DE000F0D1012F05D12948C06920F08050274952
:100DF000C86100BFE069C8B32448406800F00C0037
:100E0000082860D0E069022848D1002020490866FF
:100E1000FFF754FC054606E0FFF750FC401B022894
:100E200001D903203AE61948006800F00070002854
:100E3000F2D1206AB0F5803F07D11448406820F411
:100E40000030A168084311494860D4E9080108430B
:100E50000E49496821F4741108430C494860012087
:100E60000B490866FFF72AFC054607E03DE0FFF75F
:100E700025FC401B022801D903200FE60348006827
:100E800000F000700028F2D02FE0000000100240B7
:100E90000000424280044242007000400020144999
:100EA0000866FFF70BFC054606E0FFF707FC401B52
:100EB000022801D90320F1E50E48006800F0007017
:100EC0000028F2D111E0E069012800D1E6E50948E7
:100ED000466806F48031206A814204D106F470111C
:100EE000606A814201D00120D8E50020D6E50000EB
:100EF000000042420010024010B504460CB9012027
:100F000010BD606A38B96068B0F5827F00D105E035
:100F10000021E16102E00021216161610021A16203
:100F200094F8510028B9002084F85000204600F0C1
:100F300043F8022084F851002068006820F0400047
:100F400021680860A08800F48270218901F40441BE
:100F50000843A18901F400610843217C01F00201EA
:100F60000843217D01F001010843218B01F4007148
:100F70000843217F01F0380108432021095D01F079
:100F800080010843218D01F4005108432168086065
:100F90000421A06901EA1040216848602068C06906
:100FA00020F400602168C86100206065012084F899
:100FB00051000020A4E7000010B586B004460020D0
:100FC00002900390049005901949206888422DD121
:100FD00000BF1848806940F480501649886108466F
:100FE000806900F48050019000BF00BF00BF084638
:100FF000806940F0040088610846806900F00400C0
:10100000019000BF00BFA0200290022003900320A7
:10101000059002A90848FFF7ABF940200290002094
:101020000390049002A90448FFF7A2F906B010BD8E
:1010300000300140001002400008014070B5044635
:101040000E4615461CB1A069B0F5807F01D1012084
:1010500070BD94F8410028B9002084F84000204673
:1010600000F01FF804F108012068FFF7CBF83146C3
:10107000A2682068FFF702F92946236BD4E9010230
:10108000FFF79EF8A168206850F8210040F00100A9
:10109000A268216841F82200012084F84100002064
:1010A000D6E710B50446FFF719F910BD70B5044630
:1010B0002546681EB0F1807F01D301200FE0681E35
:1010C0004FF0E02148610F214FF0FF3000F0C6FBE8
:1010D00000204FF0E021886107200861002070BDEA
:1010E00010B504460CB9012010BDA06900B100E0A4
:1010F00000BF94F8410028B9002084F84000204641
:1011000000F02AF8242084F841002068C06820F408
:1011100000502168C860204600F018FB2068006974
:1011200020F49040216808612068406920F02A007E
:10113000216848612068C06840F400502168C86098
:1011400000206064202084F8410084F842000020E0
:10115000606300BFC8E7000010B586B004460020F9
:1011600002900390049005901A49206888422ED17D
:1011700000BF1948806940F48040174988610846DB
:10118000806900F48040019000BF00BF00BF0846A6
:10119000806940F0040088610846806900F004001E
:1011A000019000BF00BF4815029002200390032069
:1011B000059002A90948FFF7DBF84FF48060029020
:1011C00000200390049002A90448FFF7D1F806B06C
:1011D00010BD00000038014000100240000801402E
:1011E00000BFFEE730B504460D462A2000F04AF85D
:1011F000201200F04DF8E0B200F04AF8A118491EA4
:10120000C1F30F2000F044F8A118491EC8B200F045
:101210003FF82B2000F036F8281200F039F8E8B239
:1012200000F036F8E918491EC1F30F2000F030F83D
:10123000E918491EC8B200F02BF830BD70B504465D
:101240000D464FF4F07340F2091229462046FFF78D
:10125000C9FF2C2000F016F800220BE00748815C43
:101260000646501C305C01EB002083B2184600F0AB
:101270000FF8921C02488242F0D370BD464E00081F
:10128000C0E103000149088070470000FE07006CC0
:1012900001490880704700000008006C10B5044642
:1012A0004FF4F0734FF4A07200210846FFF79AFF45
:1012B0002C20FFF7E7FF002203E02046FFF7E8FFBE
:1012C000521CB2F5163FF8D310BD000010B5002235
:1012D0004FF400416648FFF7EBF96420FEF7EAFFA0
:1012E0000122D1036248FFF7E3F96420FEF7E2FF31
:1012F000012211465F48FFF7DBF9E020FFF7C2FF4C
:101300000020FFF7C5FF0720FFF7C2FF1020FFF7FF
:10131000BFFF0920FFF7BCFF1720FFF7B9FF0B2025
:10132000FFF7B6FF4120FFF7B3FF8920FFF7B0FFBB
:101330004B20FFF7ADFF0A20FFF7AAFF0C20FFF7B5
:10134000A7FF0E20FFF7A4FF1820FFF7A1FF1B2027
:10135000FFF79EFF0F20FFF79BFFE120FFF792FFB3
:101360000020FFF795FF1720FFF792FF1A20FFF7E5
:101370008FFF0420FFF78CFF0E20FFF789FF062068
:10138000FFF786FF2F20FFF783FF4520FFF780FF41
:101390004320FFF77DFF0220FFF77AFF0A20FFF7C7
:1013A00077FF0920FFF774FF3220FFF771FF362027
:1013B000FFF76EFF0F20FFF76BFFC020FFF762FF04
:1013C0001120FFF765FF0920FFF762FFC120FFF73B
:1013D00059FF0220FFF75CFF0320FFF759FFC520EC
:1013E000FFF750FF0020FFF753FF0A20FFF750FFE1
:1013F0008020FFF74DFFB120FFF744FFB020FFF73B
:1014000047FF1120FFF744FFB420FFF73BFF022006
:10141000FFF73EFFB620FFF735FF0A20FFF738FF42
:10142000A220FFF735FFB720FFF72CFFC620FFF7FC
:101430002FFFBE20FFF726FF0020FFF729FF042023
:10144000FFF726FF3A20FFF71DFF5520FFF720FF8B
:101450001120FFF717FF3620FFF714FF0820FFF7D2
:1014600017FF7820FEF726FF2920FFF70BFF10BD9E
:1014700000200140000C014000B587B01C216846E7
:10148000FEF77BFE4FF020401A4908601A4848607A
:101490000620886000211748C16001611021416168
:1014A00000218161C161016241624FF4805181621A
:1014B0000021C1620163416381630F2000900190AC
:1014C0001E2002900F200390102004901120059000
:1014D00000200690002269460648FFF7AFFD08B1DC
:1014E000FEF76BFE0548C06940F480600349C8619F
:1014F00007B000BD18000020040100A0000001405A
:1015000000B585B00020019002900390049000BFC8
:101510004148806940F010003F4988610846806971
:1015200000F01000009000BF00BF00BF08468069B7
:1015300040F0040088610846806900F004000090D3
:1015400000BF00BF00BF0846806940F00800886106
:101550000846806900F00800009000BF00BF00BF8F
:101560000846806940F4807088610846806900F40C
:101570008070009000BF00BF00BF0846806940F047
:10158000400088610846806900F04000009000BF7C
:1015900000BF00BF0846806940F02000886108460F
:1015A000806900F02000009000BF00BF01225103BD
:1015B0001A48FFF77DF8002201211948FFF778F853
:1015C0000122D1031748FFF773F84FF40050019040
:1015D00001200290002003900320049001A90F48ED
:1015E000FEF7C6FE01200190029000200390032028
:1015F000049001A90A48FEF7BBFE4FF40040019099
:1016000001200290002003900320049001A90548C6
:10161000FEF7AEFE05B000BD001002400010014014
:10162000000C01400020014010B50E480E49086032
:101630004FF48270486000210B488160C1600161F5
:1016400041614FF4007181610821C1610021016293
:10165000416281620A21C162FFF74EFC08B1FEF7C8
:10166000ACFD10BD003001406000002010B50B48FB
:101670000B4908604FF4E130486000210848816060
:10168000C16001610C21416100218161C161FFF7ED
:1016900027FD08B1FEF791FD10BD000000380140A4
:1016A000B800002000BFFEE700BFFEE77047000063
:1016B00008B508490968C9084FF47A72B1FBF2F11C
:1016C0004143009100BF00BF00994A1E00920029CB
:1016D000F9D108BD14000020704710B5FEF7F4FFE3
:1016E00010BD00B58FB0282105A8FEF746FD1421D6
:1016F0006846FEF742FD0120059000040690002098
:1017000007900120099002200C90C1030D914FF425
:10171000E0110E9105A8FFF7BDF908B1FEF74DFDE8
:101720000F20009002200190002002904FF4806072
:1017300003900020049002216846FFF787F808B163
:10174000FEF73BFD0FB000BD7047000070B50446CA
:101750002168096921F44051E2681143226811614E
:101760002269A1681143626941EA02052168C968DA
:1017700041F20C62914329432268D1602168496992
:1017800021F44071A2691143226851612D4A2168F8
:10179000914202D1FFF736F901E0FFF723F900EBA0
:1017A000C00101EB001162689200B1FBF2F100EBA5
:1017B000C00202EB001263689B00B2FBF3F26423E9
:1017C000B2FBF3F202EBC20303EB0212A1EB8201C4
:1017D000322202EB01116422B1FBF2F101F0F001BF
:1017E00000EBC00202EB001263689B00B2FBF3F255
:1017F0006423B2FBF3F201EB021200EBC00101EB38
:10180000001163689B00B1FBF3F100EBC00303EB35
:1018100000136668B600B3FBF6F36426B3FBF6F379
:1018200003EBC30606EB0313A1EB8301322303EBA7
:1018300001116423B1FBF3F101F00F01114422689F
:10184000916070BD0038014000BFFEE702480068AB
:10185000C0F30220704700000CED00E010B5002836
:1018600004DB0A07130E054A135406E00A07140E98
:10187000034A00F00F031B1FD45410BD00E400E026
:1018800018ED00E002E008C8121F08C1002AFAD1D2
:1018900070477047002001E001C1121F002AFBD1F0
:1018A0007047FEF71DFFFFF71CFFFFF729FEFFF74C
:1018B000E3FDFFF7B9FEFFF7D9FEFFF707FD4FF68F
:1018C0001960FFF7EBFC00210846FFF7B7FC00BFEB
:1018D000FEE7000000000000000000000000000023
:1018E0000404040404000004000014140A000000AE
:1018F00000000000000000000A0A1F0A0A1F0A0A6E
:10190000000000040E1505060C14150E040000005E
:1019100012150D152E2C2A1200000000040A0A369A
:101920001515291600000202010000000000000049
:10193000000010080804040404040808100002044D
:101940000408080808080404020000000004150E3A
:101950000E150400000000000008083E0808000002
:101960000000000000000000000002020100000072
:101970000000003F00000000000000000000000028
:1019800000000002000000201010080804040202F9
:10199000010000000E1111111111110E00000000C4
:1019A000040604040404040E000000000E111108D3
:1019B0000402011F000000000E11100C1010110E87
:1019C00000000000080C0C0A091F081C00000000A1
:1019D0001F01010F1110110E000000000C12010D6B
:1019E0001311110E000000001E1008080404040466
:1019F000000000000E11110E1111110E0000000068
:101A00000E11111916100906000000000000040054
:101A100000000004000000000000000400000004BA
:101A20000400000010080402020408100000000076
:101A300000003F003F00000000000000020408100A
:101A400010080402000000000E1111080404000434
:101A5000000000001C22292D2D1D221C000000006A
:101A600004040C0A0A1E1233000000000F12120EAA
:101A70001212120F000000001E1101010101110ECF
:101A8000000000000F1212121212120F00000000CC
:101A90001F120A0E0A02121F000000001F120A0E77
:101AA0000A020207000000001C1201013911120C89
:101AB000000000003312121E121212330000000048
:101AC0001F0404040404041F000000003E0808086A
:101AD000080808080907000037120A060A12123718
:101AE00000000000070202020202223F0000000084
:101AF0003B1B1B1B15151535000000003B1216166D
:101B00001A1A1217000000000E1111111111110EF6
:101B1000000000000F12120E020202070000000077
:101B20000E1111111117190E180000000F12120ECC
:101B30000A121237000000001E1101060810110FD2
:101B4000000000001F1504040404040E000000003F
:101B5000331212121212120C000000003312120A79
:101B60000A0C040400000000151515150E0A0A0AD7
:101B7000000000001B0A0A04040A0A1B00000000FF
:101B80001B0A0A0A0404040E000000001F090804CE
:101B90000402121F00001C040404040404040404CE
:101BA0001C000002020404040808081010000E08BB
:101BB00008080808080808080E00040A00000000C9
:101BC0000000000000000000000000000000000015
:101BD000003F0204000000000000000000000000C0
:101BE0000000000C121C123C000000030202020E56
:101BF0001212120E000000000000001C1202120C53
:101C0000000000181010101C1212123C00000000FE
:101C10000000000C121E021C000000182404041E08
:101C20000404041E000000000000003C120C021C12
:101C3000221C00030202020E1212123700000004DE
:101C4000040000060404040E000000080800000C54
:101C500008080808080700030202021A0A060A1305
:101C600000000007040404040404041F0000000032
:101C70000000000F15151515000000000000000FF2
:101C800012121237000000000000000C1212120C99
:101C9000000000000000000F1212120E02070000E8
:101CA0000000001C1212121C103800000000001B63
:101CB00006020207000000000000001E020C101EB9
:101CC000000000000004041E0404041C00000000C6
:101CD0000000001B1212123C000000000000001B5C
:101CE0000A0A04040000000000000015150E0A0A8C
:101CF000000000000000001B0A040A1B0000000096
:101D00000000003312120C08040300000000001E43
:101D10000804041E000018080808080C0808080831
:101D20001800080808080808080808080808060431
:101D3000040404080404040406001609000000005A
:101D40000000000000000000000000000000000093
:101D5000000000000000000000080808080808084B
:101D600000001818000000486C2412000000000059
:101D70000000000000000000002424247F12121242
:101D80007F12121200000000081C2A2A0A0C1828D0
:101D9000282A2A1C080800000022251515152A5893
:101DA0005454542200000000000C1212120A76252E
:101DB0002911916E000000060604030000000000D7
:101DC000000000000000004020101008080808086B
:101DD0000810102040000002040808101010101015
:101DE0001008080402000000000008086B1C1C6BAF
:101DF00008080000000000000000080808087F082C
:101E000008080800000000000000000000000000BA
:101E10000000060604030000000000000000FE00B1
:101E200000000000000000000000000000000000B2
:101E3000000006060000000080404020201010082E
:101E400008040402020000000018244242424242F8
:101E5000424224180000000000080E080808080884
:101E60000808083E00000000003C424242202010CA
:101E70000804427E00000000003C4242201820403E
:101E80004042221C0000000000203028242422228E
:101E90007E20207800000000007E0202021A264008
:101EA0004042221C0000000000382402021A264290
:101EB0004242241800000000007E22221010080870
:101EC0000808080800000000003C42424224182490
:101ED0004242423C00000000001824424242645842
:101EE0004040241C00000000000000001818000002
:101EF00000001818000000000000000000080000AA
:101F0000000000080804000000402010080402043B
:101F10000810204000000000000000007F000000CA
:101F20007F00000000000000000204081020402094
:101F30001008040200000000003C4242464020100D
:101F40001000181800000000001C225A5555555565
:101F50002D42221C00000000000808181414243C24
:101F6000224242E700000000001F2222221E2242DD
:101F70004242221F00000000007C42420101010198
:101F80000142221C00000000001F22424242424245
:101F90004242221F00000000003F4212121E121295
:101FA0000242423F00000000003F4212121E121285
:101FB0000202020700000000003C22220101017120
:101FC0002122221C0000000000E7424242427E42E1
:101FD000424242E700000000003E080808080808E6
:101FE0000808083E00000000007C101010101010BF
:101FF00010101010110F0000007722120A0E0A12A2
:1020000012222277000000000007020202020202F0
:102010000202427F000000000077363636362A2A58
:102020002A2A2A6B0000000000E346464A4A525220
:102030005262624700000000001C224141414141C0
:102040004141221C00000000003F424242423E0249
:102050000202020700000000001C224141414141F0
:102060004D53321C60000000003F4242423E1212BB
:10207000222242C700000000007C424202041820D5
:102080004042423E00000000007F4908080808085E
:102090000808081C0000000000E742424242424299
:1020A0004242423C0000000000E742422224241445
:1020B0001418080800000000006B494949495555AB
:1020C000362222220000000000E7422424181818BB
:1020D000242442E70000000000772222141408089C
:1020E0000808081C00000000007E212010100804D1
:1020F0000442423F00000078080808080808080861
:102100000808080878000000020204040808081003
:10211000102020204040001E101010101010101031
:10212000101010101E0000384400000000000000D5
:10213000000000000000000000000000000000009F
:102140000000000000FF0006080000000000000082
:10215000000000000000000000000000003C427889
:10216000444242FC0000000000030202021A264220
:102170004242261A0000000000000000003844021D
:1021800002024438000000000060404040784442B1
:10219000424264D80000000000000000003C427E83
:1021A0000202423C0000000000F08808087E080897
:1021B0000808083E0000000000000000007C222209
:1021C0001C023C42423C000000030202023A46422A
:1021D000424242E700000000000C0C00000E08081C
:1021E0000808083E000000000030300000382020C1
:1021F00020202020221E0000000302020272120A88
:102200001612227700000000000E080808080808CF
:102210000808083E0000000000000000007F9292C5
:10222000929292B70000000000000000003B46427E
:10223000424242E70000000000000000003C424231
:102240004242423C0000000000000000001B264209
:102250004242221E020700000000000000784442B3
:102260004242447840E000000000000000774C0447
:102270000404041F0000000000000000007C420273
:102280003C40423E0000000000000008083E0808F4
:10229000080808300000000000000000006342420F
:1022A000424262DC000000000000000000E742241F
:1022B00024140808000000000000000000EB494959
:1022C000555522220000000000000000007624186E
:1022D0001818246E000000000000000000E74224EF
:1022E000241418080807000000000000007E2210D7
:1022F0000808447E000000C020202020201020205C
:1023000020202020C00010101010101010101010ED
:10231000101010101010000608080808081008080F
:102320000808080806000C32C20000000000000087
:10233000000000000000000000000000000000009D
:10234000000000000000000000000000000000008D
:10235000000000000000000000000000000000007D
:102360000000000000000000000000000000E0008D
:10237000E000E000E000E0004000400040004000DD
:1023800040004000000000000000E000E000E0002D
:10239000000000000000000000006006600630033E
:1023A00098018800440000000000000000000000C8
:1023B000000000000000000000000000000000001D
:1023C000000000000000000000000000000000000D
:1023D0000802080208020802FE07FE0708020802B7
:1023E00004010401FE07FE070401040104010401C5
:1023F000000000000000000000000000400040005D
:10240000F00158034C034C034C0058007000E000EE
:10241000C001C00140034C034C034C034801F000D1
:10242000400040000000000000000000000000002C
:102430000E030A01110191009100D1005100FA032D
:10244000AE02600450045004580448048802840317
:10245000000000000000000000000000000000007C
:1024600038006400640064006400A4031C010C01D3
:102470001A019200B300E3006300C300A6041C032A
:10248000000000000000000000000C001C00100014
:10249000100008000600000000000000000000001E
:1024A000000000000000000000000000000000002C
:1024B0000000000000000000000000040002000115
:1024C00080018000C000C00060006000600060000B
:1024D000600060006000C000C0008000800100015A
:1024E00000020004000000000000020004000800D8
:1024F00018001000300030006000600060006000D4
:10250000600060006000300030001000180008001B
:1025100004000200000000000000000000000000B5
:1025200000004000400040004E0E5C07F001F0014A
:102530005C074E0E4000400040000000000000001C
:10254000000000000000000000000000000000008B
:102550000000000040004000400040004000FE0F2E
:10256000400040004000400040000000000000002B
:10257000000000000000000000000000000000005B
:10258000000000000000000000000000000000004B
:10259000000000000000000000000C001C00100003
:1025A000100008000600000000000000000000000D
:1025B0000000000000000000000000000000FE0716
:1025C000000000000000000000000000000000000B
:1025D00000000000000000000000000000000000FB
:1025E00000000000000000000000000000000000EB
:1025F000000000000000000000001C001C001C0087
:1026000000000000000000000000000400060002BE
:1026100000030001000180008000400040006000D5
:102620002000200010001000080008000C0004002A
:102630000600020000000000000000000000000092
:10264000F00098010C030C030606060606060606B3
:1026500006060606060606060C030C039801F000A3
:10266000000000000000000000000000000000006A
:10267000400060007C00600060006000600060005E
:102680006000600060006000600060006000FC03AB
:10269000000000000000000000000000000000003A
:1026A000F800840102030603060300038001800191
:1026B000C00020001000080204020202FE03FE0314
:1026C000000000000000000000000000000000000A
:1026D0007800C4008601860186018001C000700078
:1026E0008001000100030603060306038401F800CD
:1026F00000000000000000000000000000000001D9
:102700008001C001C001A0019001900188018401F5
:1027100084018201FE078001800180018001E007C1
:1027200000000000000000000000000000000000A9
:10273000FC03FC030400040004000400F4008C010A
:102740000403000300030603060382018401F8006A
:102750000000000000000000000000000000000079
:10276000E00118030C030C0004000600E601160348
:102770000E0606060606060604060C021803F000FE
:102780000000000000000000000000000000000049
:10279000F807FC070C02040104010001800080001E
:1027A0004000400040006000600060006000600089
:1027B0000000000000000000000000000000000019
:1027C000F8010C030606060606060E023C03F0009E
:1027D000CC01040306060606060606060C03F001F5
:1027E00000000000000000000000000000000000E9
:1027F000F0000C010C030602060606060606060794
:102800008C0678060006000300030C018C0178009A
:1028100000000000000000000000000000000000B8
:102820000000000000000000E000E000E000000008
:1028300000000000000000000000E000E000E000F8
:102840000000000000000000000000000000000088
:1028500000000000000000000000600060000000B8
:1028600000000000000000000000000060006000A8
:1028700040002000000000000000000000000004F4
:102880000002000180004000200010000800040049
:102890000800100020004000800000010002000439
:1028A0000000000000000000000000000000000028
:1028B00000000000000000000000FE070000000013
:1028C00000000000FE070000000000000000000003
:1028D00000000000000000000000000000000400F4
:1028E00008001000200040008000000100020004E9
:1028F00000020001800040002000100008000400D9
:102900000000000000000000000000000000F001D6
:102910000C0302060206060606060003800160009C
:1029200020002000200000000000700070007000F7
:102930000000000000000000000000000000000097
:10294000E00138060804CC0A640B2609260916099A
:1029500016099609960566030C080C041802E00196
:102960000000000000000000000000000000000067
:10297000600060007000D000D000C80088018801AD
:102980008801F801040304030403040606060F0F7C
:102990000000000000000000000000000000000037
:1029A000FF00860106030603060306038601FE00F8
:1029B0000603060206060606060606060603FF01CD
:1029C0000000000000000000000000000000000007
:1029D000E00718060C040C040400060006000600BC
:1029E00006000600060006040C040C021801F000A4
:1029F00000000000000000000000000000000000D7
:102A00007F0086010603060306060606060606067E
:102A1000060606060606060606030603C6017F002E
:102A200000000000000000000000000000000000A6
:102A3000FF03060206040600060086008600FE006C
:102A40008600860006000600060406040602FF0350
:102A50000000000000000000000000000000000076
:102A6000FF03060306040604060086008600FE0037
:102A700086008600060006000600060006000F001D
:102A80000000000000000000000000000000000046
:102A9000F00218030C020C020400060006000600F7
:102AA0000600C60F060306030C030C031803F00010
:102AB0000000000000000000000000000000000016
:102AC0000F0F060606060606060606060606FE079B
:102AD00006060606060606060606060606060F0F84
:102AE00000000000000000000000000000000000E6
:102AF000FC03600060006000600060006000600037
:102B00006000600060006000600060006000FC0326
:102B100000000000000000000000000000000000B5
:102B2000F00F80018001800180018001800180011F
:102B3000800180018001800180018001800180018D
:102B40008601C6007C0000000000000000000000BC
:102B5000CF070601860046004600260036003E00EC
:102B60006E00E600C600C6018601060306078F0F49
:102B70000000000000000000000000000000000055
:102B80000F0006000600060006000600060006000C
:102B90000600060006000600060406040602FF03FF
:102BA0000000000000000000000000000000000025
:102BB0000F0F0E070E070E079A069A069A069A0638
:102BC0005A06720672067206720622062206270F3F
:102BD00000000000000000000000000000000000F5
:102BE000070E0E040E041A041A043204620462046E
:102BF000C204C20482050207020702060206070495
:102C000000000000000000000000000000000000C4
:102C1000F00098010C030C020606060606060606DE
:102C200006060606060606060C020C039801F000CE
:102C30000000000000000000000000000000000094
:102C4000FF01060306060606060606060606060336
:102C5000FE010600060006000600060006000F0042
:102C60000000000000000000000000000000000064
:102C7000F00098010C030C0206060606060606067E
:102C800006060606060676064C028C038801F0014D
:102C900080070003000000000000000000000000AA
:102CA000FF01060306060606060606060603FE00E4
:102CB0006600C600C60086018601060306030F0EE5
:102CC0000000000000000000000000000000000004
:102CD000F8040C070604060406000E003C00F00091
:102CE000C003000300060206020606060E03F201F8
:102CF00000000000000000000000000000000000D4
:102D0000FE07620461086108600060006000600006
:102D10006000600060006000600060006000F00023
:102D200000000000000000000000000000000000A3
:102D30000F0E060406040604060406040604060430
:102D40000604060406040604060406040C02F80140
:102D50000000000000000000000000000000000073
:102D60001F0F0E060C020C020C020C0118011801B8
:102D700018011801B000B000B000F0006000600061
:102D80000000000000000000000000000000000043
:102D9000EF0E6604660466026602E602EC02EC02CE
:102DA000DC01DC01DC01DC019C018800880088007A
:102DB0000000000000000000000000000000000013
:102DC0009E070C03180118019800B0007000600005
:102DD0006000E000D000D001980188010C039E073C
:102DE00000000000000000000000000000000000E3
:102DF0001F0F0E060C020C0118011801B000B000E4
:102E00007000600060006000600060006000F80119
:102E100000000000000000000000000000000000B2
:102E2000FC07040382038001C001C000C0006000F1
:102E3000600030003000180018041C040C02FE036F
:102E400000000000000000000000E007200020005B
:102E50002000200020002000200020002000200072
:102E60002000200020002000200020002000200062
:102E70002000E00700000000000000000000040047
:102E800008000800080010001000200020002000AA
:102E9000400040008000800080000001000100022E
:102EA00000020002000400000000FC00800080001E
:102EB0008000800080008000800080008000800012
:102EC0008000800080008000800080008000800002
:102ED0008000FC00000000000000E000B0010802DB
:102EE00000000000000000000000000000000000E2
:102EF00000000000000000000000000000000000D2
:102F000000000000000000000000000000000000C1
:102F100000000000000000000000000000000000B1
:102F200000000000000000000000000000000000A1
:102F300000000000FF0F000000001800600000000B
:102F40000000000000000000000000000000000081
:102F50000000000000000000000000000000000071
:102F60000000000000000000000000000000000061
:102F700000000000000000000000F0010C030C0342
:102F8000E00338030C030603060306038E0B7C0FD5
:102F90000000000000000000000000000000080029
:102FA0000E000C000C000C000C00CC013C031C06B5
:102FB0000C060C060C060C060C060C021C03F40195
:102FC0000000000000000000000000000000000001
:102FD00000000000000000000000F0008C018C01E7
:102FE000860106000600060006020C020C01F00035
:102FF00000000000000000000000000000000002CF
:103000008003000300030003000378038C030C0318
:103010000603060306030603060304038C07780170
:1030200000000000000000000000000000000000A0
:1030300000000000000000000000E0011803080686
:103040000C06FC070C000C000C0018043802E00110
:103050000000000000000000000000000000000070
:10306000C0036006300630003000FE033000300040
:103070003000300030003000300030003000FC0103
:103080000000000000000000000000000000000040
:1030900000000000000000000000F00E98090C0382
:1030A0000C030C039801F8000C007C00F8030606E2
:1030B00006060E07F80100000000000000000800EE
:1030C0000E000C000C000C000C00EC011C030C03A7
:1030D0000C030C030C030C030C030C030C039E07E2
:1030E00000000000000000000000000000000000E0
:1030F000600060000000000000007C0060006000D4
:103100006000600060006000600060006000FC0320
:1031100000000000000000000000000000000000AF
:1031200080018001000000000000F00180018001AA
:103130008001800180018001800180018001800187
:103140008001CC007C0000000000000000000800AE
:103150000E000C000C000C000C00CC038C00CC000A
:103160004C006C007C00DC00CC008C018C019E07C4
:10317000000000000000000000000000000040000F
:103180007C00600060006000600060006000600023
:103190006000600060006000600060006000FC0390
:1031A000000000000000000000000000000000001F
:1031B000000000000000000000007707EE06660631
:1031C0006606660666066606660666066606EF0E0E
:1031D00000000000000000000000000000000000EF
:1031E00000000000000000000000CE013C030C03C2
:1031F0000C030C030C030C030C030C030C039E07C1
:1032000000000000000000000000000000000000BE
:1032100000000000000000000000F00098010C0316
:10322000060606060606060606060C030C03F00054
:10323000000000000000000000000000000000008E
:1032400000000000000000000000EE011C030C065E
:103250000C060C060C060C060C060C031C03EC01F9
:103260000C000C003E000000000000000000000008
:103270000000000000000000000078028C030C0336
:103280000603060306030603060304038C03780300
:1032900000030003C0070000000000000000000061
:1032A000000000000000000000009F0758063800E2
:1032B0001800180018001800180018001800FF0067
:1032C00000000000000000000000000000000000FE
:1032D00000000000000000000000F00718060C04C9
:1032E0000C003800F0018003040604060C03FC0106
:1032F00000000000000000000000000000000000CE
:1033000000002000200030003000FE0130003000BE
:103310003000300030003000300030023002E00178
:10332000000000000000000000000000000000009D
:10333000000000000000000008028E030C030C03D4
:103340000C030C030C030C030C030C039C07780107
:10335000000000000000000000000000000000006D
:10336000000000000000000000003E0F1C061802D4
:103370001802300130013001E000E000E0004000C0
:10338000000000000000000000000000000000003D
:1033900000000000000000000000EF0DC604C6049D
:1033A000E604EC04AC039C039C039C0308010801A5
:1033B000000000000000000000000000000000000D
:1033C00000000000000000000000BE071801980186
:1033D000B00070006000E000D00098018803DE07B4
:1033E00000000000000000000000000000000000DD
:1033F00000000000000000000000BE071C011801D2
:103400001801B000B000B000600060004000200073
:10341000200014001C00000000000000000000005C
:1034200000000000000000000000FC038401C40153
:10343000C000E00060007000300438041806FC038F
:103440000000000000000000000000038001800078
:10345000800080008000800080008000C00020008C
:10346000C00080008000800080008000800080001C
:103470008001000300004000400040004000400088
:10348000400040004000400040004000400040003C
:10349000400040004000400040004000400040002C
:1034A000400040004000000000000C001800100028
:1034B000100010001000100010001000300040003C
:1034C000300010001000100010001000100010005C
:1034D00018000C00000000001C00240042088204B8
:1034E00000070000000000000000000000000000D5
:1034F00000000000000000000000000000000000CC
:1035000000000000000000000000000000000000BB
:1035100000000000000000000000000000000000AB
:10352000000000000000000000000000000000009B
:10353000000000000000000000000000000000008B
:10354000000000000000000000000000000000007B
:10355000C001C001C001C001C001C001C0018000A4
:10356000800080008000800080008000000000005B
:10357000000000008001C003C003800100000000C3
:10358000000000000000000000000000E01CE01C43
:10359000F01E700E380718030801840000000000B8
:1035A000000000000000000000000000000000001B
:1035B000000000000000000000000000000000000B
:1035C00000000000000000000000000000000000FB
:1035D000000020102010201020102010FE7FFE7F01
:1035E0001008100810081008100810081008FE7FB6
:1035F000FE7F080408040804080408040000000012
:1036000000000000000000000000000000000001B9
:103610000001C00760191031183118391839380104
:103620007001E001C0038007000F001D0039003168
:103630001C311C310C310C11180DE0070001000188
:103640000001000000000000000000000000000079
:1036500000001C1036186308630C630463046302E3
:1036600063026301361D9C378022806340634063A0
:1036700020632063306310221836081C000000000D
:10368000000000000000000000000000000000003A
:103690000000F00098018C018C018C018C018C00E1
:1036A000CC007800183E1C08360832086304630416
:1036B000C304C303834306438E26781C0000000026
:1036C0000000000000000000000000001C003C00A2
:1036D0003C003000300010000C000600000000002C
:1036E00000000000000000000000000000000000DA
:1036F00000000000000000000000000000000000CA
:103700000000000000000000000000000040002059
:1037100000100008000C0004000600030003000372
:103720008001800180018001800180018001800191
:1037300000030003000300060006000C0008001050
:103740000020004000000000000000000200040013
:1037500008001000300020006000C000C000C00061
:103760008001800180018001800180018001800151
:10377000C000C000C0006000600030001000080001
:103780000400020000000000000000000000000033
:1037900000000000000000018003800300011C7194
:1037A0003C79783DC0070001C007783D3C791C7129
:1037B0000001800380038001000000000000000081
:1037C00000000000000000000000000000000000F9
:1037D00000000000000000000001000100010001E5
:1037E000000100010001FC7F000100010001000157
:1037F00000010001000100000000000000000000C6
:1038000000000000000000000000000000000000B8
:1038100000000000000000000000000000000000A8
:103820000000000000000000000000000000000098
:103830000000000000001C003C003C003000300094
:1038400010000C0006000000000000000000000056
:103850000000000000000000000000000000000068
:10386000000000000000FE7F0000000000000000DB
:103870000000000000000000000000000000000048
:103880000000000000000000000000000000000038
:103890000000000000000000000000000000000028
:1038A0000000000000000000000000000000000018
:1038B0000000000018003C003C0018000000000060
:1038C0000000000000000000000000000040006058
:1038D00000200030001000180008000C0004000652
:1038E00000020003000180018000C0004000600071
:1038F000200030001000180008000C000400060032
:1039000002000000000000000000000000000000B5
:103910000000C007600C30181830183018200C60F8
:103920000C600C600C600C600C600C600C600C6037
:103930001820183018303018600CC0070000000044
:103940000000000000000000000000000000000077
:10395000000000018001F8018001800180018001E8
:10396000800180018001800180018001800180014F
:103970008001800180018001C003F81F0000000069
:103980000000000000000000000000000000000037
:103990000000E007101C0818043004300C300C3014
:1039A0000030001800080004000200018000400000
:1039B0002020102008200430FC1FFC1F0000000005
:1039C00000000000000000000000000000000000F7
:1039D0000000E003180E0C0C0C180C180C18001842
:1039E000000C0006C003000E00180010003000306C
:1039F0000C300C300C100C18180CE0030000000008
:103A000000000000000000000000000000000000B6
:103A10000000000C000E000E000F800E800E400E05
:103A2000600E200E100E100E080E040E040EFE7F07
:103A3000000E000E000E000E000E000EC07F0000F3
:103A40000000000000000000000000000000000076
:103A50000000F03FF03F10001000100008000800C8
:103A6000C807280C1818081000300030003000304B
:103A70000C300C3004180418080CF003000000008F
:103A80000000000000000000000000000000000036
:103A90000000800FC01020301030180018000800FF
:103AA0000C008C0F6C183C301C600C600C600C60BF
:103AB0000C601860182030306018C007000000004B
:103AC00000000000000000000000000000000000F6
:103AD0000000F83FF83F1C100C0804080404000420
:103AE000000200020001000100018000800080004F
:103AF000C000C000C000C000C000C0000000000046
:103B000000000000000000000000000000000000B5
:103B10000000E007300C18180C300C300C301C3052
:103B200038187008E007B007180E0C1C063806306D
:103B30000630063006300C18180CE00300000000B8
:103B40000000000000000000000000000000000075
:103B50000000E00318040C080C18061006300630AC
:103B60000630063006380C3C1836F03100300018AC
:103B7000001800180C0C0C060C03F00100000000EB
:103B80000000000000000000000000000000000035
:103B90000000000000000000000000000000000025
:103BA0008001C003C003800100000000000000008D
:103BB000000000008001C003C0038001000000007D
:103BC00000000000000000000000000000000000F5
:103BD00000000000000000000000000000000000E5
:103BE000C000C00000000000000000000000000055
:103BF0000000000000000000C000C0008000800045
:103C00004000400000000000000000000000000034
:103C10000020001000080004000600038001C0001E
:103C20006000300018000C00180030006000C00078
:103C300080010003000600040008001000200000BE
:103C40000000000000000000000000000000000074
:103C50000000000000000000000000000000000064
:103C6000FE7F00000000000000000000FE7F00005A
:103C70000000000000000000000000000000000044
:103C80000000000000000000000000000000000034
:103C900004000800100020006000C0008001000344
:103CA0000006000C001800300018000C000600038D
:103CB0008001C00060002000100008000400000027
:103CC00000000000000000000000000000000000F4
:103CD000C0073018083008600C601C601C601C6055
:103CE0000030001C00060001800080008000800081
:103CF000000000008001C003C0038001000000003C
:103D000000000000000000000000000000000000B3
:103D10000000C0076018103018200C2F8C4D864C06
:103D2000C64CC64C664C66446644662666266615D6
:103D3000CC1C0C40082018303018C00700000000D0
:103D40000000000000000000000000000000000073
:103D50000001C001C001C001400160032003200335
:103D600020033006100610061006F80F080C080C89
:103D7000080C0C0C0418041806181F7C0000000026
:103D80000000000000000000000000000000000033
:103D90000000FE07181C183818301830183018307A
:103DA0001818180CF8071818183018201860186020
:103DB00018601860186018301818FE0F0000000016
:103DC00000000000000000000000000000000000F3
:103DD0000000C0276038103018200C400C40040050
:103DE00006000600060006000600060006000600A3
:103DF0000C400C400C2018303018C00700000000A8
:103E000000000000000000000000000000000000B2
:103E10000000FE03180E18181830183018301860FB
:103E200018601860186018601860186018601860D2
:103E30001830183018101818180EFE030000000073
:103E40000000000000000000000000000000000072
:103E50000000FE3F1830182018601840180018089D
:103E60001808180CF80F180C180818081800180073
:103E700018001840184018201830FE3F00000000BD
:103E80000000000000000000000000000000000032
:103E90000000FE7F1870184018C018801800181015
:103EA00018101818F81F18181810181018001800F3
:103EB000180018001800180018007E00000000000C
:103EC00000000000000000000000000000000000F2
:103ED0000000C013701C101018100C200C200400DF
:103EE0000600060006000600060006FC0630063046
:103EF0000C300C30183018303008C00700000000BB
:103F000000000000000000000000000000000000B1
:103F100000003F7E0C180C180C180C180C180C180C
:103F20000C180C180C18FC1F0C180C180C180C187A
:103F30000C180C180C180C180C183F7E0000000010
:103F40000000000000000000000000000000000071
:103F50000000F81F80018001800180018001800144
:103F60008001800180018001800180018001800149
:103F700080018001800180018001F81F00000000A5
:103F80000000000000000000000000000000000031
:103F90000000E07F0006000600060006000600069E
:103FA00000060006000600060006000600060006E1
:103FB00000060006000600060006000600060E06C3
:103FC0000E038E01FC000000000000000000000055
:103FD00000007E7C1818180818041806180218012A
:103FE00098019801D801B803380318071806180E6D
:103FF000180C181C1818183018307EFC000000002F
:1040000000000000000000000000000000000000B0
:1040100000007E0018001800180018001800180092
:1040200018001800180018001800180018001800D0
:1040300018001840184018201830FE3F00000000FB
:104040000000000000000000000000000000000070
:1040500000001FF81C381C381C381C3C3434343425
:104060003434343674326432643264326431C4318C
:10407000C431C431C430C43084309FFC000000001F
:104080000000000000000000000000000000000030
:1040900000001F7C1C103C1034103410741064108D
:1040A000E410C410C41184118413041304170416FB
:1040B000041E041C041C041C04181F18000000002B
:1040C00000000000000000000000000000000000F0
:1040D0000000C003300C181808100C300C300660BB
:1040E00006600660066006600660066006600660A0
:1040F0000C200C3008101818300CC0030000000011
:1041000000000000000000000000000000000000AF
:104110000000FE0F1818183018601860186018603A
:10412000186018301818F80F180018001800180038
:10413000180018001800180018007E000000000089
:10414000000000000000000000000000000000006F
:104150000000C003300C18180C100C300C20066046
:10416000066006600660066006600660066006601F
:10417000E4612C331C321816300EC007004C007C52
:1041800000380000000000000000000000000000F7
:104190000000FE07181C1838183018301830183076
:1041A0001818180CF80798031803180718061806AB
:1041B000180E180C180C181C18187E780000000037
:1041C00000000000000000000000000000000000EF
:1041D0000000E027303818300C200C200C000C00B8
:1041E00018007800E003800F001E003800700060A7
:1041F00004600460086018303818C80F0000000020
:1042000000000000000000000000000000000000AE
:104210000000FC3F8C218461824182418001800149
:104220008001800180018001800180018001800186
:1042300080018001800180018001E0070000000012
:10424000000000000000000000000000000000006E
:1042500000003F7C0C100C100C100C100C100C10FB
:104260000C100C100C100C100C100C100C100C106E
:104270000C100C100C1008083804E00300000000BB
:10428000000000000000000000000000000000002E
:1042900000003EF818201820182030103010301080
:1042A0003010600860086008E00CC004C004C0045E
:1042B00080038003800380030001000100000000F0
:1042C00000000000000000000000000000000000EE
:1042D0000000DFF38661862186218C210C218C234E
:1042E0008C138C138C134C1358125816580E380E0E
:1042F000380E380E300C10041004100400000000BA
:1043000000000000000000000000000000000000AD
:1043100000007E3E18083808300430047002600245
:10432000E001C001C0018001800340034007200676
:104330002006100C100C081808183E7C0000000025
:10434000000000000000000000000000000000006D
:1043500000007E7C1C10181018083008300C700407
:1043600060046002C002C002C001800180018001BF
:1043700080018001800180018001E00700000000D1
:10438000000000000000000000000000000000002D
:104390000000F83F18180818040C040E0006000767
:1043A000000380038001C001C000E00060007000D5
:1043B0003000382018201C100C18FE1F00000000D0
:1043C000000000000000000000000000C03F4000AE
:1043D00040004000400040004000400040004000DD
:1043E00040004000400040004000400040004000CD
:1043F00040004000400040004000400040004000BD
:10440000C03F0000000000000000000000000000AD
:104410000800180018001000300020006000600044
:104420004000C00080008001800100010003000204
:10443000000600060004000C000800180018001018
:10444000003000200000000000000000FC0300021B
:10445000000200020002000200020002000200024C
:10446000000200020002000200020002000200023C
:10447000000200020002000200020002000200022C
:10448000FC03000000000000000000008007C006E0
:1044900020081010000000000000000000000000D4
:1044A000000000000000000000000000000000000C
:1044B00000000000000000000000000000000000FC
:1044C00000000000000000000000000000000000EC
:1044D00000000000000000000000000000000000DC
:1044E00000000000000000000000000000000000CC
:1044F00000000000000000000000000000000000BC
:1045000000000000FFFF0000000000007800C00075
:10451000000100000000000000000000000000009A
:10452000000000000000000000000000000000008B
:10453000000000000000000000000000000000007B
:10454000000000000000000000000000000000006B
:10455000000000000000000000000000000000005B
:10456000F00318060C0C0C0C000C800F700C1C0CCB
:104570000C0C060C060C064C0C4FF8380000000022
:10458000000000000000000000000000000000002B
:1045900010001E001800180018001800180018005D
:1045A000180FD81838303860186018601860186014
:1045B00018601860182038307818C807000000000C
:1045C00000000000000000000000000000000000EB
:1045D00000000000000000000000000000000000DB
:1045E000C007700C181818180C180C000C000C00E0
:1045F0000C000C20182018103008C0070000000024
:1046000000000000000000000000000000000000AA
:104610000010001E001800180018001800180018DC
:10462000E01B301C181818180C180C180C180C1853
:104630000C180C180818181C307AE009000000004B
:10464000000000000000000000000000000000006A
:10465000000000000000000000000000000000005A
:10466000C007300C181808100C300C30FC3F0C0040
:104670000C000C00182018107018C0070000000073
:10468000000000000000000000000000000000002A
:104690000000003E80C380C0C0C0C000C000C00099
:1046A000FC1FC000C000C000C000C000C000C000AF
:1046B000C000C000C000C000C000F80F0000000033
:1046C00000000000000000000000000000000000EA
:1046D00000000000000000000000000000000000DA
:1046E000C077306C10181818181818181018300CDB
:1046F000F00718001800F00FF03F08700C600C6015
:104700000C603838E00F00000000000000000000DE
:1047100010001E00180018001800180018001800DB
:10472000980FD81838301830183018301830183022
:10473000183018301830183018307EFC0000000097
:104740000000000000000000000000000000000069
:1047500000008003800380030000000000000001CF
:10476000F8018001800180018001800180018001C9
:1047700080018001800180018001F81F000000009D
:104780000000000000000000000000000000000029
:104790000000003800380038000000000000001061
:1047A000801F0018001800180018001800180018C2
:1047B0000018001800180018001800180018001839
:1047C000180C1806F00300000000000000000000B4
:1047D00010001E001800180018001800180018001B
:1047E000183E180C1806180318019801D801380350
:1047F00018071806180C181C18187E7C00000000FA
:1048000000000000000000000000000000000000A8
:104810000001F80180018001800180018001800198
:104820008001800180018001800180018001800180
:1048300080018001800180018001F81F00000000DC
:104840000000000000000000000000000000000068
:104850000000000000000000000000000000080050
:10486000EE1C9C338C318C318C318C318C318C3101
:104870008C318C318C318C318C31DE7B000000002E
:104880000000000000000000000000000000000028
:104890000000000000000000000000000000100008
:1048A0001E0FD8183830183018301830183018301B
:1048B000183018301830183018307EFC0000000016
:1048C00000000000000000000000000000000000E8
:1048D00000000000000000000000000000000000D8
:1048E000C007701C103018300C600C600C600C603D
:1048F0000C600C60183018303018C0070000000041
:1049000000000000000000000000000000000000A7
:104910000000000000000000000000000000100087
:104920009E0F5818383018201860186018601860EA
:104930001860186018303830781898071800180078
:10494000180018007E0000000000000000000000B9
:104950000000000000000000000000000000000057
:10496000C023303C183818300C300C300C300C3070
:104970000C300C3008301838303CE0330030003058
:104980000030003000FC00000000000000000000CB
:1049900000000000000000000000000000006000B7
:1049A0007E3C60666061E000E000600060006000E6
:1049B00060006000600060006000FE070000000012
:1049C00000000000000000000000000000000000E7
:1049D00000000000000000000000000000000000D7
:1049E000E02730381830182018007000E003800FDE
:1049F000001C043004300C301C18EC0F00000000C8
:104A000000000000000000000000000000000000A6
:104A1000000000000000800080008000C000E00076
:104A2000FC1FC000C000C000C000C000C000C0002B
:104A3000C000C000C020C0208011000F0000000096
:104A40000000000000000000000000000000000066
:104A50000000000000000000000000000000102026
:104A60001E3C1830183018301830183018301830F4
:104A7000183018301830183830F4E01300000000F7
:104A80000000000000000000000000000000000026
:104A90000000000000000000000000000000000016
:104AA0007E3C181818083808300430047002600280
:104AB0006002E001C001C001C000800000000000F1
:104AC00000000000000000000000000000000000E6
:104AD00000000000000000000000000000000000D6
:104AE000DFF78E630C238C238C23981398135816AE
:104AF0005816700E700E700E200420040000000086
:104B000000000000000000000000000000000000A5
:104B10000000000000000000000000000000000095
:104B2000FC3E70087004E004C002C00180038003F2
:104B300040076006200C100C18183E7E0000000094
:104B40000000000000000000000000000000000065
:104B50000000000000000000000000000000000055
:104B60007E7C18181808300830083004600460048F
:104B7000C002C002C002800180018001800080006C
:104B800080004C003C00000000000000000000001D
:104B90000000000000000000000000000000000015
:104BA000FC1F0C0C040E0406000380038001C000EF
:104BB000E0007020302038301C18FC1F000000007E
:104BC00000000000000000000000000000300008AD
:104BD00000040004000400040004000400040004B5
:104BE000000400040002800100020004000400042C
:104BF0000004000400040004000400040004000495
:104C00000008003000000001000100010001000167
:104C1000000100010001000100010001000100018C
:104C2000000100010001000100010001000100017C
:104C3000000100010001000100010001000100016C
:104C40000001000100010000000000000C00100045
:104C50002000200020002000200020002000200054
:104C600020002000400080014000200020002000A3
:104C70002000200020002000200020002000200034
:104C800010000C00000000003800C40086400261E3
:104C90000022001C000000000000000000000000D6
:104CA0000000000000000000000000000000000004
:104CB00000000000000000000000000000000000F4
:104CC00000000000000000000000000000000000E4
:104CD000010000000300400003028001030F0003F5
:104CE000030300068301000E8301000CC300000CC7
:104CF000430020002308E0FFFF3F60000008600041
:104D000000086008100860F03F086010300860106C
:104D100030086010300860103008601030086010F3
:104D2000300860F03F08601030086010100860081C
:104D300000086000200C6000C00F6000000F200021
:104D40000002000000000000000000000000000061
:104D500030000000700000103000FE3F3000800185
:104D60003000C000300CC0C0FF1FC0003000400049
:104D70003000600030006000300020083010F0FF8C
:104D8000FF3F700C0000780C3000680C70006C0C59
:104D90003000640C3000620C300C60CCFF1F600CE3
:104DA0003000600C3000E00F3000600C3000600C10
:104DB00030006000301020F8FF3F000000000000CD
:104DC00000000000000000000000000000000000E3
:104DD000000000080000001C0800000E70000087A2
:104DE000C0018083810380C1010760C0010E306073
:104DF0000104086002000430040000180800000CE0
:104E00001800000630000003E00080018007C001A8
:104E1000403F30FEFF1C0C06E0000006600000066C
:104E200060000006600000066000000660000006EA
:104E3000600000FE7F0000066000000660000002C7
:104E4000200000000000E318E318E318E318E3185B
:104E5000E318E318E318E318E318E318E318E3187A
:104E6000E318E318E318E318E318E318E318E3186A
:104E7000E318E318E318E318E318E318E318E3185A
:104E8000E318E318E318E318E318E318E318E3184A
:10526000E318E318E318E318E318A992C99A2BABE3
:10527000889AC9A24BB309AB8BC329B3CCDBCCDB77
:105280008ACB8AC38AC349C3AAC34CD48DDCCACB98
:10529000EACB2BE4A9DB0ADC8BDC28B448B44CD580
:1052A000EFF56BDC4BE4C9D309DCE9D309DC4ADC5C
:1052B0004ADC4BDC2BDC8FFDD0FD2EDD8FED2DEDA0
:1052C0002CED2CEDEAE46CF52BED8DED6CEDADF5F0
:1052D0008DED8DED0EFECEF5ADEDCEF50EF6CDEDF0
:1052E0000EF62FF60EF6CEF5E9CB47B3E9BBEDD4BB
:1052F000D3FEF4F636F736FFF5F615F756FF36FF10
:1053000036FF36FF15FF15F7F4F6F4F6D3F6D3F6AD
:1053100093EE53F632F6D1E570D550D5EFC410BDFB
:1053200050BDD1BD0E9D0C73AB6A2A5AA9516A417A
:105330006A418A418B498B49AB51AA59AA59AA6142
:105340008A69AA6148594861476968698979887991
:1053500088796879677967718879687989798971D5
:105360000D626F42922A9232B232D232D232D232AD
:10537000D132D132D132D23AD23AF23AF232D232B8
:10538000B12A5032303AEC41A831A721A721872118
:10539000A721C829C9314D426D420C320D3A6D4AE0
:1053A0002A42073A07322832482A682A882AA72A36
:1053B000A722C72A4933E94B8EAECEC6AFD690D6C8
:1053C0006C8C2B73919B5083AF52904AD04ACF4A3A
:1053D0008F4AB042B04AD04AD05AD05A10631073A4
:1053E000708B6E8B4D938E9B10A40FBC4FCCCFE473
:1053F0000FE54FD56FD58ECD8ECD8ECDAFD5AFD538
:10540000AED5CED5CED5EED5EED52FDE4FDE4FDEE6
:105410004FDE6FDE6FE66FDE70DE70DE70E670E628
:105420006FDE4FDE4FDE2FDE10DE10DEF0D5F0D562
:10543000F0D5F0D5D0D5D0D5AFD58FD56ED56ED52A
:105440002DD52DDD0DDD0DDDECDCECDCECDC0DE532
:105450000CE5ECE4ECE4ECE4EBE4EBE4CBE4ABE40F
:10546000ABE4ABE48BE48AE48AE46AE46AE46AE4E9
:1054700069E424212421242124212421C99AA992E8
:10548000CA9A4892C9A2E9AA29BB09B329BB8BDBF6
:105490008BDB8ACBABCB8ACBAACBCACBCACBAACB72
:1054A0000BD46CE4A9CBCAD3E9D32AD4C8C328BC93
:1054B0006AC42DE52ADC2ADC4ADC2ADC2ADC2ADC68
:1054C0002ADC2ADC6BE46CE4CCE4EDE4F1FD4EED87
:1054D0008EFD2CF5AEFD0BE52BED6CEDCDF5ADEDB8
:1054E0008DED0EFECDF5ADF58DEDEEF5EEF50EF68E
:1054F0002FF64FF62FF64FF60FF68EED32FEB3FE77
:1055000092FEF3FE14F735F736FF56FF36FF56FFCF
:1055100036FF36FF36FF15FFF5F6F4F6D3F6D3F671
:10552000D3F6B3F653F632EEF2EDD1E550D5F0CC2A
:10553000F0BCF0B454CE54CE0C7BCB720A5AA949BD
:105540006A418B418B49AB49AB51AB59AA59AA5916
:105550008A618A69896148594861476968718879AF
:105560006879687968798971897189798981897996
:10557000A9716F52903AB22AB232B232B232F332D9
:10558000F232F232F232F232133BF23AD132D2320A
:10559000F232F2329132703A2B3AC731A729A82160
:1055A000A821C821C9292C3A4E422E322F320F325F
:1055B0000E3A2D3AAE4AAC4A8A426A42CC4A2C5341
:1055C000EB4AA72AC732E62A66436AAD0BC66DCE00
:1055D0008DCE6DBEF1D68FD5CD8BCE5AAF52AF4AA0
:1055E000D052D052B04AB04AD052D052D052D05AF3
:1055F000AF5A0F736F83EFABEFABCDABCEB30FBC36
:105600006FCCCFD42FDD4ED56ED58ED58DCDAED50A
:10561000AED5AED5CED5CED5EED5EED52FDE2FDE9E
:105620004FDE4FDE6FDE6FDE6FDE70DE70DE70E647
:1056300070E66FE64FDE4FDE2FDE10DE10DEF0D5B7
:10564000F0D5F0D5F0D5D0D5D0D58FD58FD56ED5B6
:105650006ED52DD52DDD0DDD0DDDECDCECDCECDCCF
:105660000DE50CE50CE5ECE4ECE4ECE4ECE4CBE477
:10567000CBE4ABE4ABE4ABE48AE48AE46AE46AE456
:105680006AE469E424212421242124212421EA9AA2
:10569000C99AA9926892C9A2E9B2E8B209BB4AC301
:1056A0006BDB6BDB6AC38AC38ACBCBCB8ACBAACB3F
:1056B000CAD38AD3CAD36CE4ADEC0AD4E9D3C8CB3D
:1056C00029CC46A3ACD42ADC0ADC4ADC4AE409DC57
:1056D00009DC6BE46BE4ACEC6BE4CCE4CDE44EEDC4
:1056E0002EE5ECECCBEC2CED4CF52CED6CF5EEF561
:1056F000CEF56CED0FFEEEFD8DEDADF5ADEDCEED25
:105700000EEE0EEE70FE70F690F650F610F651F6B4
:10571000D4FED3FE13F714F715F736FF56FF36FF06
:1057200057FF57FF57FF36FF36FF15FF15FFF4F6FB
:10573000D3F6D3F6B3F632EE12EEF2E5F2E550D53B
:1057400010CDF0BCCFB430ADCFA4EB72CB72EA5920
:10575000A9498A418B39AB49AB49AC51AB59AA59DC
:10576000AA598A618A69696127592759476947692E
:1057700068796879687968798979897989796981B5
:105780008979CA718F4AB13AD22AB232B232B22A78
:10579000F332F232123B123BF232F23AF23AD232A6
:1057A000F132F232F232B13AAF3A0932C629A729C0
:1057B000A821C821C921EA294D426E3A2E320F3262
:1057C0000F322F3A0E3A4E428D42CD4ACD4A6C42AC
:1057D0004B42CC52873AA73206338753A8ACABD59D
:1057E0004EDE4DCECBADEDB551DE14D6128CF05A57
:1057F000D052D052D052B052B052B052B052AF523A
:10580000D052D052CF620E73F0A30FB4EEBBCEAB2A
:10581000EEB34FC46FCCEFE42EDD6ED58ED58DCDBB
:10582000AED5AED5CED5CED5EED5EED5EED52FDED6
:105830002FDE4FDE4FDE6FDE6FDE6FDE70DE70DE7E
:1058400070E670E670E64FDE4FDE2FDE10DE10DE13
:10585000F0D5F0D5F0D5F0D5D0D5D0D5AFD58FD502
:105860006ED56ED52DD52DDD0DDD0DDDECDCECDC42
:10587000ECDC0DE50CE50CE5ECE4ECE4ECE4ECE44C
:10588000CBE4CBE4ABE4ABE4ABE48AE48AE46AE4E3
:105890006AE46AE469E424212421242124212421C6
:1058A0002BA34BABC99A4892889A0AB32AB36ABB16
:1058B0004ABB2ACB2ACB8ACBEBD369C3AACBCBD3A7
:1058C0008AD38AD3CADB4CE4EAD30AD46BE46BE410
:1058D000C9DBC9D3EACB4BD40ADC4AE4ABE4EDF430
:1058E00029DC2ADC4BE46BE46BE46BE4ACE4CCE451
:1058F000EDE4EDE4ECECAAE40BED8DF5ADF52BE574
:105900008CED2FFECEF58CEDADF5ADEDCEF5CEF5F3
:10591000EEF50EF62FF650F670F670EE70F650F6C5
:10592000D2F6D3F6D3F613F714F735FF36FF36FF6A
:1059300036FF57FF78FF77FF57FF56FF15FFF4F646
:10594000F4F6D3F6B3EE93EE32E652EE12E6D1DD84
:1059500050D530CDF1C473CD6EA4AC8BCB72AB728D
:10596000EA5189498A398B39AB41AB49AB51AB59C3
:105970008A59AA598A618A69696107510759476931
:105980004771687968796879687968796879687938
:105990008979EB690C6A913AB232B22AB12AB232F1
:1059A000B332F3321333123B1233F232F232D232C9
:1059B000D132F13AD132F13AD0428C3AC621A629FD
:1059C000A721A721C821E9210B326E424F3A6F323D
:1059D0006F326F326F324E324E324F324F324F3A59
:1059E0004F3A4E3A6E3AAA4A8842C73A685B69A46F
:1059F000EBCC2ADD4ACD89B5ABAD4DADAE9CAC5AF2
:105A0000AE52B04AD052D052B052B052B0528F5271
:105A1000AF52B052B04AD052CF5A2F7B8F930FB4AF
:105A2000CEABCEAB0FBC2FC4AFDC0FDD6FDD6EDDB8
:105A30008ED5AED5CED5AED5EED5EED5EED50FD62C
:105A40002FDE2FDE2FDE4FDE6FDE6FDE6FDE6FDECE
:105A50006FDE6FDE70E670E64FDE2FDE0FDE0FDEEC
:105A600010DEF0D5F0D5F0D5D0D5F0D5D0D5AFD566
:105A70008FD56ED56ED52DD52DDD0DDD2DDD0DDD52
:105A80000CDD0DE50DE50CE5ECE4ECE4ECE4ECE418
:105A9000EBE4CBE4CBE4ABE4ABE48BE48AE48AE470
:105AA0006AE46AE46AE469E42421242124212421AB
:105AB00024212BA36CABC99A2792A9A20AABACBB39
:105AC0008BABABC34ACB29C38ACBAACB8ACB8AC3C5
:105AD00069C3AAD3AAD3AAD36DE42BDC4BDC6BE455
:105AE0000ADCE9DB0ADC2BD42BDC4BE40ADC8BE49C
:105AF0008BEC2ADC2ADC4ADC6BE48BE4ACEC8BE438
:105B00008CE4EDE40DED0CEDEBEC0BED0BE56CED49
:105B1000CDF5EEFDADF58DED8CEDADF5CDF5CEED24
:105B2000CEEDEEF52FF64FF650F670F691F691F6B3
:105B300030F692F6D3F6F3F6F3F614FF36FF36FF9F
:105B400036FF36FF57FF98FF78FF57FF36FF15FFE8
:105B500014F7F4F6D4F6B3EEB3F652E652EEF2E5ED
:105B6000D1E54FCD30CDD1BC8FB4CD936C8BCB7202
:105B7000AB72C95189416A396A31AB41AB418B493A
:105B8000AB51AA59AA598A618A69485907510759DC
:105B9000476948714879687968796879687968717E
:105BA0008971AA692E5A4F5291329232B232B22A78
:105BB000B332B332F332133312331233D132D2321F
:105BC000D232F132F13AD132D132CE424A32C72901
:105BD000C729A721C721C821E8214C3A6E4A4F3A6C
:105BE0006F326F326F3A6F3A6F324F324F325032FC
:105BF000503A4F3A4F3A4E3A8B4A8942873AA74237
:105C0000A883CCBC4BD54ACD07A5499DEEB5B1B50F
:105C1000ED5ACF52B04AD04AB052B052B052B05200
:105C20008F528F52AF52AF52D052D0520F6B4F8320
:105C3000CFA3EFABCFABCEB30EC4B0DCF0E450E5F6
:105C40006FDD8ED5AED5CED5AED5EED5CED5EED5D3
:105C50000FD62FDE2FDE2FDE4FDE6FDE6FDE6FDE24
:105C60006FDE6FDE70DE70E670E64FDE2FDE0FDE79
:105C70000FDE10DEF0D5F0D5F0D5D0D5F0D5D0D5EB
:105C8000AFD58FD56ED56ED52DD52DDD0DDD2DDDA6
:105C90000DDD0CDD0DE50DE50CE5ECE4ECE4ECE4EC
:105CA000ECE4EBE4CBE4ABE4ABE4ABE48BE48AE41C
:105CB0008AE48AE46AE46AE469E424212421242150
:105CC00024212421A992C99A0AAB899A89A24BABB3
:105CD000ADB374D5CCB329BB6ACB8AC3AACBAACB4C
:105CE000ABCBAACBABDBEBDBCAD3EAD34BDC2BDCF5
:105CF0000ADC0ADC0ADCEADB2BDC4BDC2BDC4BE4C9
:105D00004ADC2ADC4AE44BE46BE48BE46BE4ACEC65
:105D1000ECECCCE4EDE4EDE40CED0BED4CEDEEFD44
:105D2000EEF56CE56CEDCEF50FFE6CEDEEFD0EF6CE
:105D30000EF60EF6EEF5EEED2FF650F691FE91F61C
:105D400071F651F692F6F3FEF3FEF4FE14FF36FF01
:105D500057FF57FF57FF77FF37FF37FF57FF36FFD4
:105D600015FF15FFF4F6D4F6D4F6B3F652E632E694
:105D7000D1DD90DD50CD10CD6FB40EA4AD9B4C8B1A
:105D8000CB728B6AA94989416A396A396A396A3999
:105D90006A418A498A51AA598A6169612859E6503B
:105DA000C650066147696871487168716871EB692E
:105DB0002C6A2D5A4F52723A723292329232B23269
:105DC000B232B332B332F332F232123B1233D23246
:105DD000D232F232123BF23AF03AF0426A3A0832E8
:105DE000A729A829C829E729C829E8296D428F4A87
:105DF0000E322F32703270326F32703A703A9042F7
:105E00006F3A4F3A6F3A6F3A2E3A2C426C4A8942B7
:105E10006842874AA652696BEA838A8CEC944FA544
:105E2000D094CE52AF4AB04AB04AD052D052D0529B
:105E3000B052B0528F52B052AE52B052D052F05A0D
:105E4000F0620F738F93F0AB2FC42FCC6FCCB0D414
:105E500031E571E5B0DDAFD5CFD5CFD5EFD5EED5F6
:105E6000EED5EFDD2FDE2FDE2FDE4FDE6FDE6FDEB5
:105E70006FDE6FDE70DE70E670E670E64FDE2FDEFE
:105E80000FDE10DE10DEF0D5F0D5F0D5F0D5F0D570
:105E9000D0D5AFD58FD56ED54ED54DD52DD50DDD01
:105EA0002DDD0CDD0DDD0DE50DE50CE50CE50CE55E
