:020000040800F2
:100000000005002049010008ED130008B91100089F
:10001000E9130008B50100088D1500080000000074
:100020000000000000000000000000001D14000897
:10003000B901000800000000F11300081F140008B7
:100040006301000863010008630100086301000800
:1000500063010008630100086301000863010008F0
:1000600063010008630100086301000863010008E0
:1000700063010008630100086301000863010008D0
:1000800063010008630100086301000863010008C0
:1000900063010008630100086301000863010008B0
:1000A00063010008630100086301000863010008A0
:1000B0006301000863010008630100086301000890
:1000C0006301000863010008630100086301000880
:1000D0006301000863010008630100086301000870
:1000E0006301000863010008630100086301000860
:1000F0006301000863010008630100086301000850
:10010000630100086301000863010008630100083F
:10011000630100086301000863010008630100082F
:10012000630100086301000863010008630100081F
:10013000DFF810D000F02CF800480047E715000861
:10014000AFF30080000500200648804706480047BE
:10015000FEE7FEE7FEE7FEE7FEE7FEE7FEE7FEE777
:10016000FEE7FEE78D14000831010008D2B201E07D
:1001700000F8012B491EFBD270470022F6E710B5AC
:1001800013460A4604461946FFF7F0FF204610BD05
:10019000064C074D06E0E06840F0010394E80700D4
:1001A00098471034AC42F6D3FFF7C6FF2C16000870
:1001B0004C16000800BFFEE7704772B600BFFEE7AE
:1001C00070B50446B3F5804F13D1D1E9000540EA7C
:1001D00005108D6840EA05208D6928438D8940EA25
:1001E000054054F82250064E3540284344F822007A
:1001F00003E06FF0704044F82200002070BD000062
:100200000000F0CF70B50246086852F8200020F0D8
:1002100001000E6842F826008868082801D14023B2
:1002200000E00023486818438E683043CE683043AE
:100230000E6930434E693043CE6930430E6A304315
:100240004E6A30438E6A3043CE6A30430E6B40EACA
:10025000060488690443486B0443074D45F48065F0
:1002600045F4E025086852F82000A84320430E68B2
:1002700042F82600002070BD7FFB080010B5034641
:10028000D1E9000440EA04108C6840EA04208C891B
:1002900040EA0444088A401E44EA0054087D801E57
:1002A00044EA00608C692043541C43F82400002079
:1002B00010BD000000B585B00020019002900390B1
:1002C00004901C48006808B105B000BD0120194920
:1002D000086000BF1848406940F4807016494861C2
:1002E0000846406900F48070009000BF00BF41F2F2
:1002F00001000190022002900320049001A90F4800
:1003000000F022F84FF68070019002200290032046
:10031000049001A90A4800F017F84CF233700190DC
:10032000022002900320049001A9064800F00CF876
:1003300000BFC9E70000002000100240002001407B
:1003400000180140001401402DE9F847024600233F
:100350009C467BE14FF0010808FA03F4D1F80080D5
:1003600008EA0400A0427DD1DFF8F4A2D1F80480AD
:10037000A8EB0A09D0453AD014DCB8F1030F50D0ED
:1003800009DCB8F1000F31D0B8F1010F1CD0B8F181
:10039000020F49D120E0B8F1110F18D0B8F1120FB7
:1003A00042D11EE0B9F5881F25D006DCB9F5803FA3
:1003B00020D0B9F5801F37D11AE0B9F5001F18D049
:1003C000B9F5041F30D117E0D1F80CC02DE0D1F8F9
:1003D0000C8008F1040C28E0D1F80C8008F1080C1E
:1003E00023E0D1F80C8008F10C0C1EE000BF00BF28
:1003F00000BF00BF00BF00BFD1F80880B8F1000FF8
:1004000002D14FF0040C0BE0D1F80880B8F1010FD5
:1004100003D14FF0080C146102E04FF0080C546156
:1004200003E04FF0000C00E000BF00BFFF2801D840
:10043000904601E002F104084646FF2802D84FEA40
:10044000830803E0A3F108084FEA88084746D6F876
:1004500000804FF00F0909FA07F928EA09080CFA99
:1004600007F900E07AE048EA0908C6F80080D1F808
:10047000048008F08058B8F1805F6FD100BFDFF8CA
:10048000E481D8F8188048F00108DFF8D891C9F85D
:100490001880C846D8F8188008F00108CDF8008008
:1004A00000BF00BF4FEAB9384FEA930958F8295006
:1004B0004FEA83784FEA18794FF00F0808FA09F8E5
:1004C00025EA0805DFF8A081424502D14FF0000877
:1004D00024E0DFF89881424502D14FF001081DE089
:1004E000DFF88C81424502D14FF0020816E0DFF8B8
:1004F0008481424502D14FF003080FE0DFF8788194
:10050000424502D14FF0040808E0DFF8708142450F
:1005100002D14FF0050801E04FF006084FEA837959
:100520004FEA197908FA09F848EA0505DFF8508119
:100530004FEA930948F82950D1F8048008F480184C
:10054000B8F5801F0BD1DFF83C81D8F8008048EA6D
:100550000008DFF83091C9F800800AE075E0DFF8A4
:100560002481D8F8008028EA0008DFF81891C9F83B
:100570000080D1F8048008F40018B8F5001F0ED1EF
:10058000DFF8008108F10408D8F8008048EA000884
:10059000DFF8F09009F10409C9F800800DE0DFF8F8
:1005A000E48008F10408D8F8008028EA0008DFF8A1
:1005B000D49009F10409C9F80080D1F8048008F446
:1005C0000038B8F5003F0ED1DFF8B880A8F1040874
:1005D000D8F8008048EA0008DFF8A890A9F10409DB
:1005E000C9F800800DE0DFF89C80A8F10408D8F875
:1005F000008028EA0008DFF88C90A9F10409C9F806
:100600000080D1F8048008F48038B8F5803F0ED11E
:10061000DFF87080A8F10808D8F8008048EA0008E0
:10062000DFF86090A9F10809C9F800800DE0DFF853
:100630005480A8F10808D8F8008028EA0008DFF8FC
:100640004490A9F10809C9F800805B1CD1F800802A
:1006500028FA03F8B8F1000F7FF47CAEBDE8F88704
:10066000000011100010024000080140000C014081
:10067000001001400014014000180140001C01401E
:1006800008000140080401400AB1016101E00B04C7
:1006900003617047014800687047000008000020AF
:1006A0000348006803490978084401490860704715
:1006B000080000201000002010B50848006840F035
:1006C000100006490860032000F098F80F2000F0A1
:1006D00007F800F02BF8002010BD000000200240B9
:1006E00070B504460E4800784FF47A71B1FBF0F013
:1006F0000C490968B1FBF0F5284600F0C3FC08B1CD
:10070000012070BD102C07D200222146501E00F09F
:1007100037F80548046001E00120F2E70020F0E727
:1007200010000020140000200C00002008B500BFBD
:100730001148806940F001000F49886108468069CE
:1007400000F00100009000BF00BF00BF0846C06974
:1007500040F08050C8610846C06900F080500090A9
:1007600000BF00BF00BF0549486820F0E06040F0CE
:100770000070486000BF08BD00100240000001404A
:100780002DE9F05F80460D461646002700F000FF79
:10079000074639462A46334601F00700C0F1070AEA
:1007A000BAF1040F02D94FF0040A01E0C0F1070AC0
:1007B000D14600F1040ABAF1070F02D24FF0000A45
:1007C00001E0A0F1030AD4464FF0010A0AFA09FA3F
:1007D000AAF1010A0AEA020A0AFA0CFA4FF0010B1E
:1007E0000BFA0CFBABF1010B0BEA030B4AEA0B040F
:1007F0002146404600F0D4FEBDE8F09F00BF00F067
:100800000702064B19684FF6FF031940044B0B43D0
:1008100043EA0221014B196000BF70470CED00E074
:100820000000FA0570B504460D460CB9012070BDF4
:100830005A48006800F00700A8420ED257480068E6
:1008400020F007002843554908600846006800F07A
:100850000700A84201D00120E9E7207800F002005B
:1008600002281DD1207800F00400042805D14C484E
:10087000406840F4E0604A494860207800F0080091
:10088000082805D14648406840F460504449486013
:100890004348406820F0F000A168084340494860A0
:1008A000207800F0010078B36068012806D13C4848
:1008B000006800F4003090B90120B8E760680228B1
:1008C00006D13748006800F0007040B90120AEE75B
:1008D0003348006800F0020008B90120A7E730485B
:1008E000406820F00300616808432D494860FFF725
:1008F000D1FE064609E0FFF7CDFE801B41F28831AC
:10090000884202D9032092E707E02548406800F0BA
:100910000C006168B0EB810FEDD12048006800F059
:100920000700A8420ED91D48006820F007002843A0
:100930001A4908600846006800F00700A84201D084
:10094000012074E7207800F00400042807D114483F
:10095000406820F4E060E16808431149486020786D
:1009600000F00800082808D10D48406820F46050C5
:10097000216940EAC1000A49486000F03FF808498F
:100980004968C1F30311074A515CC8400649086031
:1009900006480068FFF7A4FE002048E70020024058
:1009A0000010024014160008140000200C00002063
:1009B00001480068704700001400002000B5FFF7F0
:1009C000F7FF04494968C1F30221034A515CC8405A
:1009D00000BD0000001002402416000800B5FFF71B
:1009E000E7FF04494968C1F3C221034A515CC8408A
:1009F00000BD0000001002402416000870B5002160
:100A00000022002400230020134D696801F00C052A
:100A1000F5B1042D02D0082D19D101E00F4819E0DD
:100A20000F4DC1F38346AB5D01F4803555B10A4DDE
:100A30006D68C5F340450B4E725D084D5D43B5FBD7
:100A4000F2F402E0084D03FB05F4204602E000BF8B
:100A5000024800BF00BF70BD0010024000127A00C3
:100A6000021600081216000800093D00F8B50446F9
:100A70000CB90120F8BD207800F00100002878D0E2
:100A8000F848406800F00C0004280CD0F548406895
:100A900000F00C00082811D1F248406800F48030C2
:100AA000B0F5803F0AD1EF48006800F4003000281C
:100AB0005FD0606800285CD10120DBE700BF606880
:100AC000B0F5803F06D1E748006840F48030E54942
:100AD000086028E0606858B9E248006820F4803077
:100AE000E04908600846006820F4802008601AE0A9
:100AF0006068B0F5A02F0BD1DA48006840F4802080
:100B0000D84908600846006840F4803008600AE070
:100B1000D448006820F48030D24908600846006854
:100B200020F48020086000BF606888B1FFF7B2FD44
:100B3000054606E0FFF7AEFD401B642801D90320FF
:100B400098E7C848006800F400300028F2D010E0B0
:100B5000FFF7A0FD054606E0FFF79CFD401B64285B
:100B600001D9032086E7BF48006800F40030002860
:100B7000F2D1207800F00200022857D1B94840682D
:100B800000F00C0050B1B748406800F00C00082895
:100B900018D1B448406800F4803098B9B148006872
:100BA00000F0020020B12069012801D0012061E796
:100BB000AC48006820F0F800616940EAC100A9492A
:100BC000086033E02069E8B10120A7490860FFF719
:100BD00061FD054606E0FFF75DFD401B022801D9D7
:100BE000032047E79F48006800F002000028F2D089
:100BF0009C48006820F0F800616940EAC10099490A
:100C0000086013E0002098490860FFF743FD05469F
:100C100006E0FFF73FFD401B022801D9032029E72A
:100C20009048006800F002000028F2D1207800F01F
:100C3000080008282DD1A069B8B101208B490860AF
:100C4000FFF728FD054606E0FFF724FD401B0228BC
:100C500001D903200EE78348406A00F00200002813
:100C6000F2D0012000F0C6FB13E000207F490860AD
:100C7000FFF710FD054606E0FFF70CFD401B0228BC
:100C800001D90320F6E67748406A00F00200002808
:100C9000F2D1207800F00400042873D100277148B5
:100CA000C06900F0805070B900BF6E48C06940F064
:100CB00080506C49C8610846C06900F080500090BF
:100CC00000BF00BF01276A48006800F48070B0B917
:100CD0006748006840F4807065490860FFF7DAFCF7
:100CE000054606E0FFF7D6FC401B642801D9032027
:100CF000C0E65F48006800F480700028F2D000BFB2
:100D0000E068012806D15748006A40F001005549C3
:100D1000086227E0E06858B95248006A20F00100F4
:100D2000504908620846006A20F00400086219E091
:100D3000E06805280BD14B48006A40F0040049499F
:100D400008620846006A40F0010008620AE045486F
:100D5000006A20F00100434908620846006A20F05A
:100D60000400086200BFE068A0B1FFF793FC0546ED
:100D700009E0FFF78FFC401B41F28831884202D91D
:100D8000032077E622E03748006A00F002000028DE
:100D9000EFD012E0FFF77EFC054608E0FFF77AFC93
:100DA000401B41F28831884201D9032062E62D4878
:100DB000006A00F002000028F0D1012F05D1294877
:100DC000C06920F080502749C86100BFE069C8B3FE
:100DD0002448406800F00C00082860D0E069022830
:100DE00048D1002020490866FFF754FC054606E07C
:100DF000FFF750FC401B022801D903203AE61948AE
:100E0000006800F000700028F2D1206AB0F5803F41
:100E100007D11448406820F40030A1680843114904
:100E20004860D4E9080108430E49496821F4741167
:100E300008430C49486001200B490866FFF72AFC6B
:100E4000054607E03DE0FFF725FC401B022801D9DD
:100E500003200FE60348006800F000700028F2D07D
:100E60002FE0000000100240000042428004424295
:100E700000700040002014490866FFF70BFC05468F
:100E800006E0FFF707FC401B022801D90320F1E52B
:100E90000E48006800F000700028F2D111E0E0690F
:100EA000012800D1E6E50948466806F48031206A49
:100EB000814204D106F47011606A814201D00120A0
:100EC000D8E50020D6E500000000424200100240B4
:100ED00010B504460CB9012010BD606A38B96068CD
:100EE000B0F5827F00D105E00021E16102E0002140
:100EF000216161610021A16294F8510028B90020AC
:100F000084F85000204600F043F8022084F8510095
:100F10002068006820F0400021680860A08800F484
:100F20008270218901F404410843A18901F4006120
:100F30000843217C01F002010843217D01F00101F9
:100F40000843218B01F400710843217F01F038012F
:100F500008432021095D01F080010843218D01F43F
:100F600000510843216808600421A06901EA10408B
:100F7000216848602068C06920F400602168C86169
:100F800000206065012084F851000020A4E70000E3
:100F900010B586B00446002002900390049005909E
:100FA0001949206888422DD100BF1848806940F453
:100FB0008050164988610846806900F4805001908D
:100FC00000BF00BF00BF0846806940F00400886190
:100FD0000846806900F00400019000BF00BFA02017
:100FE0000290022003900320059002A90848FFF711
:100FF000ABF94020029000200390049002A904481D
:10100000FFF7A2F906B010BD003001400010024009
:101010000008014070B504460E4615461CB1A06993
:10102000B0F5807F01D1012070BD94F8410028B94E
:10103000002084F84000204600F01FF804F1080169
:101040002068FFF7DFF83146A2682068FFF716F93D
:101050002946236BD4E90102FFF7B2F8A1682068A2
:1010600050F8210040F00100A268216841F82200F8
:10107000012084F841000020D6E710B50446FFF7B0
:1010800019F910BD70B504462546681EB0F1807F81
:1010900001D301200FE0681E4FF0E02148610F21CD
:1010A0004FF0FF3000F07CFA00204FF0E021886123
:1010B00007200861002070BD10B504460CB901205E
:1010C00010BDA06900B100E000BF94F8410028B94C
:1010D000002084F84000204600F02AF8242084F8FC
:1010E00041002068C06820F400502168C860204694
:1010F00000F0CEF92068006920F490402168086172
:101100002068406920F02A00216848612068C06892
:1011100040F400502168C86000206064202084F8FA
:10112000410084F842000020606300BFC8E700006F
:1011300010B586B0044600200290039004900590FC
:101140001A49206888422ED100BF1948806940F4AE
:101150008040174988610846806900F4804001900A
:1011600000BF00BF00BF0846806940F004008861EE
:101170000846806900F00400019000BF00BF4815D8
:101180000290022003900320059002A90948FFF76E
:10119000DBF84FF48060029000200390049002A9D5
:1011A0000448FFF7D1F806B010BD00000038014038
:1011B000001002400008014000BFFEE700B587B004
:1011C0001C216846FEF7D9FF4FF020401A490860FD
:1011D0001A4848600620886000211748C1600161F4
:1011E0001021416100218161C161016241624FF4BE
:1011F000805181620021C1620163416381630F20DC
:10120000009001901E2002900F2003901020049067
:101210001120059000200690002269460648FFF73D
:10122000F9FE08B1FEF7C9FF0548C06940F48060C7
:101230000349C86107B000BD18000020040100A0E8
:101240000000014000B585B000200190029003909D
:10125000049000BF4148806940F010003F49886118
:101260000846806900F01000009000BF00BF00BF7A
:101270000846806940F0040088610846806900F0F3
:101280000400009000BF00BF00BF0846806940F026
:10129000080088610846806900F00800009000BFDF
:1012A00000BF00BF0846806940F48070886108462E
:1012B000806900F48070009000BF00BF00BF084646
:1012C000806940F0400088610846806900F0400075
:1012D000009000BF00BF00BF0846806940F02000BA
:1012E00088610846806900F02000009000BF00BFC0
:1012F000012251031A48FFF7C7F9002201211948BA
:10130000FFF7C2F90122D1031748FFF7BDF94FF4E7
:1013100000500190012002900020039003200490CF
:1013200001A90F48FFF710F801200190029000205A
:1013300003900320049001A90A48FFF705F84FF431
:1013400000400190012002900020039003200490AF
:1013500001A90548FEF7F8FF05B000BD00100240E6
:1013600000100140000C01400020014010B50E4863
:101370000E4908604FF48270486000210B4881607C
:10138000C160016141614FF4007181610821C16157
:1013900000210162416281620A21C162FFF798FD6A
:1013A00008B1FEF70AFF10BD0030014060000020C8
:1013B00010B50B480B4908604FF4E130486000213C
:1013C00008488160C16001610C2141610021816197
:1013D000C161FFF771FE08B1FEF7EFFE10BD00001E
:1013E00000380140B800002000BFFEE700BFFEE764
:1013F0007047000008B508490968C9084FF47A72B7
:10140000B1FBF2F14143009100BF00BF00994A1EB9
:1014100000920029F9D108BD14000020704710B5D2
:10142000FFF73EF910BD00B58FB0282105A8FEF7E3
:10143000A4FE14216846FEF7A0FE012005900004DA
:101440000690002007900120099002200C90C10313
:101450000D914FF4E0110E9105A8FFF707FB08B1BD
:10146000FEF7ABFE0F2000900220019000200290BA
:101470004FF4806003900020049002216846FFF73B
:10148000D1F908B1FEF799FE0FB000BD704700001A
:1014900070B504462168096921F44051E26811439E
:1014A000226811612269A1681143626941EA02055B
:1014B0002168C96841F20C62914329432268D160D6
:1014C0002168496921F44071A26911432268516180
:1014D0002D4A2168914202D1FFF780FA01E0FFF71F
:1014E0006DFA00EBC00101EB001162689200B1FBE4
:1014F000F2F100EBC00202EB001263689B00B2FB4A
:10150000F3F26423B2FBF3F202EBC20303EB021229
:10151000A1EB8201322202EB01116422B1FBF2F154
:1015200001F0F00100EBC00202EB001263689B00C7
:10153000B2FBF3F26423B2FBF3F201EB021200EB15
:10154000C00101EB001163689B00B1FBF3F100EBFC
:10155000C00303EB00136668B600B3FBF6F3642622
:10156000B3FBF6F303EBC30606EB0313A1EB830116
:10157000322303EB01116423B1FBF3F101F00F01FE
:1015800011442268916070BD0038014000BFFEE741
:1015900002480068C0F30220704700000CED00E034
:1015A00010B5002804DB0A07130E054A135406E0A1
:1015B0000A07140E034A00F00F031B1FD45410BD7A
:1015C00000E400E018ED00E002E008C8121F08C1C6
:1015D000002AFAD170477047002001E001C1121FB4
:1015E000002AFBD17047FFF767F8FFF71CFFFFF7F2
:1015F00029FEFFF7E3FDFFF7B9FEFFF7D9FE00BFB5
:10160000FEE702030405060708090A0B0C0D0E0F7E
:10161000101001020000000000000000010203049D
:101620000607080900000000010203044C16000828
:101630000000002018000000C8150008641600080B
:1016400018000020E8040000D81500080000000081
:101650000000000000000000100000000100000079
:0416600000127A00FA
:0400000508000131BD
:00000001FF
